:020000040800F2
:1000000000900020C55900088D570008935700083C
:1000100000000000000000000000000000000000E0
:1000200000000000000000000000000081B4000893
:100030000000000000000000A1B50008E9B50008BC
:10004000155A0008155A0008155A0008155A0008D4
:10005000155A0008155A0008155A00089957000843
:10006000155A0008155A0008155A0008155A0008B4
:10007000155A0008155A0008155A0008155A0008A4
:10008000155A0008155A0008155A0008155A000894
:10009000155A0008155A0008AD570008155A0008EF
:1000A000155A0008155A0008155A0008C5570008C7
:0C00B00019580008155A0008155A0008DD
:1000C00010B5064C2378002B07D1054B002B02D02E
:1000D000044800E000BF0123237010BDE8010020A8
:1000E0000000000098000108044B10B5002B03D05D
:1000F0000349044800E000BF10BDC04600000000F6
:10010000EC010020980001080023C25C0133002AA2
:10011000FBD1581E7047000002B4714649084900DF
:10012000095C49008E4402BC7047C04603B4714666
:10013000490840004900095E49008E4403BC7047ED
:10014000002243088B4274D303098B425FD3030A16
:100150008B4244D3030B8B4228D3030C8B420DD329
:10016000FF22090212BA030C8B4202D312120902B7
:1001700065D0030B8B4219D300E0090AC30B8B42F5
:1001800001D3CB03C01A5241830B8B4201D38B03A3
:10019000C01A5241430B8B4201D34B03C01A524148
:1001A000030B8B4201D30B03C01A5241C30A8B428B
:1001B00001D3CB02C01A5241830A8B4201D38B0276
:1001C000C01A5241430A8B4201D34B02C01A52411A
:1001D000030A8B4201D30B02C01A5241CDD2C3098C
:1001E0008B4201D3CB01C01A524183098B4201D308
:1001F0008B01C01A524143098B4201D34B01C01AF3
:10020000524103098B4201D30B01C01A5241C3086A
:100210008B4201D3CB00C01A524183088B4201D3D9
:100220008B00C01A524143088B4201D34B00C01AC5
:100230005241411A00D20146524110467047FFE731
:1002400001B5002000F0F0F802BDC0460029F7D04B
:1002500076E7704703460B437FD4002243088B4266
:1002600074D303098B425FD3030A8B4244D3030B3D
:100270008B4228D3030C8B420DD3FF22090212BA02
:10028000030C8B4202D31212090265D0030B8B427E
:1002900019D300E0090AC30B8B4201D3CB03C01A68
:1002A0005241830B8B4201D38B03C01A5241430B43
:1002B0008B4201D34B03C01A5241030B8B4201D333
:1002C0000B03C01A5241C30A8B4201D3CB02C01A9E
:1002D0005241830A8B4201D38B02C01A5241430A16
:1002E0008B4201D34B02C01A5241030A8B4201D305
:1002F0000B02C01A5241CDD2C3098B4201D3CB01AC
:10030000C01A524183098B4201D38B01C01A52415A
:1003100043098B4201D34B01C01A524103098B425E
:1003200001D30B01C01A5241C3088B4201D3CB0049
:10033000C01A524183088B4201D38B00C01A52412C
:1003400043088B4201D34B00C01A5241411A00D2DC
:1003500001465241104670475DE0CA0F00D0494245
:10036000031000D34042534000229C4603098B42B5
:100370002DD3030A8B4212D3FC22890112BA030A3D
:100380008B420CD3890192118B4208D389019211BF
:100390008B4204D389013AD0921100E08909C30944
:1003A0008B4201D3CB01C01A524183098B4201D346
:1003B0008B01C01A524143098B4201D34B01C01A31
:1003C000524103098B4201D30B01C01A5241C308A9
:1003D0008B4201D3CB00C01A524183088B4201D318
:1003E0008B00C01A5241D9D243088B4201D34B0033
:1003F000C01A5241411A00D20146634652415B1075
:10040000104601D34042002B00D549427047634655
:100410005B1000D3404201B5002000F005F802BD9A
:100420000029F8D016E770477047C0468446100090
:1004300062468C461900634600E0C0461FB501F0D5
:100440009BF8002801D40021C8421FBD10B500F060
:10045000EBFF4042013010BD10B501F08DF80028CF
:1004600001DB002010BD012010BDC04610B501F019
:1004700083F8002801DD002010BD012010BDC0461A
:1004800010B501F013F8002801DC002010BD012098
:1004900010BDC04610B501F009F8002801DA0020AF
:1004A00010BD012010BDC046002B11D1002A0FD174
:1004B000002900D1002802D00021C943080007B458
:1004C000024802A14018029003BDC0465DFFFFFF35
:1004D00003B4684601B5029800F08CF8019B9E4673
:1004E00002B00CBC7047C04670B500220C4B040033
:1004F0000D00FFF7CFFF002804D12000290001F0F4
:1005000001FF70BD064B00222000290001F05AFBBC
:1005100001F0F8FE80231B069C466044F1E7C046CC
:100520000000E04170B505000C0000220023280007
:100530002100FFF791FF002808D12800210000F0DA
:100540000FF802000B001000190070BD80231B067D
:10055000E118280000F004F8002342428B41F2E742
:1005600070B500220B4B0D00040001F069F8FFF795
:10057000BBFF060001F02CFF0022074B01F060F8E2
:1005800002000B002000290001F01CFBFFF7ACFF6C
:10059000310070BD0000F03D0000F04170B5060074
:1005A000080001F0E5FE0022064B01F049F80D00BD
:1005B0000400300001F00CFF2B00220000F0E6F8F0
:1005C00070BDC0460000F04170B50600080001F0A3
:1005D000FFFE0022064B01F033F80D00040030004E
:1005E00001F0F6FE2B00220000F0D0F870BDC046EE
:1005F0000000F041F0B557464E464546DE46E0B5B0
:1006000004000D009246994683B08B4230D82DD01D
:100610004946504601F020FF29000600200001F065
:100620001BFF331A9846203B34D49B4653465A4608
:10063000934042461F00534693401E00AF423BD8B2
:10064000AF4200D179E05B46A41BBD41002B00DA2C
:1006500076E0002200230092019301235A46934042
:100660000193012342469340009329E08242CFD96F
:1006700000220023009201930C9B002B01D01C60F0
:100680005D600098019903B0F0BCBB46B246A94634
:10069000A046F0BD42469B4620239B1A5246DA40B4
:1006A000414613004A468A40170042461F435346BC
:1006B00093401E00AF42C3D9002200230092019351
:1006C0004346002BD8D0FB0772081A4346467B08E6
:1006D0000EE0AB4201D1A2420CD8A41A9D410120E8
:1006E00024196D410021013E24184D41002E06D0F1
:1006F000AB42EED9013E24196D41002EF8D100988D
:1007000001995B4600196941002B24DB2B005A46F6
:100710004446D3402A00E2401C005B461500002BF3
:100720002ADB26009E40330026004746BE403200AA
:10073000801A9941009001919EE7A342BCD882E7BC
:100740004246202300219B1A00220091019201229F
:10075000DA40019285E7424620239B1A2A0046464A
:100760009A402300F340444613432A00E2401C0011
:100770005B461500002BD4DA42462F0020232600CA
:1007800097409B1ADE403B003343CDE7F0B54F4620
:100790004646D6460400C0B51F000B0310004E00AD
:1007A0005B0ACD0F610F7A001943E3003C03FF0F92
:1007B000BC46640A470F2743760D520DC000B94668
:1007C0008046B71A654500D19BE0002F00DC84E02D
:1007D000002A00D1BEE0C84A964200D124E180221E
:1007E0004C4612041443A146382F00DD67E11F2F49
:1007F00000DDD6E120224C46D21B9440A24644465E
:10080000FC4020005446044340469040421E904124
:100810004A46FA400443891A1C1BA34292415242A1
:100820008B1A9A4653461B0200D4D4E053465A0210
:10083000530A9A465346002B00D104E1504601F07A
:10084000EDFD0300083B20222000D21A5146D04083
:10085000994002009C400A43B34200DA02E19B1B2C
:10086000591C1F2900DDA7E02023100026005B1A79
:100870009C409840CE40CA40631E9C413043924603
:1008800000260443630709D00F232340042B05D01F
:10089000231DA342A4416442A2441C0053461B02F0
:1008A00000D49BE0944B01369E4200D1B8E0534601
:1008B0009249E4080B4019005B07234372054C0280
:1008C000240B520D1205ED0722432A431800110094
:1008D000E0BCBA46B146A846F0BD002F48D0971BF1
:1008E000002E00D00EE10C001C4300D1B7E17C1EAD
:1008F000012F00D126E2804DAF4200D1D5E1270083
:1009000007E1002F00DCB2E0002A47D07A4A964285
:1009100000D189E080224C4612041443A146382FAE
:100920006BDC1F2F00DC6EE13A004846203AD040D5
:100930008446202F07D040224846D21B9040020018
:100940004046104380464046421E904162460400A5
:10095000144357E04A46024300D103E17A1E012FB7
:1009600000D193E1644CA74200D18AE117003BE734
:10097000634C721C224200D0E0E00A001A43002EB1
:1009800000D074E1002A00D1D0E14A46024300D0F1
:10099000E3E14A07DB081343C90829E04A4602435A
:1009A00000D17DE17A1E012F00D1E0E0524CA74238
:1009B00000D166E11700B2E710001F3BD8402029A4
:1009C00003D040235B1A9A401443631E9C410023CA
:1009D00000269A460443630700D055E75246E308D1
:1009E0005207134352463700D108434A97421FD05B
:1009F00009037A050C0B520D64E742464C4614433A
:100A0000621E9441E4189C429241524292468A44AA
:100A100053461B02DFD5384B01369E4200D0B3E06F
:100A20003200002400234DE74A07DB081343C908BE
:100A30001A000A4300D100E2802424030C4324035B
:100A40002D4A240B3EE7200001F0E8FC0300183398
:100A50001F2B00DCF7E62200083882400024B34256
:100A600000DBFCE6F61A254B1A4092460AE7002FF7
:100A70002BD0971B002E00D1B8E01F4CA24200D112
:100A80001CE1802424042143382F00DD1EE11F2FA8
:100A900000DD9EE120260C00F61B1800B340B44098
:100AA000F8405E1EB341F94004431C43894444446A
:100AB00044459B415B424B449A461600A8E7424698
:100AC0004C461443621E9441A6E60D4C721C224211
:100AD00000D0A8E00A001A43002E00D00AE1002A44
:100AE00000D15EE14A46024300D061E14A07DB08DB
:100AF0001343C9087CE7C046FF070000FFFF7FFFE4
:100B0000FE070000CF4CA24200D1CEE08024240496
:100B10002143382F5BDC1F2F00DDDCE020250C009B
:100B2000ED1B1E00AB40AC40FE405D1EAB413443AC
:100B3000F9401C434B465B1A99464CE04A461C1A46
:100B4000881AA34292415242924602005046121A1B
:100B50009246120278D45346234300D06AE600211D
:100B6000002545E74A07DB081343C9083DE71C1881
:100B70009C429B4149448A465B429A445346012623
:100B80001B0200D427E702265246AF4B01211A4030
:100B90001300214062080A43DC075B089A461443AD
:100BA00070E63A004C46203AD440A446202F07D0A5
:100BB00040224846D21B90400200404610438046E7
:100BC0004046421E904162460400144324E6194305
:100BD0000C00631E9C4143461C1BA0459B4149469B
:100BE0005B42CB1A9A46654616001BE60C001C4376
:100BF00000D1C7E07C1E012F00D1F9E0914EB74231
:100C00005CD0270040E720224C464046D21B94404F
:100C1000F840044340469040421E90414A46FA4004
:100C200004438918EEE6874CA24200D1F9E6181871
:100C300098429B4149445B42CB18DC0740085B0863
:100C40009A4616000443C6E64246D41AA04580419F
:100C50004B464042591A0B1A9A466546EAE54B46FE
:100C60004A46C0085B0765460343D108BDE6002A33
:100C700000D08EE04B46034317D1802100250903A5
:100C8000DAE64A07DB081343C908D1E61C1A4A46CC
:100C9000A3429B41891A5B42CB1A9A460126C1E5C1
:100CA0004A07DB081343C9089FE64346D8084B466A
:100CB0004A465B0765460343D108B9E64346D80870
:100CC0004B464A465B070343D108B1E619430C0083
:100CD000631E9C41EBE63C000D00203CE540202FCC
:100CE00003D04024E41BA1400B431C00631E9C4125
:100CF0002C4370E7002AE1D04A460243C1D04A079C
:100D0000DB0813438022C9081203114208D0484669
:100D1000C408144204D143462100DB0842071343B0
:100D20005A0FDB005207DB08134381E64B460343AF
:100D300000D114E74B464A46C0085B0765460343AB
:100D4000D10855E6C41AA04580414B464042591A85
:100D50000B1A9A466546012664E51C1A4A46A342C8
:100D600080418A1A4042121A9246120249D54246DE
:100D7000D41AA04580414B464042591A0B1A9A4654
:100D800065467FE54B464A46C0085B070343D108EA
:100D90002BE64A46DB08024338D14A071343C90809
:100DA00046E64B464A46C0085B070343D1081FE6A8
:100DB0001C189C429B4149448A465B429A445346D4
:100DC0001B0200D407E652461F4B01261A409246EA
:100DD00001E63C000E00203CE640202F03D04024DA
:100DE000E41BA1400B431C00631E9C4134435EE6A0
:100DF00043448342804149448A4640421C00824425
:100E0000BCE65346234300D1A9E6E4E54A07134371
:100E10008022C9081203114209D04846C40814426E
:100E200005D1434665462100DB08420713435A0FAC
:100E3000DB00DB0852071343FAE50023014A1C00DC
:100E400040E5C046FF070000FFFF7FFFF0B55746B3
:100E50004E464546DE46E0B50C031F004B0081467A
:100E60009246050085B0240B5B0DCE0F002B00D100
:100E700052E1D24A934200D16EE1420FE4001443A2
:100E80008022120422439046CD4AC50093469B44DB
:100E90000023994600933C037B005046240B5B0DD6
:100EA000FF0F002B00D11AE1C44A934200D15EE14A
:100EB000420FE4002243802424041443C04AC100AA
:100EC00094465A466344D31A9B46002033007B4025
:100ED0009A464B460F2B27D8BA4A9B00D3589F46B9
:100EE000B246009B022B16D0032B00D187E2012BC8
:100EF00000D0D5E00023002200251B0513435246F5
:100F0000D20713432800190005B0F0BCBB46B24617
:100F1000A946A046F0BD00220025A84BEDE7BA4641
:100F2000A0460D000090DCE7444500D2C4E100D1AA
:100F3000BFE101235B429C462E0040460025E3446E
:100F400023020C0E1C431B0C994623040A021F0C9F
:100F5000494600920197FFF779F902007A430B04A2
:100F6000310C804619438A4207D901235B429C46D3
:100F70000919E0448C4200D801E2881A4946FFF77B
:100F800065F9019A360442430904360C03000E4306
:100F9000B24204D93619013BB44200D8E9E1B01A93
:100FA0004246009E12041A43330C1F00110C904657
:100FB000029313043204160C32001B0C5A4303969E
:100FC0007B434E437943170CBC469B1963449E42B6
:100FD00003D980267602B44661441E0C71181604AB
:100FE0001B04360C9E19884202D312D1B54210D28E
:100FF00043465A1E009B9C4665441F009D429B41F0
:101000005B421B19C018844200D29EE100D199E1D5
:101010009046AE1BB542AD41401A6D42401B844222
:1010200000D1D2E14946FFF711F9019A0B0442437E
:10103000310C050019438A4200D96CE1881A4946EF
:10104000FFF704F9019A360442430904360C030001
:101050000E43B24200D953E10398B61A02002D04A0
:101060001D43029F2B041B0C5A437B439C46290CB7
:101070004843130C844463447943984203D9802045
:10108000400284466144180C12041B04120C4018E0
:101090009B18864200D200E100D1FBE001231D43F2
:1010A000494B5B44002B00DCAAE06A0700D03DE11D
:1010B000E9084246D20106D54246444B1A408023F5
:1010C0009046DB005B44424A934200DD23E7424600
:1010D0005B05550752020D43120B5B0D0DE75146A0
:1010E000214300D17CE0002C00D1FBE0200001F086
:1010F00095F902000B3A1D239B1A52460100DA4073
:10110000534608398B408C4019001443314B5844E6
:101110009B4683440020D9E603002343984644D0ED
:10112000002C00D1CFE0200001F078F9010002008E
:101130000B391D235B1A49461000D94008388440FA
:101140000B004D46234398468540234B9B1A9B46F4
:101150000023994600939EE60200224390461DD14B
:1011600008229B46022300259146009393E65146B0
:10117000214309D102234A461A43184B91469C4603
:1011800000240220E344A1E603234A461A43134BFA
:1011900091469C4651460320E34497E60C229B4629
:1011A0000323A0469146009375E604239946002345
:1011B0009B460133002500936DE6C046FF07000003
:1011C00001FCFFFFA8070108FF030000FFFFFFFE6F
:1011D000FE070000F30300000DFCFFFF01F8FFFF16
:1011E0004A4601231A439146002401206EE600235B
:1011F00080229A460025884B12037EE601256D4227
:101200000122D21A382A00DD74E61F2A00DCBDE074
:101210001F214942CB1A4146D9400B00202A04D055
:1012200041467E4A5A4491400D4329004A1E91414D
:10123000194307231D0000220D400B4200D1D0E0CE
:101240000F2200230A40042A00D1C7E00A1D8A4267
:10125000894149425B1811001A0200D4BEE0012303
:101260000022002549E6802243461203134208D09B
:10127000144206D122431203BA460D00664B120BEC
:101280003BE68022434612031A431203B246624BE6
:10129000120B32E6002B00D102E7A6196A1EA64205
:1012A00000D289E0864200D29FE000D1AFE0150075
:1012B000F4E6A94200D93CE64346DE0758086B082D
:1012C0001E43ED073CE601F0A9F8010002001531CC
:1012D00020321C2900DC2CE74B46083883400025CF
:1012E000984632E701F09AF803001A0015322030D0
:1012F0001C2A00DCFFE65446083B00219C4005E721
:101300003619013BB44200D9A6E6B24200D8A3E6A2
:10131000831E3619A0E60919013D8C4200D98DE6DD
:101320008A4200D88AE6851E091987E60F222A40DC
:10133000042A00D1BCE6291DA942AD416D42C9086D
:10134000A844B6E6AF4200D962E6814204D800D094
:101350005EE6AE4200D85BE602235B429C46009B01
:10136000E0449C4665449D429B415B421B19C0186A
:101370004FE6B24200D812E6831E36190FE68A42C3
:1013800000D8FAE5831E98460919F6E5244B280093
:101390005B4441469D409940D0406B1E9D41434671
:1013A00001432943D3404A0700D155E70F220A40A1
:1013B000042A00D04AE74FE71500864200D06DE6C8
:1013C000009A9A4200D069E66AE6164B5B44002B0D
:1013D00000DC13E701250021A8446AE65D075B02F3
:1013E0001A0BC90800230D4387E50099023D4A0006
:1013F0008A42BF417F423F19F6190092DDE7802201
:10140000434612031A431203034B120B75E500996E
:101410009942EAD31500D3E7FF0700003E0400001D
:101420001E040000FF030000F0B54E464546DE46B0
:1014300057469046E0B517001A03120B0500844684
:1014400019480E034C0091465A00DB0F9B46360BA1
:10145000640DC90F520D844219D0824210D0012070
:1014600094420ED14E450CD10120C44509D15945B5
:1014700017D0002C05D130002843431E984100E0CE
:101480000120F0BCBB46B246A946A046F0BD3300E1
:1014900001202B43F5D1A242F3D14B463B43F0D17F
:1014A000E2E70020EDE7C046FF070000F0B5474641
:1014B000CE460400180016001B031B0B2D4D4A00DE
:1014C000994680B543000F03A446B0463F0B520D2A
:1014D000C90F5B0DC00FAA4221D0AB4213D0002A26
:1014E00022D13C43002B02D14D462E4322D0002C6A
:1014F00010D0814222D00220013908400138C0BCFE
:10150000B946B046F0BD4D462E4329D1002AF0D150
:101510003C43EED10028F2D101204042EFE73D00EC
:1015200025431DD19342EED0002BE2D14C462643F9
:10153000DFD1E0E70020002CE1D0DCE79A420ADCB2
:10154000E8DB4F45D7D80ED000204F45D7D2002931
:10155000E2D00800D3E74342584140000138CEE7CB
:1015600002204042CBE7C445C5D80020C445C6D2BE
:10157000EDE7C046FF070000F0B54746CE46040041
:10158000180016001B031B0B2C4D4A00994680B512
:1015900043000F03A446B0463F0B520DC90F5B0D2D
:1015A000C00FAA420DD0AB4210D0002A27D13C4335
:1015B000002B11D14D462E430ED10020002C15D00A
:1015C0000EE03D00254310D1934218D14D462E43E5
:1015D0000BD1002A02D13C43002C0BD0814214D005
:1015E000022001390840013800E00220C0BCB946A1
:1015F000B046F0BD0028F9D101204042F6E7002BAB
:10160000ECD14C462643E9D1EAE79A4204DD434255
:10161000584140000138E9E79A42EBDB4F45DFD8FB
:1016200006D000204F45E1D20029E5D00800DDE7D3
:10163000C445D5D80020C445D8D2F5E7FF0700003F
:10164000F0B54546DE4657464E46E0B51F000B0353
:101650001B0B9B464D00CB0F04009146984687B06C
:101660006D0D00D1CDE1CE4B9D4200D1E9E15A464E
:10167000430FD2001343802212041A43C3009A4638
:10168000C84B93469C4600230026654400933C03C8
:101690007B004846240B5B0DFF0F002B00D189E136
:1016A000BF4A934219D0420FE4002243802424040D
:1016B0001443BC4A00219446424663445B1901939B
:1016C000019B7A400133C000D2B202930A2E1CDD86
:1016D0003A000B2E5ED0474656E04946B04B2143B8
:1016E000EB18019300292AD18020022200012B004F
:1016F00084461643424663447A40D2B202930A2E8D
:1017000000DD31E2002000240221022E26DC013E11
:10171000012E52D802294CD0012900D018E1002313
:10172000002400251B052343D2071343280019007A
:1017300007B0F0BCBB46B246A946A046F0BD80212A
:10174000032209012B008C461643424663447A402B
:10175000D2B202930A2E00DD28E203210125B54012
:10176000AC46A6266346F600354033420BD19026A0
:10177000B600334218D1B93EFF3E1E421DD0A346EB
:101780008246009100E0170000993A00022910D02B
:101790005C4650460329BFD180231B031C4324030E
:1017A00005007F4B240BBDE7802400227C4B2403E3
:1017B000B8E7002400257A4BB4E753461E04360CE4
:1017C0001F0C3300010C0004000C43439846030037
:1017D0007B43994633004B439C4643460D001B0C0C
:1017E0009A467D43CC44D4440095E14504D98023F6
:1017F0005B0299464D44009563461B0C1D006346F1
:101800001B049C4643461B041B0C984663464344FA
:101810000393230C984633002404240C63439C4612
:1018200023007B43994643465E435F434E446346F1
:10183000B2461E0C5644B14503D980235B0299463B
:101840004F44330C99463B004B4405936346AC46EA
:101850001F043F0C3604F619B444634604935B46F8
:101860001B0C9C465B461F043F0C3B0043439946C0
:10187000634643439A464B4660461B0C9B4648438F
:101880007943514459448A4503D980235B029A46DF
:1018900050440B0C9A464B461B041B0C99463B00CC
:1018A0006343090445464944994663465C436B4398
:1018B0009C464B461B0C98466F433F194744504487
:1018C000BC4203D980235B029846C444049B009D1C
:1018D00098464544B542B641734298464B461E046D
:1018E000059B3C049946360CA4194C44A1468346FA
:1018F0006E18C1448E428941CB445D4649426D1801
:101900009C42A441C1459B41834580418D42894110
:101910005B4264421C434042039B494201437002C4
:101920003F0C1843E419471EB84164186444F60D8F
:1019300061023043EC0D6E020C433043C90100D408
:10194000F1E00121430801400B43E007184364081C
:101950001549029B8C466344002B00DC97E041074D
:1019600009D00F210140042905D0011D8142804189
:10197000404224180800E10106D58021C9008C46A8
:101980000A4B1C40029B634409498B4200DD10E76F
:101990006107C50864025B050D43240B5B0DC1E6BE
:1019A000FF07000001FCFFFFFF030000FFFFFFFE39
:1019B000FE0700004B46234359D0002C00D1A3E082
:1019C000200000F02BFD010003000B391D22521AEC
:1019D00049461800D1404A460838824084401000E9
:1019E0000C43744AEB1A9446424663440193019BAC
:1019F0007A4001330021D2B202930A2E00DD67E65D
:101A000083E65B4603439A462AD05B46002B6DD0A3
:101A1000584600F003FD010003000B391D22521A45
:101A2000210018005D46D140083885400A008440F6
:101A30002A439346A2465F4D0026ED1A00230093E9
:101A400025E65B4603439A4605D100239B460233B5
:101A5000082600931BE6032382460C26009316E615
:101A600000239B4601330426002500930FE64246DF
:101A7000013301951E43019B7A400133002400206D
:101A80000121D2B202930A2E00DD21E63DE60121BA
:101A9000C91A382900DD42E61F2947DD1F26250027
:101AA0007642F31ADD402B00202905D04249029DE1
:101AB0008C466544AC402043411E884118430723AF
:101AC0001D000024054003424AD00F230024034098
:101AD000042B42D0031D8342804140422418180049
:101AE00023023AD50123002400251BE600F096FCD2
:101AF00001000300153120331C298FDD0838002236
:101B000084409246A34696E700F088FC010003005B
:101B1000153120331C2900DC58E702004C46083AF6
:101B2000002094405DE7019B029311E7234B2600C0
:101B30009C460300029DCB406544AE401E4303001B
:101B4000AB40581E834130001843CC404307C7D0F8
:101B50000F230340042BBDD1C2E765076402240BA9
:101B6000C00800230543DDE5002502230F2E0CD11C
:101B700080245B46240323420ED021420CD10C4327
:101B800024033A000E4B240BCCE50B2E00D0A2E52B
:101B90008B46AA460093F7E580245B4624031C434A
:101BA000240342465546064B240BBBE54D46210017
:101BB0000323DBE70DFCFFFF3E0400001E040000D2
:101BC000FF070000F0B557464E464546DE46E0B5F5
:101BD0000D000400190010002B035B0A620F1A436A
:101BE000E3000C03640A470F2743D04C6E00914674
:101BF00083B04A00C0009846A246760DED0F520D04
:101C0000C90F0190A24200D1B9E0012461408B4686
:101C10008D4200D18DE0B41AA446002C00DCB7E060
:101C2000002A00D1CBE0C14A964200D186E1802251
:101C3000120417436246382A00DDA4E11F2A00DDA2
:101C40001DE2614620223C00521A0100904094405F
:101C5000421E90416246A0466446D7404A46E14053
:101C60004446D21B91460C4304431C1BA3429241A1
:101C70004B4652429B1A9A4653461B0200D42BE114
:101C800053465A02530A9A465346002B00D166E146
:101C9000504600F0C3FB0300083B20222000D21A6C
:101CA0005146D040994002009C400A439E4200DDCC
:101CB00064E19B1B591C1F2900DDFEE0202310005E
:101CC00026005B1A9C409840CE40CA40631E9C414F
:101CD0003043924600260443630709D00F23234074
:101CE000042B05D0231DA342A4416442A2441C003E
:101CF00053461B0200D4F2E08C4B01369E4200D1C9
:101D00000FE153468A49E4080B4019005B0723435F
:101D100072054C02240B520D12052243ED072A4393
:101D20001800110003B0F0BCBB46B246A946A0465D
:101D3000F0BDB41AA446002C59DD002A00D1B0E051
:101D4000564500D1FAE08022120417436246382A31
:101D500000DDD4E01F2A00DCC0E13900203AD14088
:101D60006246202A06D064464022121B3C00944062
:101D700004430194019C621E94410C43C3E03C0067
:101D800004432BD08B468D422ED06A4CA446B444DB
:101D90006446002C5FD0941BA446002E00D020E1A6
:101DA0004C461C4300D1C7E161464C1E012900D1BD
:101DB00023E25E4DAC4500D1D8E1A4461AE13A00D9
:101DC000024300D1E4E02200013A012C00D1C3E13A
:101DD00056498C4200D1B1E094462BE70124614082
:101DE0008B468D4200D016E752498C46B444644677
:101DF000002C00D1D3E0911B8C46002E00D15EE177
:101E00004A498A4200D1BEE180214C4609040C4374
:101E1000A1466146382900DDBAE11F2900DD27E22D
:101E20002024641A4946A1401E0088466146A3400A
:101E3000CE4041465C1EA341314319430C0063462A
:101E40004946D9407F18241884429B415B429A46F8
:101E50001600BA445DE0384C721C224200D0DFE02C
:101E60004A461A43002E00D05CE1002A00D1CFE19F
:101E70003A00024300D17FE11C1A4A46A34289413D
:101E8000D21B4942521A9246120200D40AE2C41AE4
:101E9000A04280414B464042FF1A3B1A9A465D469B
:101EA0001AE73A00024373D02200013A012C00D114
:101EB000CBE0544542D0944648E710001F3BD84041
:101EC000202903D040235B1A9A401443631E9C418F
:101ED000002300269A460443630700D0FEE65246DC
:101EE000E308520713435246B446D2080F498C45C3
:101EF0002AD01203140B62465205520D0CE73C0027
:101F00000443621E9441E4189C42924152424A4466
:101F1000924653461B02DFD5044B01369E4200D049
:101F2000A0E0320000240023F6E6C046FF070000D0
:101F3000FFFF7FFF01F8FFFFFE070000DB084A46B6
:101F4000520713434A46D2081900114300D1B5E1A4
:101F50008024240314432403D54A240BDCE6200008
:101F600000F05CFA030018331F2B00DC95E622001A
:101F70000838824000249E4200DC9AE6F61ACD4BD7
:101F80001A409246A8E63C000443621E94416CE667
:101F90004A46DB08520713434A46D208A6E7C64C16
:101FA000721C224200D0ACE04A461A43002E00D0F8
:101FB00005E1002A00D156E13A00024300D1DBE0FE
:101FC0001C189C429B414F44BA465B429A4453467C
:101FD0001B0200D480E75246B64B01261A409246B7
:101FE0007AE7B34CA24200D1C0E080244D462404DD
:101FF0002543A9466446382C53DC61461F2C00DD7E
:10200000CDE020251E002D1B4C46AB40AC40CE4001
:102010005D1EAB41344323434C46CC403F1B45E05F
:102020004A461C1AD11BA3429241524292460A00D0
:102030005146521A9246120200D583E0534623437A
:1020400000D021E60022002553E71C189C429B414A
:102050004F44BA465B429A44534601261B0200D4C1
:102060003AE702265246934B01211A4013002140C1
:1020700062080A43DC075B089A4614432CE63900E1
:10208000203AD1406246202A06D064464022121BE4
:102090003C00944004430194019C621E94410C4313
:1020A000E3E5494619430B005C1EA341C41AA04254
:1020B0009B415B42FB1A9A465D461600DCE54946A9
:1020C000194300D1AEE0614664460139012C00D1CC
:1020D000E0E0774CA44556D08C469AE66146202233
:1020E0003C00521A944001009040A0466446421EB3
:1020F00090416246E1404446D7400C430443B94412
:1021000001E76B498A4200D10CE7181898429B41BD
:102110004F445B42FB18DC0740085B089A461600F8
:102120000443D9E6002A00D081E03B0003431DD1DF
:102130008022002512030BE7C0087B075D4603439E
:10214000FA08D3E6C41AA04280414B464042FF1A27
:102150003B1A9A465D4697E51C1A4A46A3429B41A4
:10216000D71B5B42FB1A9A46012685E5C0087B0710
:102170005D460343FA08E7E64A46DB085207134385
:102180004A46D208B5E6C0087B070343FA08DBE6F7
:10219000494619430B00591E8B411C0053E64D461E
:1021A000203CE540202905D04024641A4946A1403E
:1021B0000B43984643465C1EA3412B4376E7002A17
:1021C000E1D03A00DB08024300D1B8E64A465207A4
:1021D000802413434A462403D208224207D0FE0833
:1021E000264204D15D463200C3087F073B43590FA6
:1021F000DB004907DB080B43A6E6C41AA042804176
:102200004B464042FF1A3B1A9A465D46012633E58B
:102210003B00034300D115E7C0087B075D4603433D
:10222000FA0866E6C0087B070343FA085EE63A0050
:10223000DB08024300D182E64A465207802413435A
:102240004A462403D208224207D0FE08264204D17F
:102250005D463200C3087F073B43590FDB00DB08B4
:1022600049070B4370E6C0087B070343FA0840E6C2
:102270004C462039CC406146202906D06646402194
:10228000891B4E468E40334398464346591E8B4128
:102290001C43D8E51C18844280414F44BA46404252
:1022A0008244D9E65346234300D1CBE614E6C04628
:1022B000FF070000FFFF7FFFFE0700000023014A29
:1022C0001C0029E5FF07000070B505000C481C0341
:1022D00016005B000A034900120B490D240B5B0D2D
:1022E000814208D0064A0020934203D120003043A7
:1022F000431E984170BD01202A43FBD1F2E7C0463E
:10230000FF0700000A0030B5134C53000903050015
:10231000090B00205B0DD20FA34204DD0F4883425E
:1023200002DD0F4BD01830BD8020400301430D4823
:10233000C01A1F2808DD0C48C31AD9400B005842A8
:10234000002AF0D11800EEE7084CC540A4466344CB
:1023500099400B002B43F2E7FE0300001D04000030
:10236000FFFFFF7F3304000013040000EDFBFFFFBD
:1023700070B5002816D0C317C5185D40C40F2800DB
:1023800000F04CF8114B1B1A0A2816DC02002E0034
:10239000153296400B22121AD5405B052D032D0BEA
:1023A0005B0D03E000240023002500261B052B43C2
:1023B000E40723433000190070BD0B3885405B05EE
:1023C0002D0300262D0B5B0DF0E7C0461E04000018
:1023D00010B5041E10D000F021F80F4B1B1A0A286C
:1023E00011DC0B222100121AD14015300A035B05C3
:1023F0008440120B5B0D01E0002300221B051343F8
:102400002000190010BD22000B3882405B0512032A
:102410000024120B5B0DF1E71E0400001C210123B8
:102420001B04984201D3000C10391B0A984201D3B7
:10243000000A08391B09984201D30009043902A295
:10244000105C40187047C0460403020201010101FC
:10245000000000000000000010B5002903D1FFF7C4
:10246000DDFF203002E00800FFF7D8FF10BDC046B6
:1024700080B582B000AF786039603A687B6811003F
:1024800018000BF0CCF8031E01D0012300E000235C
:102490001800BD4602B080BD80B582B000AF786044
:1024A0007B681800FDF730FE03009AB2FA239B0008
:1024B0007968074804F0F0FFFA239B0005490448B7
:1024C000022204F0E9FFC046BD4602B080BDC0460E
:1024D000E4070020B000010890B5B9B004AF0200D5
:1024E000FB1D1A70FB1D1B78282B00D962E19A0096
:1024F000B34BD3181B689F46B24B1800FFF7CCFFB5
:10250000B14B00221A7056E1AF4B01221A70AF4B4B
:102510001800FFF7C1FF4EE1AB4B04221A70AC4B21
:102520001800FFF7B9FF46E1AA4B1800FFF7B4FF08
:1025300041E1A94B1800FFF7AFFF3CE1A24B052298
:102540001A70A64B1800FFF7A7FF34E19E4B062236
:102550001A70A34B1800FFF79FFF2CE19A4B09223A
:102560001A70A04B1800FFF797FF24E1964B082242
:102570001A709D4B1800FFF78FFF1CE1924B0A2247
:102580001A709A4B1800FFF787FF14E18E4B09224F
:102590001A70974B1800FFF77FFF0CE18A4B0A2255
:1025A0001A70944B1800FFF777FF04E1864B0D2259
:1025B0001A70914A914908243B1918000AF024FF27
:1025C0003B191800FFF768FFF5E07F4B0E221A70E9
:1025D0008B4B1800FFF760FFEDE08A4B1800FFF708
:1025E0005BFFE8E0784B10221A70874908243B19FA
:1025F000002218000AF008FF3B191800FFF74CFFF3
:10260000D9E0714B11221A70804B81490824381986
:10261000804A009200220AF0F7FE3B191800FFF7EB
:102620003BFFC8E0684B13221A707B4A7B490824A1
:1026300038197B4B01937A4B0093130000220AF068
:10264000E3FE3B191800FFF727FFB4E05E4B1522AD
:102650001A70744B74490824381901220092002220
:102660000AF0D2FE3B191800FFF716FFA3E0564B05
:1026700016221A706D4B1800FDF746FD03006C49D9
:102680000824381903936B4B029300230193012311
:102690000093012300220AF0B7FE3B191800FFF750
:1026A000FBFE642007F02FF8604B1800FFF7F4FEE4
:1026B00081E0454B18221A705F4B1800FFF7ECFEC3
:1026C00079E0414B19221A705C4B1800FFF7E4FEC9
:1026D00071E03D4B1B221A705949082438197823A0
:1026E0003C220AF091FE3B191800FFF7D5FE62E08C
:1026F000354B1C221A70534A534908243B191800C1
:102700000AF082FE3B191800FFF7C6FE53E02E4B7D
:102710001D221A704D4A4E4908243B1918000AF030
:1027200073FE3B191800FFF7B7FE44E0264B1E224C
:102730001A70484B1800FFF7AFFE3CE0224B1F22F7
:102740001A70454B1800FFF7A7FE34E01E4B2022FD
:102750001A70424B1800FFF79FFE2CE01A4B212203
:102760001A703F4B1800FFF797FE24E0164B222209
:102770001A703C4B1800FFF78FFE1CE03A4B180014
:10278000FFF78AFE17E0394B1800FFF785FE12E0CD
:10279000374B1800FFF780FE0DE00B4B27221A7015
:1027A000344B1800FFF778FE05E0334B1800FFF7B5
:1027B00073FE00E0C046C046BD4635B090BDC04681
:1027C000E8070108B4000108A6020020B8000108CB
:1027D000BC000108C4000108CC000108D4000108B5
:1027E000DC000108E8000108F4000108000101080C
:1027F0000C01010818010108240101083401010835
:102800004C010108580101085C0101087801010828
:102810008C0101085B070000A4010108B001010858
:10282000D0010108E0010108FC010108A802002014
:1028300014020108340201084C0201085802010880
:1028400064020108840201088C020108F0AB000058
:10285000A4020108BC020108D8020108040301080F
:102860001803010824030108300301084C03010880
:1028700058030108640301087403010880B500AF20
:102880000120FFF729FE96235B00180006F03BFFAE
:102890000420FFF721FE96235B00180006F033FFAB
:1028A0000520FFF719FE96235B00180006F02BFFAA
:1028B000C046BD4680BD80B500AF0620FFF70CFEC8
:1028C00096235B00180006F01EFF0920FFF704FEA8
:1028D00096235B00180006F016FF0D20FFF7FCFDA5
:1028E00096235B00180006F00EFF0A20FFF7F4FDA8
:1028F00096235B00180006F006FF0E20FFF7ECFDA4
:1029000096235B00180006F0FEFEC046BD4680BD63
:1029100080B500AF1020FFF7DFFD96235B001800A5
:1029200006F0F1FE1120FFF7D7FDFA23DB001800B7
:1029300006F0E9FE1320FFF7CFFDFA23DB001800B5
:1029400006F0E1FE1520FFF7C7FDFA23DB001800B3
:1029500006F0D9FEC046BD4680BD80B500AF00F090
:1029600039F81620FFF7B8FD96235B00180006F033
:10297000CAFEC046BD4680BD80B5B4B002AF094AAC
:1029800009493800094B0193094B009313000022B9
:102990000AF03AFD3B001800FFF77EFDC046BD4639
:1029A00032B080BD90020020B00101087C020020FE
:1029B0006802002080B500AF054B1800FFF76CFDE2
:1029C000FA239B00180006F09EFEC046BD4680BD5F
:1029D0008003010890B589B000AF02F01BFB030033
:1029E000FB61FB69002B04D12B4B180000F0A0FE0B
:1029F0004EE02A4B1B681800FFF7BAFC02000B00E0
:102A00002749F86902F04CFA264B186959690022E7
:102A10000023FDF71BFD031E1AD1224B1A695B69C7
:102A200021490C2438190AF0EFFC1E4B9A69DB6926
:102A30001D4938000AF0E8FC3A191C49FB691800E6
:102A400002F054FA3A001A49FB69180002F04EFAF3
:102A5000FB69180001F0EAFE0300BB61BB69002BB3
:102A60000ED0144AB969144B18000AF060FD124BDD
:102A7000104A00219954BB69180008F0B9FF03E01F
:102A80000E4B180000F054FEFB69180001F0F8F935
:102A9000BD4609B090BDC04690030108E40900207E
:102AA000B003010808020020BC030108C4030108A8
:102AB000C8030108FF010000A8020020D00301089C
:102AC000F0B58DB000AFF8600A000B26BB191A7084
:102AD000FB68180008F076FF02000B00BA62FB6288
:102AE0000022254BB86AF96AFEF7B0F902000B0024
:102AF00010001900FFF706FC03007B627B6A64226A
:102B000053431800FFF734FC02000B00B86AF96A5F
:102B1000FFF758F802000B00BA61FB61786AFFF713
:102B200027FC386079600022144BB869F969FEF718
:102B30008DF902000B0038687968FDF727FE020066
:102B40000B003A617B61BB191B78532B03D0BB1977
:102B50001B78572B07D13B691C007B69802212062A
:102B60005A40150001E03C697D6922002B001000ED
:102B70001900BD460DB0F0BD0000594000004E40A8
:102B800090B5AFB000AF78603960994A7B681100AA
:102B900018000AF044FD0300A822B9180B60BB1806
:102BA0001B68002B02D101235B421CE1A822BB1849
:102BB0001B680A33B9180B60BB18196828243B1925
:102BC0007F2218000AF0B3FC20003B187F2200216E
:102BD0009954884A3B18110018000AF0BDFC030004
:102BE000B422BA1813600023B022BA181360AF23BE
:102BF000FB184E221A70AE23FB1845221A70C7E04C
:102C0000B022BB181B680A2B00D9B2E0BB181B68A6
:102C10009A00794BD3181B689F463B68B422BA18B8
:102C200011680A2218000AF082FC3B6800229A729E
:102C30009FE0B423FB18196818243B190F221800D1
:102C40000AF075FC3B190022DA733B191800FDF7F6
:102C50005BFA03005A1EAF23FB1839198A5C1A70FD
:102C60003B191800FDF750FA0300013B3A19002107
:102C7000D1547EE0B423FB18196808243B190F22B5
:102C800018000AF054FC3B190022DA733B191800B3
:102C9000FDF73AFA03005A1EAE23FB1839198A5C75
:102CA0001A703B191800FDF72FFA0300013B3A197F
:102CB0000021D1545DE0B423FB181B68180008F014
:102CC00081FE02000B0039680A624B6251E0B423B6
:102CD000FB181B68180008F075FE02000B0039682D
:102CE0008A62CB6245E0B423FB181B68180008F029
:102CF0006EFE02003B681A633BE0B423FB181B68BE
:102D0000180008F05FFE02000B0039688A63CB638D
:102D10002FE0B423FB181B68180008F053FE0200D4
:102D20000B0039680A644B6423E0B423FB181B686A
:102D3000180008F047FE02000B0039688A64CB6473
:102D400017E03B685033B422BA1811680622180005
:102D50000AF0EDFB3B6856220021995409E0B423A8
:102D6000FB181B68180008F032FE02003B689A65E9
:102D7000C046204B190000200AF0EEFB0300B422ED
:102D8000BA181360B022BB181B680133BA1813605D
:102D9000B423FB181B68002B00D031E7B023FB18CD
:102DA0001B680A2B02DC02235B421CE0AF23FB18EA
:102DB0001A781823FB1811001800FFF781FE020093
:102DC0000B0039680A614B61AE23FB181A7808239F
:102DD000FB1811001800FFF773FE02000B003968A2
:102DE0008A61CB6100231800BD462FB090BDC0465C
:102DF000EC030108F80301088C08010890B587B0BE
:102E000000AF3B1D084A13CA13C303CA03C33B1DCB
:102E10000021180006F04FFC0200044B1A60C04667
:102E2000BD4607B090BDC0460C040108140900203F
:102E300080B582B000AF786039493A4BC82218009B
:102E400006F056FB00F080F8374B1B78002B52D071
:102E5000364B1B68042B38D049DC032B25D046DCCD
:102E6000012B02D0022B10D041E0314A314B11002E
:102E700018000AF07CFC2E4B3222002118000AF0C8
:102E80002FFB2D4B01221A7032E0294A2B4B1100E7
:102E900018000AF06CFC264B3222002118000AF0C0
:102EA0001FFB254B01225A7022E0214A244B1100BE
:102EB00018000AF05CFC1E4B3222002118000AF0B8
:102EC0000FFB1D4B01229A7012E0194B180008F0FD
:102ED0007EFD03009AB2174B9A87154B32220021D0
:102EE00018000AF0FDFA144B0122DA7000E0C04627
:102EF0000D4B00221A70134B1B78002B0BD0642053
:102F000006F001FC064BC822002118000AF0E8FA7E
:102F10000C4B00221A700A2006F0F5FB94E7C0461D
:102F20001C090020E4070020420700209807002029
:102F30001007002068020020D00400207C0200203E
:102F4000900200204307002080B500AF1820FFF753
:102F5000C3FAFA23DB00180006F0D5FB1B20FFF7AD
:102F6000BBFAFA239B00180006F0CDFB1C20FFF7EC
:102F7000B3FAFA239B00180006F0C5FB1D20FFF7EB
:102F8000ABFAFA23DB00180006F0BDFB00F014F8E2
:102F90002020FFF7A1FAFA23DB00180006F0B3FBAC
:102FA0002120FFF799FAFA23DB00180006F0ABFBAB
:102FB000C046BD4680BD0000F0B5C64600B5B8B0FD
:102FC00006AFEF4B00221A80ED4B00229A70EC4BBB
:102FD00012229A80EA4B01229A71E94BE94A1A813E
:102FE000E74B2A229A81E84AE84B100019000B238C
:102FF0001A000AF0CFFBE24B01225A81E04B1B88FA
:103000001D00DF4B9B781E00DD4B9B881A00DC4BBC
:103010009B791C00DA4B1B89DD493800029301942F
:10302000009233002A000AF0EFF93B001800FFF786
:1030300033FAFA239B00180006F065FBD04B1B887F
:103040009C46CF4B9B789846CD4B5B891A00CC4B66
:103050009B791C00CA4B1B891D00C94B9B891E0014
:10306000CC493800C84B0493039602950194009212
:10307000434662460AF0C8F93B001800FFF70CFA15
:10308000FA239B00180006F03EFBBD4B7222002184
:103090009952BB4B742201219954B94B76220421D9
:1030A0009952B74B782201219954B54B7A22BA49EB
:1030B0009952B34B7E2214219952B84BB34A03CA9A
:1030C00003C31188198092789A70AD4B7C2202213B
:1030D0009952AB4B72229B5A1E00A94B74229B5CE7
:1030E0009C46A74B76229B5A1C00A54B78229B5CE2
:1030F0001D00A34B7A229B5AA549380002930195E3
:103100000094634632000AF07FF93B001800FFF795
:10311000C3F9FA239B00180006F0F5FA984B7222C7
:103120009B5A9C46964B74229B5C9846944B7C22FF
:103130009B5A1C00924B78229B5C1D00904B7A227C
:103140009B5A1E008E4B7E229B5A1A0091493800D2
:10315000924B049303920296019500944346624673
:103160000AF052F93B001800FFF796F9FA239B008A
:10317000180006F0C8FA824BE42200219952804BD5
:10318000E622022199547E4BE822042199527C4B7D
:10319000EA22012199547A4BEC2281499952784BC9
:1031A000F022142199527F4A784B100019000B230A
:1031B0001A000AF0EFFA724BEE2202219952704B7C
:1031C000E4229B5A1E006E4BE6229B5C9C466C4B95
:1031D000E8229B5A1C006A4BEA229B5C1D00684B4C
:1031E000EC229B5A6A493800029301950094634689
:1031F00032000AF009F93B001800FFF74DF9FA23F5
:103200009B00180006F07FFA5D4BE4229B5A9C4617
:103210005B4BE6229B5C9846594BEE229B5A1C0066
:10322000574BEA229B5C1D00554BEC229B5A1E001B
:10323000534BF0229B5A1A0056493800594B0493BD
:103240000392029601950094434662460AF0DCF828
:103250003B001800FFF720F9FA239B00180006F046
:1032600052FA474AAB235B000021D152444AAC23B7
:103270005B000321D154424AAD235B000421D152AB
:103280003F4AAE235B000121D1543D4AAF235B008E
:103290004549D1523A4AB1235B001421D152434BE4
:1032A0003A4A03CA03C31188198092789A70344A43
:1032B000B0235B000221D152314AAB235B00D35AC9
:1032C0001E002F4AAC235B00D35C9C462C4AAD23E6
:1032D0005B00D35A1C002A4AAE235B00D35C1D005E
:1032E000274AAF235B00D35A29493800029301953E
:1032F0000094634632000AF087F83B001800FFF79D
:10330000CBF8FA239B00180006F0FDF91C4AAB230A
:103310005B00D35A9C461A4AAC235B00D35C9846A8
:10332000174AB0235B00D35A1C00154AAE235B003A
:10333000D35C1D00124AAF235B00D35A1E00104A13
:10334000B1235B00D35A1A0012493800174B04937B
:103350000392029601950094434662460AF054F89F
:103360003B001800FFF798F8FA239B00180006F0BE
:10337000CAF9034AE4235B000021D15218E0C04699
:10338000D4040020F4FEFFFFE204002048040108FA
:10339000540401087004010811B1FFFF5405002016
:1033A00012B1FFFFC605002013B1FFFF3806002051
:1033B000444AE5235B000421D154424AE6235B00E2
:1033C0000421D1523F4AE7235B000121D1543D4AF9
:1033D000E8235B003C49D1523A4AEA235B000A21C8
:1033E000D1523A4A3A4B100019000B231A000AF046
:1033F000D1F9344AE9235B000221D152314AE42356
:103400005B00D35A1E002F4AE5235B00D35C9C4629
:103410002C4AE6235B00D35A1C002A4AE7235B00B0
:10342000D35C1D00274AE8235B00D35A29493800A2
:103430000293019500946346320009F0E5FF3B00DA
:103440001800FFF729F8FA239B00180006F05BF933
:103450001C4AE4235B00D35A9C461A4AE5235B00CE
:10346000D35C9846174AE9235B00D35A1C00154ADF
:10347000E7235B00D35C1D00124AE8235B00D35AAC
:103480001E00104AEA235B00D35A1A001249380082
:103490000E4B0493039202960195009443466246B4
:1034A00009F0B2FF3B001800FEF7F6FFFA239B007D
:1034B000180006F028F9C046BD4632B080BCB846B8
:1034C000F0BDC046D404002014B1FFFFAA060020BE
:1034D00048040108540401087004010880B586B04E
:1034E00000AF786039605A4B01221A70594B3B612A
:1034F0003A697B68110018000AF091F803007B61BB
:103500007B69002B01D100239DE03B691800FCF78B
:10351000FBFD02007B699B187B6102E07B69013344
:103520007B617B691B78202BF8D07B691B780D2B86
:10353000F4D07B691B780A2BF0D0474A7B691100D5
:1035400018000AF009F80300FB60FB68002B01D1AA
:10355000002378E0FB68180008F039FA02003B68A5
:103560001A603D4B1900002009F0F6FF0300FB60D4
:10357000FB68002B03D0FB681B78222B01D00023B3
:1035800061E0FB680133FB60FB682221180009F051
:10359000AFFF0300BB60BB68002B01D1002352E0EA
:1035A000BB6800221A703B680433F9680D221800CA
:1035B00009F0BDFF284B1900002009F0CDFF0300E2
:1035C000FB60FB68002B01D100233CE0FB68180086
:1035D00008F0FDF902003B685A61204B19000020F9
:1035E00009F0BAFF0300FB60FB68002B03D0FB6807
:1035F0001B78222B01D0002325E0FB680133FB6000
:10360000FB682221180009F073FF0300BB60BB6850
:10361000002B01D1002316E0BB6800221A703B6822
:103620001833F9683222180009F081FF0C4A0D4B5B
:103630001100180000F01AF80B4BC82200211800E6
:1036400009F04EFF01231800BD4606B080BDC046FC
:103650004207002094040108A4040108A8040108FA
:1036600010070020B00700201C09002080B586B09C
:1036700000AF786039607B681800FCF745FD0300F7
:103680003B613B690122134001D0002349E0002344
:103690007B613BE07A687B69D3181B785A1C234B0B
:1036A000D3181B781A00442313400CD07B690133D4
:1036B0007A68D3181B785A1C1C4BD3181B781A0035
:1036C0004423134001D100232BE07A687B69D3188F
:1036D0001A780C217B181A707B6901337A68D31829
:1036E0001A787B185A707B1800229A707B18102267
:1036F0000021180009F02AF901007B695B083A688B
:10370000D318CAB21A707B6902337B617A693B694C
:103710009A42BFD33B695B083A68D31800221A70FB
:1037200001231800BD4606B080BDC046500B0108FD
:1037300080B582B000AF78607B681800FCF7E4FCCD
:1037400003009AB2FA239B007968034803F0A4FEB1
:10375000C046BD4602B080BD7808002090B587B055
:1037600000AF3B1D084A13CA13C303CA03C33B1D62
:103770000021180005F09FFF0200044B1A60C046AC
:10378000BD4607B090BDC046B8040108100900202E
:1037900090B58BB000AF786001235B421900012027
:1037A00007F0E8F903007B627B6A002B00D13EE260
:1037B000B94B1800FFF7BCFFB84B1B78272B00D97B
:1037C000D8E19A00B64BD3181B689F46642005F0D9
:1037D0009AFFB44AB04B11001800FEF749FE031ED1
:1037E00000D11BE2B04B01221A70AC4B00221A70C0
:1037F00014E2642005F087FFA74B3B62AB4920230E
:10380000FB181422180000F035FAA44B00221A709D
:103810000DE2642005F077FF9F4BFB61A4491C2358
:10382000FB181922180000F025FA9C4B00221A7090
:10383000FDE1642005F067FF974BBB619D491823AC
:10384000FB181922180000F015FA944B00221A7088
:10385000914BC8220021180009F042FEE7E1964A88
:103860008D4B11001800FEF703FE031E0BD08B4B8F
:1038700000221A708D4B4622012199548F4B18005B
:10388000FFF756FFD3E1894B4622FF2199548C4B19
:103890001800FFF74DFFCAE1824A7F4B1100180064
:1038A000FEF7E6FD031E0BD07C4B00221A707F4B07
:1038B000472201219954834B1800FFF739FFB6E1E5
:1038C0007A4B4722FF2199547F4B1800FFF730FFB6
:1038D000ADE1744A704B11001800FEF7C9FD031EDC
:1038E0000BD06E4B00221A70704B49220121995463
:1038F000764B1800FFF71CFF99E16C4B4922FF2122
:103900009954734B1800FFF713FF90E1654A624B1F
:1039100011001800FEF7ACFD031E0BD05F4B002218
:103920001A70624B4822012199546A4B1800FFF724
:10393000FFFE7CE15D4B4822FF219954664B180045
:10394000FFF7F6FE73E1574A534B11001800FEF7DC
:103950008FFD031E0BD0514B00221A70534B4A228D
:10396000012199545D4B1800FFF7E2FE07E04F4B31
:103970004A22FF2199545A4B1800FFF7D9FE494AB1
:10398000454B11001800FEF773FD031E00D147E1FF
:10399000424B00221A70534B1800FFF7C9FE3FE15B
:1039A000514A3D4B11001800FEF762FD031E18D06E
:1039B0003A4B00221A70384B7B6114243B191800D3
:1039C00000F0C6F90300D9B2384B4C2299543B1988
:1039D000180000F0BDF90300D9B2344B4B229954C2
:1039E00020E1424A2C4B11001800FEF741FD031E56
:1039F00000D117E13E4B1800FFF79AFE2B4B4C22EB
:103A0000FF219954294B4B22FF2199540AE1394A4D
:103A1000214B11001800FEF72BFD031E21D01F4B78
:103A200000221A701C4B3B6110243B19180000F057
:103A30008FF90300D9B21D4B4C2299543B19180041
:103A400000F086F90300D9B2184B4D2299543B1966
:103A5000180000F07DF90300D9B2144B4E2299549E
:103A6000E2E0224A0C4B11001800FEF701FD031E94
:103A700000D1D9E0204B1800FFF75AFE0B4B4C2227
:103A8000FF219954094B4D22FF219954074B4E2297
:103A9000FF219954C8E0C0461C090020A60200205E
:103AA000B8080108CC04010895070020440700204D
:103AB0005807002071070020D0040108D80401082D
:103AC000EC040108040501081C0501083C05010877
:103AD0005C050108780501088805010898050108BA
:103AE000A8050108C4050108E0050108EC05010866
:103AF000F4050108200601082C0601084E4A4F4B28
:103B000011001800FEF7B4FC031E07D04C4B4F22E7
:103B1000FF2199544B4B1800FFF70AFE4A4A474BC6
:103B200011001800FEF7A4FC031E05D0474A434BC2
:103B300011001800FFF724F8454A404B1100180007
:103B4000FEF796FC031E06D0424B00221A70424B31
:103B50002422012199543E4A384B11001800FEF7E7
:103B600087FC031E06D03B4B00221A703A4B2422DE
:103B700000219954394A314B11001800FEF778FCA6
:103B8000031E14D02D4BFB600C243B19180000F0D1
:103B9000DFF80300D9B22A4B4C2299543B19180084
:103BA00000F0D6F80300D9B2254B502299542C4A84
:103BB000224B11001800FEF75BFC031E0BD0264BB6
:103BC0000122DA61274B01221A701C4BC822002106
:103BD000180009F085FC244A184B11001800FEF764
:103BE00047FC031E0BD01F4B01221A701A4B0022F8
:103BF000DA61124BC8220021180009F071FC1B4A3F
:103C00000E4B11001800FEF733FC031E0ED0184AAD
:103C10000A4B11001800FFF761FC07E0C04606E000
:103C2000C04604E0C04602E0C04600E0C0460A20AC
:103C300005F069FDB0E5C046EC0501081C0900204F
:103C400044070020540601087806010808020020F5
:103C5000CC040108A6020020A80400208406010864
:103C600090060108430700209C060108AC060108E5
:103C70009807002080B588B000AFF860B9607A601E
:103C8000FB681B68FB610023BB6100237B6154E080
:103C90002E49FB690922180009F038FC031E3DD1AA
:103CA000FB690933BB6102E0BB690133BB61BB69DE
:103CB0001B78202BF8D0BB68002B27D07B68002B0B
:103CC00024D07B68013B7B600DE07A697B689A4277
:103CD00016D2BB695A1CBA617A69511C7961B968FC
:103CE0008A181B781370BB691B78002B09D0BB693D
:103CF0001B780D2B05D0BB691B780A2BE5D100E0A2
:103D0000C046BA687B69D31800221A70FB68FA694A
:103D10001A60012316E0FB690133FB61FB691B7824
:103D2000002B03D0FB691B780A2BF4D1FB691B78AD
:103D30000A2B02D1FB690133FB61FB691B78002B65
:103D4000A6D100231800BD4608B080BDBC060108FE
:103D500080B586B000AF786000237B611323FB1829
:103D600000221A707B681B68FB6002E0FB6801336D
:103D7000FB60FB681B78002B0BD0FB681B782F2B9C
:103D800003D9FB681B78392B03D9FB681B782D2BD3
:103D9000ECD1FB681B782D2B15D11323FB180122C6
:103DA0001A70FB680133FB600DE07A6913009B0019
:103DB0009B185B001A00FB681B78303BD3187B61B3
:103DC000FB680133FB60FB681B782F2B03D9FB6872
:103DD0001B78392BE9D97B68FA681A601323FB1822
:103DE0001B78002B02D07B695B4200E07B691800E6
:103DF000BD4606B080BD80B584B000AF7860396044
:103E00000023FB600023BB607B68002B01D10023F3
:103E100019E07B681800FCF777F903000133FB60B9
:103E20003B681B68FA68100098470300BB60BB68DA
:103E3000002B01D1002306E0FA687968BB681800FE
:103E400009F0A8FCBB681800BD4604B080BD80B571
:103E500084B000AF78607B681B6828209847030017
:103E6000FB60FB68002B05D0FB68282200211800AE
:103E700009F036FBFB681800BD4604B080BD0000A9
:103E800080B584B000AF78600023FB6038E07B68C9
:103E90001B68FB607B68DA6880235B00134008D1F5
:103EA0007B689B68002B04D07B689B681800FFF739
:103EB000E7FF7B68DA6880235B00134009D17B68E9
:103EC0001B69002B05D0124B5A687B681B691800D0
:103ED00090477B68DA6880239B00134009D17B6898
:103EE0001B6A002B05D00A4B5A687B681B6A1800B6
:103EF0009047074B5B687A6810009847FB687B60C7
:103F00007B68002BC3D1C046C046BD4604B080BD0F
:103F10000000002080B500AF2E231800BD4680BDF4
:103F200080B584B000AF786039600023FB60002367
:103F3000BB607B68002B03D07B681B68002B01D122
:103F4000002386E07B685B68002B07D07B689A685B
:103F50007B685B689A4201D300237AE03B68002BC0
:103F600001DA002375E07B689A683B68D318013357
:103F70003B607B685B683A689A4205D87B681A6840
:103F80007B689B68D31864E07B681B69002B01D0B9
:103F900000235EE03A688023DB059A4207D33B6842
:103FA000002B02DB2D4BBB6004E0002351E03B689B
:103FB0005B00BB607B681B6A002B19D07B681A6AA8
:103FC0007B681B68B968180090470300FB60FB68BA
:103FD000002B34D17B68DA697B681B681800904736
:103FE0007B6800225A607B6800221A60002330E060
:103FF0007B689B69BA68100098470300FB60FB6808
:10400000002B0DD17B68DA697B681B68180090472C
:104010007B6800225A607B6800221A60002318E047
:104020007B6819687B689B685A1CFB68180009F05C
:10403000B1FB7B68DA697B681B68180090477B6876
:10404000BA685A607B68FA681A607B689B68FA688D
:10405000D3181800BD4604B080BDC046FFFFFF7FE7
:1040600090B585B000AF78600023FB607B68002BC3
:1040700014D07B681B68002B10D07B681A687B68A3
:104080009B68D318FB607B689C68FB681800FCF792
:104090003BF80300E2187B689A6000E0C046BD462A
:1040A00005B090BD80B586B000AF78603960002360
:1040B0007B613B68013B3B6118E07B697A68D31800
:1040C0001B78FB603B697A68D2187B697968CB18EA
:1040D00012781A703B697A68D318FA68D2B21A70EB
:1040E0007B6901337B613B69013B3B617A693B69D9
:1040F0009A42E2DBC046C046BD4606B080BD80B5F0
:1041000086B000AFB860F9607A603B6000237B61E5
:1041100019E0B868F9680A220023FCF7C5F9D2B2A1
:104120007B69591C796119007B685B183032D2B207
:104130001A70B868F9680A220023FCF7B5F9020082
:104140000B00BA60FB60BB68FA681343E1D107E07B
:104150007B695A1C7A611A007B689B1830221A709E
:104160007A693B689A42F3DB7A697B681100180030
:10417000FFF798FF7B697A68D31800221A707B6971
:104180001800BD4606B080BD80B582B000AF786033
:1041900039600BE03B687A68D2183B680133796874
:1041A000CB1812781A703B68013B3B603B68002BD0
:1041B000F0D13B687A68D2183B6801337968CB1834
:1041C00012781A70C046BD4602B080BDF0B597B0F7
:1041D00000AF786139610023FB647B699A69DB6910
:1041E0003A647B64386C796CFCF7BAF902000B0016
:1041F000BA63FB6300237B6500233B650C23102619
:104200009B19DB1900221A600433162200211800C2
:1042100009F066F927239B19DE19FFF77BFE0300DF
:1042200033703B69002B01D1002344E13A6C7B6C75
:10423000386C796CFEF748F8031E20D13B6C1C00EB
:104240007B6C5B005D0801231E1C012252429C4BCB
:1042500020002900FEF738F8031E0AD1012252423D
:10426000974B20002900FCF701F9031E01D1002320
:104270001E1CF3B201225340DBB2002B0BD0914A3B
:104280000C2310215B18DB191100180009F0BCF891
:1042900003007B65C5E000220023386C796CFCF7D5
:1042A000D5F8031E06D00C2310229B18DB193022F0
:1042B0001A70ADE0B86BF96BFCF786F93A6C7B6C61
:1042C000FDF780FC02000B00100019000022002303
:1042D000FCF7BCF8031E09D00C2310229B18DA1936
:1042E000B86BF96B0023FFF70AFF91E0002200236F
:1042F000386C796CFCF7B0F8031E6AD03B6CBB607D
:104300007B6C802212065A40FA60BB68FC683B64F2
:104310007C64386C796CFCF723F902000B00BA63FB
:10432000FB63B86BF96BFCF74FF93A6C7B6CFDF7EC
:1043300049FC02000B001000190000220023FCF7CA
:1043400085F8031E1AD00C2410256319DA19B86BEE
:10435000F96B0023FFF7D3FE6319DB191800FBF795
:10436000D3FE03001A006319DB1911001800FFF7D0
:104370000BFF6319DB192D221A7049E03B6C3B607F
:104380007B6C802212065A407A603B687C683B64F2
:104390007C6400224C4B386C796CFCF771F8031E7E
:1043A0000BD03A6C7B6C49490C2010240019C019C1
:1043B00009F02AF803007B652AE03A6C7B6C4449DB
:1043C0000C2010240019C01909F01EF803007B65A9
:1043D0001EE000223C4B386C796CFCF73DF8031E64
:1043E0000BD03A6C7B6C39490C2010240019C01991
:1043F00009F00AF803007B650AE03A6C7B6C3449EB
:104400000C2010240019C01908F0FEFF03007B6582
:104410000C2310229B18DB191800FBF775FE030014
:104420007B657B6D002B02DB7B6D192B01DD00238F
:1044300041E07B6D5A1C3B6911001800FFF770FDCD
:104440000300FB64FB6C002B01D1002333E000234D
:104450003B6520E00C2310215B18DA193B6DD31863
:104460001B7827225218D21912789A4205D1FA6C79
:104470003B6DD3182E221A700AE0FA6C3B6DD318EC
:104480000C2210215218D1193A6D8A1812781A701C
:104490003B6D01333B657B6D3A6D9A42DAD3FA6C22
:1044A0003B6DD31800221A703B699A687B6DD21855
:1044B0003B699A6001231800BD4617B0F0BDC046A5
:1044C000FFFFEF7FD40601080000E043DC0601088F
:1044D000E406010880B588B000AF78603960002339
:1044E000FB6100233B610023BB610023FB600023D1
:1044F0007B613B68002B01D10023E0E07B68002B4F
:1045000015D13B6803211800FFF70AFD03003B614A
:104510003B69002B01D10023D1E03A696A4B1000BE
:10452000190003231A0009F035F90123C7E07B685D
:10453000FB6122E0FB691B78222B0DDC082B11DBD1
:10454000083B624ADA401300012213405A1E93418D
:10455000DBB2002B02D105E05C2B03D17B69013378
:104560007B6107E0FB691B781F2B02D87B69053351
:104570007B61C046FB690133FB61FB691B78002B43
:10458000D8D1FA697B68D31A1A007B699B18FB6043
:10459000FB68DA1C3B6811001800FFF7C1FC030040
:1045A0003B613B69002B01D1002388E07B69002B34
:1045B00017D13B6922221A703B690133FA68796886
:1045C000180009F0E7F8FB6801333A69D318222292
:1045D0001A70FB6802333A69D31800221A7001235B
:1045E0006DE03B6922221A703B690133BB617B6835
:1045F000FB6153E0FB691B781F2B0CD9FB691B780F
:10460000222B08D0FB691B785C2B04D0FB691A783D
:10461000BB691A703CE0BB695A1CBA615C221A7013
:10462000FB691B78222B09DC082B25DB083B1A2BA6
:1046300022D89A00264BD3181B689F465C2B1BD1AF
:10464000BB695C221A7023E0BB6922221A701FE04A
:10465000BB6962221A701BE0BB6966221A7017E000
:10466000BB696E221A7013E0BB6972221A700FE0E8
:10467000BB6974221A700BE0FB691B781A0015499C
:10468000BB69180008F0C0FEBB690433BB61C046BB
:10469000FB690133FB61BB690133BB61FB691B78BB
:1046A000002BA7D1FB6801333A69D31822221A7074
:1046B000FB6802333A69D31800221A7001231800EC
:1046C000BD4608B080BDC046E806010837000004BA
:1046D00058090108EC06010880B582B000AF786087
:1046E00039607B681B693A6811001800FFF7F2FE19
:1046F00003001800BD4602B080BD0000B0B58EB00A
:1047000000AFF860B9607A6000237B6310243B1926
:1047100024220021180008F0E3FE7B681A68424B4F
:104720001B681800904702003B191A603E4B1A683C
:104730003B195A6025003B19BA685A617B197A689F
:10474000183313CA13C32C003B191B68002B4CD021
:104750003A19FB681100180000F07AF8031E46D0E1
:104760003B191800FFF77CFC7B689B68002B11D07D
:104770007B689A683B1918683B199B6801331900DC
:10478000904703007B637B6B002B32D03B190022E8
:104790001A6028E07B681A6810243B199B68013373
:1047A0001800904703007B637B6B002B23D03B19E1
:1047B00019683B199B68581C3B195A6803009342BF
:1047C00000D91300786B1A0008F0E4FF10217B1861
:1047D0009B687A6BD31800221A707B685A687B1822
:1047E0001B68180090477B6B1AE0C04604E0C04687
:1047F00002E0C04600E0C04610217B181B68002B79
:1048000005D07B685A687B181B68180090477B6B43
:10481000002B04D07B685B687A6B100098470023FC
:104820001800BD460EB0B0BD480A010880B582B080
:1048300000AF7860054A7B6801211800FFF75EFF32
:1048400003001800BD4602B080BDC0460000002035
:1048500080B584B000AF786039600023FB607B686E
:10486000002B02D03B68002B01D10023A1E07B6824
:10487000DB68FF221340802B5CD000DD98E0202B0A
:104880000ADC002B00DC93E0202B00D990E09A009A
:104890004A4BD3181B689F46402B00D180E087E02D
:1048A0003B6805211800FFF73BFB0300FB60FB683A
:1048B000002B01D100237CE0FA68414B1000190065
:1048C00005231A0008F066FF012372E03B68062109
:1048D0001800FFF725FB0300FB60FB68002B01D1EC
:1048E000002366E0FA68374B1000190006231A000F
:1048F00008F050FF01235CE03B6805211800FFF73A
:104900000FFB0300FB60FB68002B01D1002350E08C
:10491000FA682D4B1000190005231A0008F03AFF21
:10492000012346E03A687B6811001800FFF74EFC4F
:1049300003003EE00023BB607B681B69002B01D1B4
:10494000002336E07B681B691800FBF7DDFB0300E2
:104950000133BB60BA683B6811001800FFF7E0FA4A
:104960000300FB60FB68002B01D1002321E07B6882
:104970001969BA68FB68180008F00CFF012318E0F9
:104980003A687B6811001800FFF7A6FE030010E0EC
:104990003A687B681100180000F018F8030008E07E
:1049A0003A687B681100180000F09EF8030000E0F0
:1049B00000231800BD4604B080BDC046C4090108EC
:1049C000D4060108F80601080007010880B586B082
:1049D00000AF7860396000237B610023FB607B6857
:1049E0009B683B613B68002B01D1002378E03B686A
:1049F00001211800FFF794FA03007B617B69002B0B
:104A000001D100236CE07B695B221A703B689B68D4
:104A10005A1C3B689A603B68DB685A1C3B68DA604A
:104A200041E03A683B6911001800FFF711FF031ECF
:104A300001D1002354E03B681800FFF711FB3B69EC
:104A40001B68002B2CD03B685B69002B01D0022334
:104A500000E00123FB60FB685A1C3B681100180052
:104A6000FFF75EFA03007B617B69002B01D1002315
:104A700036E07B695A1C7A612C221A703B685B69AC
:104A8000002B04D07B695A1C7A6120221A707B6942
:104A900000221A703B689A68FB68D2183B689A60DB
:104AA0003B691B683B613B69002BBAD13B68022123
:104AB0001800FFF735FA03007B617B69002B01D1F9
:104AC00000230DE07B695A1C7A615D221A707B69B4
:104AD00000221A703B68DB685A1E3B68DA600123CB
:104AE0001800BD4606B080BD80B588B000AF7860C4
:104AF00039600023FB610023FB607B689B68BB611E
:104B00003B68002B01D1002316E13B685B69002B59
:104B100001D0022300E00123FB60FB685A1C3B68C4
:104B200011001800FFF7FCF90300FB61FB69002B83
:104B300001D1002300E1FB695A1CFA617B221A7043
:104B40003B68DB685A1C3B68DA603B685B69002B9A
:104B500004D0FB695A1CFA610A221A703B689A68F1
:104B6000FB68D2183B689A60AAE03B685B69002B3F
:104B700024D03B68DA683B6811001800FFF7D0F9D1
:104B80000300FB61FB69002B01D10023D4E000236B
:104B90007B6107E0FB695A1CFA6109221A707B6984
:104BA00001337B613B68DB687A699A42F2D33B68E8
:104BB0009A683B68DB68D2183B689A60BB691B6ADD
:104BC0003A6811001800FFF785FC031E01D100238D
:104BD000B2E03B681800FFF743FA3B685B69002BC3
:104BE00001D0022300E00123FB60FA683B6811005A
:104BF0001800FFF795F90300FB61FB69002B01D159
:104C0000002399E0FB695A1CFA613A221A703B684A
:104C10005B69002B04D0FB695A1CFA6109221A70E7
:104C20003B689A68FB68D2183B689A603A68BB692F
:104C300011001800FFF70CFE031E01D100237BE0DA
:104C40003B681800FFF70CFA3B685B69002B01D04A
:104C5000012200E00022BB691B68002B01D0012368
:104C600000E00023D318FB60FB685A1C3B6811006E
:104C70001800FFF755F90300FB61FB69002B01D118
:104C8000002359E0BB691B68002B04D0FB695A1C48
:104C9000FA612C221A703B685B69002B04D0FB6917
:104CA0005A1CFA610A221A70FB6900221A703B68CA
:104CB0009A68FB68D2183B689A60BB691B68BB6145
:104CC000BB69002B00D050E73B685B69002B03D029
:104CD0003B68DB68013300E002233A6819001000EA
:104CE000FFF71EF90300FB61FB69002B01D10023D4
:104CF00022E03B685B69002B10D000233B6107E09A
:104D0000FB695A1CFA6109221A703B6901333B6145
:104D10003B68DB68013B3A699A42F1D3FB695A1C54
:104D2000FA617D221A70FB6900221A703B68DB6809
:104D30005A1E3B68DA6001231800BD4608B080BDEA
:104D400080B582B000AF786039607B683A681A60DD
:104D50003B687A685A60C046BD4602B080BD80B5E7
:104D600084B000AF786039600023FB603B68002BA3
:104D700006D07B68002B03D07A683B689A4201D149
:104D800000231FE07B689B68FB60FB68002B09D158
:104D90007B683A689A603B683A685A603B680022D0
:104DA0001A600EE0FB685B68002B0AD0FB685B684A
:104DB0003A6811001800FFF7C3FF7B689B683A68E8
:104DC0005A6001231800BD4604B080BD80B582B092
:104DD00000AF78607B681800BD4602B080BD00005F
:104DE00080B586B000AFF860B9607A603B600023A0
:104DF0007B6100233B61FB68002B09D0BB68002B63
:104E000006D07B68002B03D0FA687B689A4201D1F8
:104E100000233EE03B6A002B0CD0BB681800FFF774
:104E2000D5FF03007B617B68DB688022920013431F
:104E30003B6111E03A68BB6811001800FEF7DBFF28
:104E400003007B617B69002B01D1002321E07B689B
:104E5000DB68124A13403B617B68DA6880239B0061
:104E6000134009D17B681B6A002B05D03B685A6848
:104E70007B681B6A180090477B687A691A627B68B6
:104E80003A69DA607A68FB6811001800FFF767FF7B
:104E900003001800BD4606B080BDC046FFFDFFFF01
:104EA00090B589B002AFF860B9603A607B603A684B
:104EB0007B681000190000F03DF803007B610A4B8D
:104EC0007A69B968F86800240094FFF789FF031E27
:104ED00001D07B6904E07B691800FEF7D1FF002355
:104EE0001800BD4607B090BD0000002090B589B005
:104EF00002AFF860B9607A607B68180000F060F873
:104F000003007B610A4B7A69B968F8680024009451
:104F1000FFF766FF031E01D07B6904E07B69180080
:104F2000FEF7AEFF00231800BD4607B090BDC04697
:104F30000000002080B584B000AF386079601B4B62
:104F40001800FEF784FF0300FB60FB68002B27D0EE
:104F5000FB680822DA60F9683A687B688A61CB618D
:104F6000134A144B38687968FBF794FA031E03D090
:104F7000FB68114A5A6113E00022104B38687968C7
:104F8000FBF774FA031E04D0FB68802212065A61F4
:104F900006E038687968FDF7B5F90200FB685A61E8
:104FA000FB681800BD4604B080BDC046000000206C
:104FB0000000C0FFFFFFDF41FFFFFF7F0000E0C1F7
:104FC00080B584B000AF7860114B1800FEF73FFF4A
:104FD0000300FB60FB68002B15D0FB681022DA6031
:104FE0000B4A7B6811001800FEF705FF0200FB6802
:104FF0001A61FB681B69002B05D1FB681800FEF7DE
:105000003FFF002300E0FB681800BD4604B080BDF0
:105010000000002080B582B000AF084B1800FEF7FA
:1050200016FF03007B607B68002B02D07B68402268
:10503000DA607B681800BD4602B080BD0000002029
:1050400080B582B000AF7860034B01221A70C04671
:10505000BD4602B080BDC046E809002090B589B0C9
:1050600002AF00F0D9FC00F05BF800F057F900F057
:1050700007F900F0B7F803220021012004F054FCE6
:1050800003007B617B69002B04D11B4B180008F0E7
:10509000ABF903E0194B180008F0A6F918491948B4
:1050A000194B00930023012205F09CFE0200174BD0
:1050B0001A60164B1B68002B04D1154B180008F022
:1050C00093F903E0134B180008F08EF93B00124AE5
:1050D00013CA13C303CA03C33B000021180004F022
:1050E000EAFA02000D4B1A60FEF738FBFDF786FE68
:1050F00004F0D9FAFEE7C0460807010828070108AE
:10510000102700003C070108415000081809002042
:1051100044070108600701087C0701080C0900200A
:1051200090B593B000AF10243B19180038231A0033
:10513000002108F0D5F93B00180010231A000021C7
:1051400008F0CEF980239B00180000F0D3FF3B1934
:105150000A221A603B1980225200DA6021007B1873
:1051600000221A617B1840225A617B1801229A6141
:105170007B180222DA617B1802221A627B18002255
:105180005A627B1808229A627B1880229202DA62A5
:105190007B18802292041A637B18802292055A633E
:1051A0007B18180000F0F2FF031E01D000F078F920
:1051B0003B0007221A603B0002225A603B0000229B
:1051C0009A603B000022DA603B000221180001F0E7
:1051D000F7FA031E01D000F063F9C046BD4613B0D4
:1051E00090BD000080B500AF234B244A1A60224BCB
:1051F000E12252025A60204B00229A601E4B00228C
:10520000DA601D4B00221A611B4B0C225A611A4BAB
:1052100000229A61184B0022DA61174B00221A62B1
:10522000154B00225A62144B00229A62124B18004E
:1052300002F0DCF8031E01D000F032F90E4B002121
:10524000180004F0D3F8031E01D000F029F90A4B2E
:105250000021180004F00AF9031E01D000F020F923
:10526000054B180004F088F8031E01D000F018F96F
:10527000C046BD4680BDC046E4070020003801405E
:1052800080B500AF234B244A1A60224BE122520220
:105290005A60204B00229A601E4B0022DA601D4BA0
:1052A00000221A611B4B0C225A611A4B00229A6190
:1052B000184B0022DA61174B00221A62154B0022AC
:1052C0005A62144B00229A62124B180002F08EF8B8
:1052D000031E01D000F0E4F80E4B0021180004F08A
:1052E00085F8031E01D000F0DBF80A4B00211800FE
:1052F00004F0BCF8031E01D000F0D2F8054B1800F2
:1053000004F03AF8031E01D000F0CAF8C046BD46CA
:1053100080BDC046780800200044004090B589B0A8
:1053200000AF0C243B19180014231A00002108F0C8
:10533000D7F8204B5A6B1F4B04210A435A631D4B6D
:105340005B6B04221340BB60BB681A4B5A6B194B52
:1053500020210A435A63174B5B6B202213407B606A
:105360007B68144B5A6B134B01210A435A63114B50
:105370005B6B012213403B603B683B19802292012A
:105380001A603B19882252035A603B1900229A6026
:105390003B19094A1900100000F00AFD0022032100
:1053A000072000F013FC072000F025FCC046BD4696
:1053B00009B090BD001002400008005090B585B0C3
:1053C00002AF7860274B1C6805F08CF802000023C0
:1053D000009300230121200005F05AFD2249234BB0
:1053E000C822180004F084F80020FDF775F8962311
:1053F0005B00180004F087F90320FDF76DF8962391
:105400005B00180004F07FF9FDF738FAFDF753FA56
:10541000FDF77EFA164B1B78002B09D0154B1B6845
:105420005A1C144B1A60FDF798FA114B00221A709F
:10543000114B1B78012B10D10F4B5B78012B0CD13A
:105440000D4B9B78012B08D1FDF7B4FAFDF794FAC8
:10545000FA23DB00180004F056F9642004F053F935
:10546000D8E7C046180900201C090020E4070020E6
:10547000E8090020E4090020D004002080B582B0B3
:1054800000AF78607B681B68044A934201D100F04A
:10549000E3FAC046BD4602B080BDC04600480140A8
:1054A00080B500AF72B6C046FEE7000080B582B09E
:1054B00000AF154B1A6C144B01210A431A64124BAE
:1054C0001B6C012213407B607B680F4BDA6B0E4B29
:1054D000802149050A43DA630B4BDA6B80235B05B5
:1054E00013403B603B6802235B420022032118000B
:1054F00000F06CFBC023DB00180000F0C9FAC046C6
:10550000BD4602B080BDC0460010024090B599B0C3
:1055100000AF78604C23FB18180014231A000021F8
:1055200007F0DEFF18243B19180034231A0000216D
:1055300007F0D6FF7B681B684D4A934246D13B1962
:1055400001221A603B1900225A603B19180001F031
:105550000BFB031E01D0FFF7A3FF464B1A6C454B14
:105560008021C9010A431A64424B1A6C8023DB0173
:1055700013407B617B693F4B5A6B3E4B04210A43CE
:105580005A633C4B5B6B042213403B613B694C21EB
:105590007B1830221A607B1802225A607B18002286
:1055A0009A607B180022DA607B1801221A617B184E
:1055B000314A1900100000F0FBFB002203211B20E0
:1055C00000F004FB1B2000F016FB4CE07B681B681E
:1055D0002A4A934247D118217B1802221A607B186D
:1055E00000229A607B18180001F0BEFA031E01D059
:1055F000FFF756FF1F4BDA6B1E4B802189020A43CF
:10560000DA631C4BDA6B80239B021340FB60FB6860
:10561000184B5A6B174B01210A435A63154B5B6BAE
:1056200001221340BB60BB684C217B180C221A601E
:105630007B1802225A607B1800229A607B18002295
:10564000DA607B1801221A617A18A023DB051100A9
:10565000180000F0ADFB002203211C2000F0B6FA78
:105660001C2000F0C8FAC046BD4619B090BDC04627
:105670000038014000100240000800500044004083
:10568000B0B58CB000AF78602B23FB1800221A70E5
:10569000384B1A6C374B8021C9020A431A64354BC8
:1056A0001A6C8023DB021340BB60BB680C23FA1822
:1056B00010243B191100180001F02CFA3B19DB688B
:1056C0007B627B6A002B04D101F00EFA0300FB62BF
:1056D00004E001F009FA03005B00FB62FB6A264963
:1056E0001800FAF72DFD0300013B3B62234B244ACF
:1056F0001A60224B234ADA60204B3A6A5A601F4BE9
:1057000000221A611D4B00229A601C4B00229A61F4
:105710002B257C19194B180001F0DEFB03002370C8
:105720007B191B78002B1ED17C19144B180001F03B
:1057300033FC030023707B191B78002B13D1162038
:1057400000F059FA7B68032B09D87B680022190006
:10575000162000F03BFA0C4B7A681A6003E02B230A
:10576000FB1801221A702B23FB181B781800BD466A
:105770000CB0B0BD0010024040420F00EC09002008
:1057800000480140E70300001000002080B500AF92
:10579000FEE780B500AFFEE780B500AF80239B0138
:1057A000180000F069FCC046BD4680BD80B500AF62
:1057B000034B180001F04CFCC046BD4680BDC046FE
:1057C000EC09002080B582B000AF00237B600E4B57
:1057D000180001F005FF0D4B1B683A1D1100180061
:1057E00005F00AFA7B68002B03D0094B8022520592
:1057F0001A600849044BC822180003F079FEC0461D
:10580000BD4602B080BDC046E4070020100900205C
:1058100004ED00E01C09002080B500AF034B180028
:1058200001F0DEFEC046BD4680BDC04678080020BF
:1058300080B500AF01231800BD4680BD80B582B0A1
:1058400000AF7860396007F065FF030016221A6028
:1058500001235B421800BD4602B080BD80B582B016
:1058600000AF786001235A427B6811001800FFF7EF
:10587000E5FFFEE780B586B000AFF860B9607A60FA
:1058800000237B610AE000E000BF0100BB685A1CF6
:10589000BA60CAB21A707B6901337B617A697B682E
:1058A0009A42F0DB7B681800BD4606B080BD80B52B
:1058B00086B000AFF860B9607A6000237B6109E0D0
:1058C000BB685A1CBA601B78180000E000BF7B69F7
:1058D00001337B617A697B689A42F1DB7B6818004F
:1058E000BD4606B080BD80B582B000AF78600123B0
:1058F0005B421800BD4602B080BD80B582B000AFEB
:10590000786039603B68802292015A600023180059
:10591000BD4602B080BD80B582B000AF7860012383
:105920001800BD4602B080BD80B584B000AFF860FD
:10593000B9607A6000231800BD4604B080BD000045
:1059400080B586B000AF7860144A154BD31A7B61DE
:105950007B693B61134B1B68002B02D1114B124A30
:105960001A60104B1A687B68D3183A699A4207D2BA
:1059700007F0D0FE03000C221A6001235B4209E00D
:10598000084B1B68FB60074B1A687B68D218054BF5
:105990001A60FB681800BD4606B080BD009000206C
:1059A00000040000380A0020B028002080B500AFB5
:1059B000034B802212059A60C046BD4680BDC0469A
:1059C00000ED00E00D488546FFF7F0FF0C480D495B
:1059D0000D4A002302E0D458C4500433C4188C424A
:1059E000F9D30A4A0A4C002301E013600432A242B0
:1059F000FBD307F095FEFFF731FBFEE70090002098
:105A000000000020E4010020900F0108E8010020C0
:105A1000AC280020FEE7000080B582B000AFFB1D7F
:105A200000221A700B4B1A680A4B802149000A4366
:105A30001A600320FFF724FE031E03D0FB1D012282
:105A40001A7001E0FFF732FDFB1D1B781800BD4600
:105A500002B080BD0020024080B500AF054B1B782E
:105A60001A00054B1B68D218034B1A60C046BD468E
:105A700080BDC046140000203C0A002080B500AF65
:105A8000024B1B681800BD4680BDC0463C0A002082
:105A900080B582B000AF7860064B1B68064A1340A1
:105AA0001900044B7A680A431A60C046BD4602B02A
:105AB00080BDC04600000140FFF9FFFF80B582B005
:105AC00000AF0200FB1D1A70FB1D1B787F2B09D84D
:105AD000FB1D1B781A001F231A40044B0121914023
