:020000040800F2
:1000000000900020CD5E0008CD5C0008D35C0008A5
:1000100000000000000000000000000000000000E0
:1000200000000000000000000000000051BD0008BA
:10003000000000000000000071BE0008B9BE00080A
:100040001D5F00081D5F00081D5F00081D5F0008A0
:100050001D5F00081D5F00081D5F0008DB5C0008D5
:100060001D5F00081D5F00081D5F00081D5F000880
:100070001D5F00081D5F00081D5F00081D5F000870
:100080001D5F00081D5F00081D5F00081D5F000860
:100090001D5F00081D5F0008F15C00081D5F00087F
:1000A0001D5F00081D5F00081D5F0008095D000856
:0C00B000215D00081D5F00081D5F0008B6
:1000C00010B5064C2378002B07D1054B002B02D02E
:1000D000044800E000BF0123237010BDE8010020A8
:1000E0000000000068090108044B10B5002B03D084
:1000F0000349044800E000BF10BDC04600000000F6
:10010000EC0100206809010802780B78002A03D06E
:10011000013001319A42F7D0D01A70470023C25CF7
:100120000133002AFBD1581E7047000002B471460B
:1001300049084900095C49008E4402BC7047C0462A
:1001400003B47146490840004900095E49008E44E5
:1001500003BC7047002243088B4274D303098B42CF
:100160005FD3030A8B4244D3030B8B4228D3030C87
:100170008B420DD3FF22090212BA030C8B4202D329
:100180001212090265D0030B8B4219D300E0090A51
:10019000C30B8B4201D3CB03C01A5241830B8B425A
:1001A00001D38B03C01A5241430B8B4201D34B0343
:1001B000C01A5241030B8B4201D30B03C01A5241A8
:1001C000C30A8B4201D3CB02C01A5241830A8B422D
:1001D00001D38B02C01A5241430A8B4201D34B0216
:1001E000C01A5241030A8B4201D30B02C01A52417A
:1001F000CDD2C3098B4201D3CB01C01A524183092E
:100200008B4201D38B01C01A524143098B4201D367
:100210004B01C01A524103098B4201D30B01C01A92
:100220005241C3088B4201D3CB00C01A524183080C
:100230008B4201D38B00C01A524143088B4201D339
:100240004B00C01A5241411A00D201465241104699
:100250007047FFE701B5002000F0F0F802BDC0468E
:100260000029F7D076E7704703460B437FD400227E
:1002700043088B4274D303098B425FD3030A8B423A
:1002800044D3030B8B4228D3030C8B420DD3FF22A4
:10029000090212BA030C8B4202D31212090265D072
:1002A000030B8B4219D300E0090AC30B8B4201D325
:1002B000CB03C01A5241830B8B4201D38B03C01A6C
:1002C0005241430B8B4201D34B03C01A5241030BE3
:1002D0008B4201D30B03C01A5241C30A8B4201D394
:1002E000CB02C01A5241830A8B4201D38B02C01A3F
:1002F0005241430A8B4201D34B02C01A5241030AB6
:100300008B4201D30B02C01A5241CDD2C3098B429A
:1003100001D3CB01C01A524183098B4201D38B0117
:10032000C01A524143098B4201D34B01C01A5241BA
:1003300003098B4201D30B01C01A5241C3088B42FF
:1003400001D3CB00C01A524183088B4201D38B00EA
:10035000C01A524143088B4201D34B00C01A52418C
:10036000411A00D201465241104670475DE0CA0F63
:1003700000D04942031000D34042534000229C4623
:1003800003098B422DD3030A8B4212D3FC2289012D
:1003900012BA030A8B420CD3890192118B4208D303
:1003A000890192118B4204D389013AD0921100E065
:1003B0008909C3098B4201D3CB01C01A5241830979
:1003C0008B4201D38B01C01A524143098B4201D3A6
:1003D0004B01C01A524103098B4201D30B01C01AD1
:1003E0005241C3088B4201D3CB00C01A524183084B
:1003F0008B4201D38B00C01A5241D9D243088B42A1
:1004000001D34B00C01A5241411A00D20146634643
:1004100052415B10104601D34042002B00D54942A7
:10042000704763465B1000D3404201B5002000F0E6
:1004300005F802BD0029F8D016E770477047C0469E
:100440008446100062468C461900634600E0C046B0
:100450001FB501F09BF8002801D40021C8421FBD40
:1004600010B500F0EBFF4042013010BD10B501F0B7
:100470008DF8002801DB002010BD012010BDC04612
:1004800010B501F083F8002801DD002010BD012027
:1004900010BDC04610B501F013F8002801DC0020A3
:1004A00010BD012010BDC04610B501F009F80028AC
:1004B00001DA002010BD012010BDC046002B11D173
:1004C000002A0FD1002900D1002802D00021C94301
:1004D000080007B4024802A14018029003BDC046BC
:1004E0005DFFFFFF03B4684601B5029800F08CF889
:1004F000019B9E4602B00CBC7047C04670B50022FE
:100500000C4B04000D00FFF7CFFF002804D12000A2
:10051000290001F001FF70BD064B002220002900D8
:1005200001F05AFB01F0F8FE80231B069C46604454
:10053000F1E7C0460000E04170B505000C00002264
:10054000002328002100FFF791FF002808D1280090
:10055000210000F00FF802000B001000190070BD20
:1005600080231B06E118280000F004F80023424213
:100570008B41F2E770B500220B4B0D00040001F037
:1005800069F8FFF7BBFF060001F02CFF0022074BC4
:1005900001F060F802000B002000290001F01CFBB4
:1005A000FFF7ACFF310070BD0000F03D0000F041EE
:1005B00070B50600080001F0E5FE0022064B01F0D0
:1005C00049F80D000400300001F00CFF2B00220060
:1005D00000F0E6F870BDC0460000F04170B50600BE
:1005E000080001F0FFFE0022064B01F033F80D0079
:1005F0000400300001F0F6FE2B00220000F0D0F8DD
:1006000070BDC0460000F041F0B557464E46454625
:10061000DE46E0B504000D009246994683B08B4259
:1006200030D82DD04946504601F020FF2900060061
:10063000200001F01BFF331A9846203B34D49B4620
:1006400053465A46934042461F00534693401E006D
:10065000AF423BD8AF4200D179E05B46A41BBD411D
:10066000002B00DA76E000220023009201930123A0
:100670005A4693400193012342469340009329E058
:100680008242CFD900220023009201930C9B002BC1
:1006900001D01C605D600098019903B0F0BCBB46BE
:1006A000B246A946A046F0BD42469B4620239B1A6F
:1006B0005246DA40414613004A468A4017004246F5
:1006C0001F43534693401E00AF42C3D9002200236C
:1006D000009201934346002BD8D0FB0772081A43BF
:1006E00046467B080EE0AB4201D1A2420CD8A41AC8
:1006F0009D41012024196D410021013E24184D41E6
:10070000002E06D0AB42EED9013E24196D41002ED9
:10071000F8D1009801995B4600196941002B24DB50
:100720002B005A464446D3402A00E2401C005B4658
:100730001500002B2ADB26009E403300260047468A
:10074000BE403200801A9941009001919EE7A34279
:10075000BCD882E74246202300219B1A0022009148
:1007600001920122DA40019285E7424620239B1A3A
:100770002A0046469A402300F340444613432A0089
:10078000E2401C005B461500002BD4DA42462F00E5
:100790002023260097409B1ADE403B003343CDE7E1
:1007A000F0B54F464646D6460400C0B51F000B03C1
:1007B00010004E005B0ACD0F610F7A001943E30071
:1007C0003C03FF0FBC46640A470F2743760D520DCA
:1007D000C000B9468046B71A654500D19BE0002F9E
:1007E00000DC84E0002A00D1BEE0C84A964200D175
:1007F00024E180224C4612041443A146382F00DD28
:1008000067E11F2F00DDD6E120224C46D21B944029
:10081000A2464446FC4020005446044340469040D3
:10082000421E90414A46FA400443891A1C1BA342C7
:10083000924152428B1A9A4653461B0200D4D4E08E
:1008400053465A02530A9A465346002B00D104E1FC
:10085000504601F0EDFD0300083B20222000D21A93
:100860005146D040994002009C400A43B34200DA0E
:1008700002E19B1B591C1F2900DDA7E0202310006B
:1008800026005B1A9C409840CE40CA40631E9C41A3
:100890003043924600260443630709D00F232340C8
:1008A000042B05D0231DA342A4416442A2441C0092
:1008B00053461B0200D49BE0944B01369E4200D16C
:1008C000B8E053469249E4080B4019005B07234304
:1008D00072054C02240B520D1205ED0722432A43E8
:1008E00018001100E0BCBA46B146A846F0BD002F82
:1008F00048D0971B002E00D00EE10C001C4300D105
:10090000B7E17C1E012F00D126E2804DAF4200D11D
:10091000D5E1270007E1002F00DCB2E0002A47D034
:100920007A4A964200D189E080224C461204144350
:10093000A146382F6BDC1F2F00DC6EE13A004846E1
:10094000203AD0408446202F07D040224846D21B70
:10095000904002004046104380464046421E90416F
:1009600062460400144357E04A46024300D103E1C3
:100970007A1E012F00D193E1644CA74200D18AE195
:1009800017003BE7634C721C224200D0E0E00A00F3
:100990001A43002E00D074E1002A00D1D0E14A466B
:1009A000024300D0E3E14A07DB081343C90829E00A
:1009B0004A46024300D17DE17A1E012F00D1E0E0DA
:1009C000524CA74200D166E11700B2E710001F3B6E
:1009D000D840202903D040235B1A9A401443631E59
:1009E0009C41002300269A460443630700D055E744
:1009F0005246E3085207134352463700D108434A90
:100A000097421FD009037A050C0B520D64E742464A
:100A10004C461443621E9441E4189C429241524257
:100A200092468A4453461B02DFD5384B01369E421C
:100A300000D0B3E03200002400234DE74A07DB0872
:100A40001343C9081A000A4300D100E2802424039A
:100A50000C4324032D4A240B3EE7200001F0E8FC60
:100A6000030018331F2B00DCF7E622000838824011
:100A70000024B34200DBFCE6F61A254B1A409246EE
:100A80000AE7002F2BD0971B002E00D1B8E01F4C97
:100A9000A24200D11CE1802424042143382F00DD30
:100AA0001EE11F2F00DD9EE120260C00F61B180022
:100AB000B340B440F8405E1EB341F94004431C43C8
:100AC0008944444444459B415B424B449A4616004A
:100AD000A8E742464C461443621E9441A6E60D4CDC
:100AE000721C224200D0A8E00A001A43002E00D057
:100AF0000AE1002A00D15EE14A46024300D061E1EA
:100B00004A07DB081343C9087CE7C046FF0700001B
:100B1000FFFF7FFFFE070000CF4CA24200D1CEE0D6
:100B2000802424042143382F5BDC1F2F00DDDCE010
:100B300020250C00ED1B1E00AB40AC40FE405D1EAE
:100B4000AB413443F9401C434B465B1A99464CE099
:100B50004A461C1A881AA342924152429246020007
:100B60005046121A9246120278D45346234300D0BC
:100B70006AE60021002545E74A07DB081343C90858
:100B80003DE71C189C429B4149448A465B429A447B
:100B9000534601261B0200D427E702265246AF4BDC
:100BA00001211A401300214062080A43DC075B0858
:100BB0009A46144370E63A004C46203AD440A44684
:100BC000202F07D040224846D21B904002004046CA
:100BD000104380464046421E904162460400144342
:100BE00024E619430C00631E9C4143461C1BA04590
:100BF0009B4149465B42CB1A9A46654616001BE666
:100C00000C001C4300D1C7E07C1E012F00D1F9E08D
:100C1000914EB7425CD0270040E720224C46404628
:100C2000D21B9440F840044340469040421E9041FD
:100C30004A46FA4004438918EEE6874CA24200D1A6
:100C4000F9E6181898429B4149445B42CB18DC07EF
:100C500040085B089A4616000443C6E64246D41A8A
:100C6000A04580414B464042591A0B1A9A466546A8
:100C7000EAE54B464A46C0085B0765460343D10890
:100C8000BDE6002A00D08EE04B46034317D18021F9
:100C900000250903DAE64A07DB081343C908D1E651
:100CA0001C1A4A46A3429B41891A5B42CB1A9A46B8
:100CB0000126C1E54A07DB081343C9089FE64346FE
:100CC000D8084B464A465B0765460343D108B9E658
:100CD0004346D8084B464A465B070343D108B1E672
:100CE00019430C00631E9C41EBE63C000D00203CC8
:100CF000E540202F03D04024E41BA1400B431C00FF
:100D0000631E9C412C4370E7002AE1D04A4602430F
:100D1000C1D04A07DB0813438022C90812031142DD
:100D200008D04846C408144204D143462100DB08D9
:100D3000420713435A0FDB005207DB08134381E6D7
:100D40004B46034300D114E74B464A46C0085B07B5
:100D500065460343D10855E6C41AA04580414B4679
:100D60004042591A0B1A9A466546012664E51C1A38
:100D70004A46A34280418A1A4042121A92461202FF
:100D800049D54246D41AA04580414B464042591AA3
:100D90000B1A9A4665467FE54B464A46C0085B07F4
:100DA0000343D1082BE64A46DB08024338D14A0701
:100DB0001343C90846E64B464A46C0085B0703434F
:100DC000D1081FE61C189C429B4149448A465B425D
:100DD0009A4453461B0200D407E652461F4B012695
:100DE0001A40924601E63C000E00203CE640202FCF
:100DF00003D04024E41BA1400B431C00631E9C4114
:100E000034435EE643448342804149448A4640423B
:100E10001C008244BCE65346234300D1A9E6E4E526
:100E20004A0713438022C9081203114209D04846D9
:100E3000C408144205D1434665462100DB08420739
:100E400013435A0FDB00DB0852071343FAE5002374
:100E5000014A1C0040E5C046FF070000FFFF7FFF7E
:100E6000F0B557464E464546DE46E0B50C031F003A
:100E70004B0081469246050085B0240B5B0DCE0FDA
:100E8000002B00D152E1D24A934200D16EE1420FD1
:100E9000E40014438022120422439046CD4AC50048
:100EA00093469B440023994600933C037B005046A5
:100EB000240B5B0DFF0F002B00D11AE1C44A9342B3
:100EC00000D15EE1420FE400224380242404144355
:100ED000C04AC10094465A466344D31A9B46002038
:100EE00033007B409A464B460F2B27D8BA4A9B00CB
:100EF000D3589F46B246009B022B16D0032B00D13D
:100F000087E2012B00D0D5E00023002200251B053D
:100F100013435246D20713432800190005B0F0BC12
:100F2000BB46B246A946A046F0BD00220025A84B0C
:100F3000EDE7BA46A0460D000090DCE7444500D23C
:100F4000C4E100D1BFE101235B429C462E00404634
:100F50000025E34423020C0E1C431B0C994623047A
:100F60000A021F0C494600920197FFF779F9020027
:100F70007A430B04310C804619438A4207D9012376
:100F80005B429C460919E0448C4200D801E2881A71
:100F90004946FFF765F9019A360442430904360CC5
:100FA00003000E43B24204D93619013BB44200D8C3
:100FB000E9E1B01A4246009E12041A43330C1F00A6
:100FC000110C9046029313043204160C32001B0CD1
:100FD0005A4303967B434E437943170CBC469B19F7
:100FE00063449E4203D980267602B44661441E0CB7
:100FF000711816041B04360C9E19884202D312D1B4
:10100000B54210D243465A1E009B9C4665441F00C1
:101010009D429B415B421B19C018844200D29EE155
:1010200000D199E19046AE1BB542AD41401A6D42E8
:10103000401B844200D1D2E14946FFF711F9019AE1
:101040000B044243310C050019438A4200D96CE17C
:10105000881A4946FFF704F9019A36044243090405
:10106000360C03000E43B24200D953E10398B61A7E
:1010700002002D041D43029F2B041B0C5A437B438B
:101080009C46290C4843130C84446344794398429A
:1010900003D98020400284466144180C12041B04CA
:1010A000120C40189B18864200D200E100D1FBE0F0
:1010B00001231D43494B5B44002B00DCAAE06A0777
:1010C00000D03DE1E9084246D20106D54246444BF4
:1010D0001A4080239046DB005B44424A934200DD85
:1010E00023E742465B05550752020D43120B5B0D89
:1010F0000DE75146214300D17CE0002C00D1FBE0FC
:10110000200001F095F902000B3A1D239B1A52466C
:101110000100DA40534608398B408C4019001443D3
:10112000314B58449B4683440020D9E603002343B7
:10113000984644D0002C00D1CFE0200001F078F98F
:10114000010002000B391D235B1A49461000D940EB
:10115000083884400B004D46234398468540234B76
:101160009B1A9B460023994600939EE60200224369
:1011700090461DD108229B460223002591460093EC
:1011800093E65146214309D102234A461A43184B9C
:1011900091469C4600240220E344A1E603234A46EC
:1011A0001A43134B91469C4651460320E34497E66D
:1011B0000C229B460323A0469146009375E6042328
:1011C000994600239B460133002500936DE6C046F7
:1011D000FF07000001FCFFFF84100108FF0300006F
:1011E000FFFFFFFEFE070000F30300000DFCFFFF02
:1011F00001F8FFFF4A4601231A43914600240120CB
:101200006EE6002380229A460025884B12037EE674
:1012100001256D420122D21A382A00DD74E61F2A08
:1012200000DCBDE01F214942CB1A4146D9400B00EA
:10123000202A04D041467E4A5A4491400D43290059
:101240004A1E9141194307231D0000220D400B4205
:1012500000D1D0E00F2200230A40042A00D1C7E0C9
:101260000A1D8A42894149425B1811001A0200D4C2
:10127000BEE001230022002549E6802243461203F6
:10128000134208D0144206D122431203BA460D007D
:10129000664B120B3BE68022434612031A431203AD
:1012A000B246624B120B32E6002B00D102E7A619C0
:1012B0006A1EA64200D289E0864200D29FE000D199
:1012C000AFE01500F4E6A94200D93CE64346DE074C
:1012D00058086B081E43ED073CE601F0A9F8010031
:1012E0000200153120321C2900DC2CE74B4608385F
:1012F00083400025984632E701F09AF803001A006F
:10130000153220301C2A00DCFFE65446083B002141
:101310009C4005E73619013BB44200D9A6E6B2422B
:1013200000D8A3E6831E3619A0E60919013D8C42B8
:1013300000D98DE68A4200D88AE6851E091987E61B
:101340000F222A40042A00D1BCE6291DA942AD4142
:101350006D42C908A844B6E6AF4200D962E68142B0
:1013600004D800D05EE6AE4200D85BE602235B42C2
:101370009C46009BE0449C4665449D429B415B42E9
:101380001B19C0184FE6B24200D812E6831E361968
:101390000FE68A4200D8FAE5831E98460919F6E559
:1013A000244B28005B4441469D409940D0406B1E31
:1013B0009D41434601432943D3404A0700D155E7A5
:1013C0000F220A40042A00D04AE74FE71500864260
:1013D00000D06DE6009A9A4200D069E66AE6164BA4
:1013E0005B44002B00DC13E701250021A8446AE6DA
:1013F0005D075B021A0BC90800230D4387E50099BE
:10140000023D4A008A42BF417F423F19F6190092CD
:10141000DDE78022434612031A431203034B120BEB
:1014200075E500999942EAD31500D3E7FF0700005C
:101430003E0400001E040000FF030000F0B54E460D
:101440004546DE4657469046E0B517001A03120B94
:101450000500844619480E034C0091465A00DB0FE4
:101460009B46360B640DC90F520D844219D082423F
:1014700010D0012094420ED14E450CD10120C4451C
:1014800009D1594517D0002C05D130002843431EFF
:10149000984100E00120F0BCBB46B246A946A046F8
:1014A000F0BD330001202B43F5D1A242F3D14B46CE
:1014B0003B43F0D1E2E70020EDE7C046FF07000024
:1014C000F0B54746CE460400180016001B031B0B60
:1014D0002D4D4A00994680B543000F03A446B046FF
:1014E0003F0B520DC90F5B0DC00FAA4221D0AB427A
:1014F00013D0002A22D13C43002B02D14D462E436B
:1015000022D0002C10D0814222D002200139084084
:101510000138C0BCB946B046F0BD4D462E4329D176
:10152000002AF0D13C43EED10028F2D10120404204
:10153000EFE73D0025431DD19342EED0002BE2D1D1
:101540004C462643DFD1E0E70020002CE1D0DCE769
:101550009A420ADCE8DB4F45D7D80ED000204F4531
:10156000D7D20029E2D00800D3E7434258414000D7
:101570000138CEE702204042CBE7C445C5D8002061
:10158000C445C6D2EDE7C046FF070000F0B54746A8
:10159000CE460400180016001B031B0B2C4D4A00FE
:1015A000994680B543000F03A446B0463F0B520D49
:1015B000C90F5B0DC00FAA420DD0AB4210D0002A5C
:1015C00027D13C43002B11D14D462E430ED1002094
:1015D000002C15D00EE03D00254310D1934218D1C8
:1015E0004D462E430BD1002A02D13C43002C0BD098
:1015F000814214D0022001390840013800E0022065
:10160000C0BCB946B046F0BD0028F9D10120404227
:10161000F6E7002BECD14C462643E9D1EAE79A42A3
:1016200004DD4342584140000138E9E79A42EBDBD0
:101630004F45DFD806D000204F45E1D20029E5D044
:101640000800DDE7C445D5D80020C445D8D2F5E769
:10165000FF070000F0B54546DE4657464E46E0B56A
:101660001F000B031B0B9B464D00CB0F0400914644
:10167000984687B06D0D00D1CDE1CE4B9D4200D193
:10168000E9E15A46430FD2001343802212041A4361
:10169000C3009A46C84B93469C46002300266544E7
:1016A00000933C037B004846240B5B0DFF0F002B8F
:1016B00000D189E1BF4A934219D0420FE40022438E
:1016C000802424041443BC4A0021944642466344C7
:1016D0005B190193019B7A400133C000D2B202939F
:1016E0000A2E1CDD3A000B2E5ED0474656E04946D6
:1016F000B04B2143EB18019300292AD1802002220C
:1017000000012B0084461643424663447A40D2B21D
:1017100002930A2E00DD31E2002000240221022E75
:1017200026DC013E012E52D802294CD0012900D0DE
:1017300018E10023002400251B052343D20713438F
:101740002800190007B0F0BCBB46B246A946A04627
:10175000F0BD8021032209012B008C46164342462E
:1017600063447A40D2B202930A2E00DD28E20321BC
:101770000125B540AC46A6266346F6003540334207
:101780000BD19026B600334218D1B93EFF3E1E421F
:101790001DD0A3468246009100E0170000993A0050
:1017A000022910D05C4650460329BFD180231B0379
:1017B0001C43240305007F4B240BBDE7802400223B
:1017C0007C4B2403B8E7002400257A4BB4E753464A
:1017D0001E04360C1F0C3300010C0004000C4343A4
:1017E000984603007B43994633004B439C4643464F
:1017F0000D001B0C9A467D43CC44D4440095E14532
:1018000004D980235B0299464D44009563461B0C26
:101810001D0063461B049C4643461B041B0C984654
:10182000634643440393230C984633002404240C5A
:1018300063439C4623007B43994643465E435F4394
:101840004E446346B2461E0C5644B14503D980232C
:101850005B0299464F44330C99463B004B44059339
:101860006346AC461F043F0C3604F619B444634685
:1018700004935B461B0C9C465B461F043F0C3B00DD
:1018800043439946634643439A464B4660461B0C86
:101890009B4648437943514459448A4503D98023A0
:1018A0005B029A4650440B0C9A464B461B041B0C99
:1018B00099463B00634309044546494499466346BB
:1018C0005C436B439C464B461B0C98466F433F1949
:1018D00047445044BC4203D980235B029846C44429
:1018E000049B009D98464544B542B64173429846D4
:1018F0004B461E04059B3C049946360CA4194C44E7
:10190000A14683466E18C1448E428941CB445D4650
:1019100049426D189C42A441C1459B418345804189
:101920008D4289415B4264421C434042039B4942D1
:10193000014370023F0C1843E419471EB841641874
:101940006444F60D61023043EC0D6E020C433043EB
:10195000C90100D4F1E00121430801400B43E00735
:10196000184364081549029B8C466344002B00DC35
:1019700097E0410709D00F210140042905D0011D3E
:1019800081428041404224180800E10106D58021AF
:10199000C9008C460A4B1C40029B634409498B4298
:1019A00000DD10E76107C50864025B050D43240BE9
:1019B0005B0DC1E6FF07000001FCFFFFFF03000015
:1019C000FFFFFFFEFE0700004B46234359D0002CCB
:1019D00000D1A3E0200000F02BFD010003000B3933
:1019E0001D22521A49461800D1404A460838824002
:1019F000844010000C43744AEB1A944642466344F8
:101A00000193019B7A4001330021D2B202930A2E46
:101A100000DD67E683E65B4603439A462AD05B46D1
:101A2000002B6DD0584600F003FD010003000B3978
:101A30001D22521A210018005D46D1400838854009
:101A40000A0084402A439346A2465F4D0026ED1AC1
:101A50000023009325E65B4603439A4605D1002305
:101A60009B460233082600931BE6032382460C267E
:101A7000009316E600239B460133042600250093BD
:101A80000FE64246013301951E43019B7A40013324
:101A9000002400200121D2B202930A2E00DD21E6AB
:101AA0003DE60121C91A382900DD42E61F2947DD3C
:101AB0001F2625007642F31ADD402B00202905D091
:101AC0004249029D8C466544AC402043411E8841FA
:101AD000184307231D000024054003424AD00F236A
:101AE00000240340042B42D0031D83428041404226
:101AF0002418180023023AD50123002400251BE6F0
:101B000000F096FC01000300153120331C298FDD05
:101B10000838002284409246A34696E700F088FCED
:101B200001000300153120331C2900DC58E70200B6
:101B30004C46083A002094405DE7019B029311E770
:101B4000234B26009C460300029DCB406544AE40DB
:101B50001E430300AB40581E834130001843CC4065
:101B60004307C7D00F230340042BBDD1C2E765074D
:101B70006402240BC00800230543DDE50025022391
:101B80000F2E0CD180245B46240323420ED0214229
:101B90000CD10C4324033A000E4B240BCCE50B2E46
:101BA00000D0A2E58B46AA460093F7E580245B4669
:101BB00024031C43240342465546064B240BBBE535
:101BC0004D4621000323DBE70DFCFFFF3E04000030
:101BD0001E040000FF070000F0B557464E4645467C
:101BE000DE46E0B50D000400190010002B035B0A6F
:101BF000620F1A43E3000C03640A470F2743D04CDB
:101C00006E00914683B04A00C0009846A246760D09
:101C1000ED0F520DC90F0190A24200D1B9E001248D
:101C200061408B468D4200D18DE0B41AA446002C51
:101C300000DCB7E0002A00D1CBE0C14A964200D1D7
:101C400086E18022120417436246382A00DDA4E1AF
:101C50001F2A00DD1DE2614620223C00521A0100CD
:101C600090409440421E90416246A0466446D74050
:101C70004A46E1404446D21B91460C4304431C1B98
:101C8000A34292414B4652429B1A9A4653461B022C
:101C900000D42BE153465A02530A9A465346002B6E
:101CA00000D166E1504600F0C3FB0300083B202250
:101CB0002000D21A5146D040994002009C400A436D
:101CC0009E4200DD64E19B1B591C1F2900DDFEE0E4
:101CD0002023100026005B1A9C409840CE40CA404A
:101CE000631E9C413043924600260443630709D09B
:101CF0000F232340042B05D0231DA342A44164429B
:101D0000A2441C0053461B0200D4F2E08C4B013667
:101D10009E4200D10FE153468A49E4080B40190066
:101D20005B07234372054C02240B520D120522431C
:101D3000ED072A431800110003B0F0BCBB46B246C1
:101D4000A946A046F0BDB41AA446002C59DD002ACD
:101D500000D1B0E0564500D1FAE0802212041743CA
:101D60006246382A00DDD4E01F2A00DCC0E13900D9
:101D7000203AD1406246202A06D064464022121BF7
:101D80003C00944004430194019C621E94410C4326
:101D9000C3E03C0004432BD08B468D422ED06A4CCE
:101DA000A446B4446446002C5FD0941BA446002E85
:101DB00000D020E14C461C4300D1C7E161464C1ED7
:101DC000012900D123E25E4DAC4500D1D8E1A44603
:101DD0001AE13A00024300D1E4E02200013A012C6A
:101DE00000D1C3E156498C4200D1B1E094462BE7C3
:101DF000012461408B468D4200D016E752498C4643
:101E0000B4446446002C00D1D3E0911B8C46002ED4
:101E100000D15EE14A498A4200D1BEE180214C46B0
:101E200009040C43A1466146382900DDBAE11F29A7
:101E300000DD27E22024641A4946A1401E0088469E
:101E40006146A340CE4041465C1EA3413143194345
:101E50000C0063464946D9407F18241884429B41B0
:101E60005B429A461600BA445DE0384C721C22422E
:101E700000D0DFE04A461A43002E00D05CE1002A81
:101E800000D1CFE13A00024300D17FE11C1A4A465B
:101E9000A3428941D21B4942521A9246120200D4EF
:101EA0000AE2C41AA04280414B464042FF1A3B1A44
:101EB0009A465D461AE73A00024373D02200013A7F
:101EC000012C00D1CBE0544542D0944648E71000A5
:101ED0001F3BD840202903D040235B1A9A4014436B
:101EE000631E9C41002300269A460443630700D0EA
:101EF000FEE65246E308520713435246B446D20860
:101F00000F498C452AD01203140B62465205520D1C
:101F10000CE73C000443621E9441E4189C42924149
:101F200052424A44924653461B02DFD5044B0136C7
:101F30009E4200D0A0E0320000240023F6E6C04616
:101F4000FF070000FFFF7FFF01F8FFFFFE07000013
:101F5000DB084A46520713434A46D2081900114388
:101F600000D1B5E18024240314432403D54A240B73
:101F7000DCE6200000F05CFA030018331F2B00DCC5
:101F800095E622000838824000249E4200DC9AE652
:101F9000F61ACD4B1A409246A8E63C000443621E56
:101FA00094416CE64A46DB08520713434A46D2087E
:101FB000A6E7C64C721C224200D0ACE04A461A4347
:101FC000002E00D005E1002A00D156E13A0002437C
:101FD00000D1DBE01C189C429B414F44BA465B4257
:101FE0009A4453461B0200D480E75246B64B012662
:101FF0001A4092467AE7B34CA24200D1C0E0802456
:102000004D4624042543A9466446382C53DC6146DA
:102010001F2C00DDCDE020251E002D1B4C46AB40C3
:10202000AC40CE405D1EAB41344323434C46CC40D4
:102030003F1B45E04A461C1AD11BA3429241524223
:1020400092460A005146521A9246120200D583E087
:102050005346234300D021E60022002553E71C18F5
:102060009C429B414F44BA465B429A4453460126E8
:102070001B0200D43AE702265246934B01211A4034
:102080001300214062080A43DC075B089A461443A8
:102090002CE63900203AD1406246202A06D0644618
:1020A0004022121B3C00944004430194019C621E98
:1020B00094410C43E3E5494619430B005C1EA341E0
:1020C000C41AA0429B415B42FB1A9A465D46160029
:1020D000DCE54946194300D1AEE06146644601396A
:1020E000012C00D1E0E0774CA44556D08C469AE60E
:1020F000614620223C00521A944001009040A046C4
:102100006446421E90416246E1404446D7400C433B
:102110000443B94401E76B498A4200D10CE718181F
:1021200098429B414F445B42FB18DC0740085B0828
:102130009A4616000443D9E6002A00D081E03B000D
:1021400003431DD18022002512030BE7C0087B0743
:102150005D460343FA08D3E6C41AA04280414B46C9
:102160004042FF1A3B1A9A465D4697E51C1A4A46BA
:10217000A3429B41D71B5B42FB1A9A46012685E589
:10218000C0087B075D460343FA08E7E64A46DB08DA
:10219000520713434A46D208B5E6C0087B070343FB
:1021A000FA08DBE6494619430B00591E8B411C0017
:1021B00053E64D46203CE540202905D04024641AD2
:1021C0004946A1400B43984643465C1EA3412B431E
:1021D00076E7002AE1D03A00DB08024300D1B8E6F6
:1021E0004A465207802413434A462403D208224217
:1021F00007D0FE08264204D15D463200C3087F079F
:102200003B43590FDB004907DB080B43A6E6C41A22
:10221000A04280414B464042FF1A3B1A9A465D4617
:10222000012633E53B00034300D115E7C0087B07D7
:102230005D460343FA0866E6C0087B070343FA08D5
:102240005EE63A00DB08024300D182E64A465207C6
:10225000802413434A462403D208224207D0FE08B2
:10226000264204D15D463200C3087F073B43590F25
:10227000DB00DB0849070B4370E6C0087B0703431C
:10228000FA0840E64C462039CC406146202906D069
:1022900066464021891B4E468E403343984643464E
:1022A000591E8B411C43D8E51C18844280414F4481
:1022B000BA4640428244D9E65346234300D1CBE696
:1022C00014E6C046FF070000FFFF7FFFFE07000087
:1022D0000023014A1C0029E5FF07000070B5050036
:1022E0000C481C0316005B000A034900120B490D41
:1022F000240B5B0D814208D0064A0020934203D193
:1023000020003043431E984170BD01202A43FBD179
:10231000F2E7C046FF0700000A0030B5134C530037
:1023200009030500090B00205B0DD20FA34204DD59
:102330000F48834202DD0F4BD01830BD8020400390
:1023400001430D48C01A1F2808DD0C48C31AD940A4
:102350000B005842002AF0D11800EEE7084CC540A7
:10236000A446634499400B002B43F2E7FE030000B0
:102370001D040000FFFFFF7F330400001304000072
:10238000EDFBFFFF70B5002816D0C317C5185D40E0
:10239000C40F280000F04CF8114B1B1A0A2816DC59
:1023A00002002E00153296400B22121AD5405B0512
:1023B0002D032D0B5B0D03E00024002300250026D8
:1023C0001B052B43E40723433000190070BD0B3875
:1023D00085405B052D0300262D0B5B0DF0E7C04605
:1023E0001E04000010B5041E10D000F021F80F4BA1
:1023F0001B1A0A2811DC0B222100121AD1401530B9
:102400000A035B058440120B5B0D01E000230022F0
:102410001B0513432000190010BD22000B38824019
:102420005B0512030024120B5B0DF1E71E04000094
:102430001C2101231B04984201D3000C10391B0AF4
:10244000984201D3000A08391B09984201D30009B8
:10245000043902A2105C40187047C046040302020F
:1024600001010101000000000000000010B500297A
:1024700003D1FFF7DDFF203002E00800FFF7D8FFAF
:1024800010BDC04680B582B000AF786039603A6850
:102490007B68110018000BF02AFD031E01D00123F8
:1024A00000E000231800BD4602B080BD80B582B0B8
:1024B00000AF78607B681800FDF730FE03009AB229
:1024C000FA239B007968074805F080FAFA239B00FD
:1024D00005490448022205F079FAC046BD4602B01B
:1024E00080BDC0468C0800208009010890B587B0E7
:1024F00000AF3B1D084A13CA13C303CA03C33B1DE5
:102500000021180007F065FB0200044B1A60C0466A
:10251000BD4607B090BDC04690090108B40900202F
:1025200090B585B002AF78606249634BC82218004D
:1025300007F06CFA002000F0DBF896235B0018002F
:1025400007F06FFB032000F0D3F896235B00180020
:1025500007F067FB00F0D0FA00F0EBFA00F023FB85
:10256000282000F0C5F8FA239B00180007F059FB5B
:10257000262000F0BDF8FA239B00180007F051FB5D
:102580004E4B1C6808F02CFB020000230093002334
:102590000121200009F0E4F8494B186800230022CB
:1025A000002107F09FFC474B1B68002B36D0464AA2
:1025B000464B110018000BF042FD454A454B1100F7
:1025C00018000BF03CFD272000F092F8FA235B0086
:1025D000180007F026FB404B01221A703F4B1B6886
:1025E0005A1C3E4B1A6000F08FFB354B1B68FA22D9
:1025F00012011100180007F062FE00F0F9FA304BEA
:10260000186800230022002107F06CFC2D4B0022EB
:102610001A6096235B00180007F003FB304B186923
:10262000596900220023FDF71BFF031E1CD12A4B12
:102630001B78012B18D1244A244B11001800FDF7F8
:1026400063FD031E02D1274B01221A71204A214B40
:1026500011001800FDF758FD031E02D1214B012285
:102660005A711D4B00221A701F4B50229B5C002B8D
:1026700006D000F00BFB96235B00180007F0D1FAA0
:102680001A4B1B78002B11D000F0F0FA00F0C0FAC2
:10269000FA23DB00180007F0C4FA144B00221A706A
:1026A000104B0622002118000BF082FB642007F07B
:1026B000B8FA78E7CC0900208C080020C009002077
:1026C000C4090020980A0020A8040020C0040020AB
:1026D000B4040020CC040020D6040020940A00207A
:1026E0000802002000050020EC070020E807002079
:1026F00090B5B9B004AF0200FB1D1A70FB1D1B782A
:10270000282B00D98DE19A00C84BD3181B689F462F
:10271000C74B1800FFF7CAFEC64B00221A7081E1B2
:10272000C44B01221A70C44B1800FFF7BFFE79E1B9
:10273000C04B04221A70C14B1800FFF7B7FE71E1BD
:10274000BF4B1800FFF7B2FE6CE1BE4B1800FFF75D
:10275000ADFE67E1B74B05221A70BB4B1800FFF7BF
:10276000A5FE5FE1B34B06221A70B84B1800FFF7C5
:102770009DFE57E1AF4B09221A70B54B1800FFF7C9
:1027800095FE4FE1AB4B08221A70B24B1800FFF7D1
:102790008DFE47E1A74B0A221A70AF4B1800FFF7D6
:1027A00085FE3FE1A34B09221A70AC4B1800FFF7DE
:1027B0007DFE37E19F4B0A221A70A94B1800FFF7E4
:1027C00075FE2FE19B4B0D221A70A64AA6490824DC
:1027D0003B1918000BF080FA3B191800FFF766FE52
:1027E00020E1944B0E221A70A04B1800FFF75EFEFA
:1027F00018E19F4B1800FFF759FE13E19D4BC822CB
:10280000002118000BF0D4FA8A4B10221A709A4952
:1028100008243B19002218000BF05EFA3B1918003F
:10282000FFF744FEFEE0934BC822002118000BF096
:10283000BFFA804B11221A70904B91490824381925
:10284000904A009200220BF047FA3B191800FFF75C
:102850002DFEE7E0874BC822002118000BF0A8FAF4
:10286000744B13221A70884B884A13CA13C3127808
:102870001A70874B854A13CA13C312781A70854B96
:10288000854A13CA13C3804B7E4A9A87824A83497A
:10289000082438197D4B01937C4B009313000022D0
:1028A0000BF01AFA3B191800FFF700FEBAE0714B63
:1028B000C822002118000BF07BFA5E4B15221A701B
:1028C000774B7849082438190122009200220BF036
:1028D00003FA3B191800FFF7E9FDA3E0554B162258
:1028E0001A70714B1800FDF719FC03006F4908249A
:1028F000381903936E4B0293002301930123009335
:10290000012300220BF0E8F93B191800FFF7CEFD78
:10291000642007F086F9644B1800FFF7C7FD81E0DB
:10292000444B18221A70634B1800FFF7BFFD79E083
:10293000404B19221A70604B1800FFF7B7FD71E089
:102940003C4B1B221A705D490824381978233C221D
:102950000BF0C2F93B191800FFF7A8FD62E0354BF8
:102960001C221A70564A574908243B1918000BF0CC
:10297000B3F93B191800FFF799FD53E02D4B1D22C9
:102980001A70514A514908243B1918000BF0A4F958
:102990003B191800FFF78AFD44E0264B1E221A70EF
:1029A0004B4B1800FFF782FD3CE0224B1F221A70B0
:1029B000484B1800FFF77AFD34E01E4B20221A70B6
:1029C000454B1800FFF772FD2CE01A4B21221A70BC
:1029D000424B1800FFF76AFD24E0164B22221A70C2
:1029E0003F4B1800FFF762FD1CE03E4B1800FFF75D
:1029F0005DFD17E03C4B1800FFF758FD12E03B4B24
:102A00001800FFF753FD0DE00A4B27221A70384BD0
:102A10001800FFF74BFD05E0364B1800FFF746FDA9
:102A200000E0C046C046BD4635B090BDC4100108A8
:102A3000A4090108A6020020A8090108AC090108A0
:102A4000B4090108BC090108C4090108CC0901083E
:102A5000D8090108E4090108F0090108FC09010886
:102A6000080A0108140A0108240A01083C0A01089E
:102A7000480A0108CC0900204C0A0108680A01082C
:102A80007C0A01085B07000068020020940A010824
:102A90007C02002090020020A40A0108B00A01086C
:102AA000D00A0108EC0A0108A8020020040B010862
:102AB000240B01083C0B0108480B0108540B0108CA
:102AC000740B01087C0B0108F0AB0000940B0108AB
:102AD000AC0B0108C80B0108F40B0108080C010835
:102AE000140C0108200C01083C0C0108480C0108DA
:102AF000540C0108640C010880B500AF0120FFF7F9
:102B0000F7FD96235B00180007F08BF80420FFF711
:102B1000EFFD96235B00180007F083F80520FFF710
:102B2000E7FD96235B00180007F07BF8C046BD4622
:102B300080BD80B500AF0620FFF7DAFD96235B006D
:102B4000180007F06EF80920FFF7D2FD96235B000E
:102B5000180007F066F80D20FFF7CAFD96235B000A
:102B6000180007F05EF80A20FFF7C2FD96235B000D
:102B7000180007F056F80E20FFF7BAFD96235B0009
:102B8000180007F04EF8C046BD4680BD80B500AFC6
:102B90000F20FFF7ADFD96235B00180007F041F80A
:102BA000C046BD4680BD80B500AF1020FFF7A0FD38
:102BB00096235B00180007F034F81120FFF798FD0A
:102BC000FA23DB00180007F02CF81320FFF790FD24
:102BD000FA23DB00180007F024F81520FFF788FD22
:102BE000FA23DB00180007F01CF8C046BD4680BD84
:102BF00080B500AF1620FFF77BFD044BC8220021F3
:102C000018000BF0D5F8C046BD4680BDCC090020A9
:102C100080B5B4B002AF1020FFF76AFD96235B00C9
:102C2000180006F0FEFF1120FFF762FDFA23DB001B
:102C3000180006F0F6FF094A09493800094B0193CC
:102C4000094B0093130000220BF046F83B001800DC
:102C5000FFF72CFCC046BD4632B080BD900200207C
:102C6000B00A01087C0200206802002080B500AF95
:102C7000054B1800FFF71AFCFA239B00180006F01A
:102C8000D0FFC046BD4680BD700C010880B500AFC6
:102C90001B4B50229B5C052B2DD89A00194BD31847
:102CA0001B689F46164B502200219954FFF76EFF78
:102CB000FFF779FF20E0124B502200219954FFF7D3
:102CC00065FFFFF770FF17E00D4B5022002199546C
:102CD000FFF75CFFFFF767FF0EE0094B5022002172
:102CE0009954FFF753FFFFF75EFF05E0044B5022B6
:102CF0000021995400E0C046C046BD4680BDC04694
:102D0000EC0700206811010880B582B000AF02F026
:102D100061FC03007B607B68002B04D12A4B180008
:102D200000F0DAFF4DE0294B1B681800FFF72AFB83
:102D300002000B002649786802F092FB254B1869C7
:102D4000596900220023FDF78BFB031E19D1214B8B
:102D50001A695B69204921480AF0BEFF1D4B9A6938
:102D6000DB691D491E480AF0B7FF1C4A1D497B68F4
:102D7000180002F09BFB1A4A1B497B68180002F0FE
:102D800095FB7B68180002F031F803003B603B685C
:102D9000002B0ED0154A3968154B18000BF02FF890
:102DA000134B124A002199543B68180009F088FA25
:102DB00003E0104B180000F08FFF7B68180001F053
:102DC0003FFBBD4602B080BD800C0108940A002084
:102DD000A00C010808020020AC0C0108A804002087
:102DE000B4040020B40C0108B80C0108FF01000075
:102DF000A8020020C00C0108F0B58DB000AFF8604B
:102E00000A000B26BB191A70FB68180009F042FA79
:102E100002000B00BA62FB620022254BB86AF96A15
:102E2000FEF71EF802000B0010001900FFF774FAFD
:102E300003007B627B6A642253431800FFF7A2FA07
:102E400002000B00B86AF96AFEF7C6FE02000B002A
:102E5000BA61FB61786AFFF795FA38607960002201
:102E6000144BB869F969FDF7FBFF02000B003868E5
:102E70007968FDF795FC02000B003A617B61BB1994
:102E80001B78532B03D0BB191B78572B07D13B69F9
:102E90001C007B69802212065A40150001E03C6943
:102EA0007D6922002B0010001900BD460DB0F0BD59
:102EB0000000594000004E4090B5AFB000AF7860C0
:102EC0003960994A7B68110018000BF010F8030074
:102ED000A822B9180B60BB181B68002B02D1012374
:102EE0005B421CE1A822BB181B680A33B9180B60AF
:102EF000BB18196828243B197F2218000AF07FFFAD
:102F000020003B187F2200219954884A3B18110069
:102F100018000AF089FF0300B422BA1813600023D6
:102F2000B022BA181360AF23FB184E221A70AE23DA
:102F3000FB1845221A70C7E0B022BB181B680A2B89
:102F400000D9B2E0BB181B689A00794BD3181B68F4
:102F50009F463B68B422BA1811680A2218000AF08A
:102F60004EFF3B6800229A729FE0B423FB18196859
:102F700018243B190F2218000AF041FF3B190022C8
:102F8000DA733B191800FDF7C9F803005A1EAF2386
:102F9000FB1839198A5C1A703B191800FDF7BEF846
:102FA0000300013B3A190021D1547EE0B423FB1801
:102FB000196808243B190F2218000AF020FF3B195A
:102FC0000022DA733B191800FDF7A8F803005A1E17
:102FD000AE23FB1839198A5C1A703B191800FDF7EB
:102FE0009DF80300013B3A190021D1545DE0B42360
:102FF000FB181B68180009F04DF902000B00396836
:103000000A624B6251E0B423FB181B68180009F0F8
:1030100041F902000B0039688A62CB6245E0B423B3
:10302000FB181B68180009F03AF902003B681A63A4
:103030003BE0B423FB181B68180009F02BF90200D1
:103040000B0039688A63CB632FE0B423FB181B683D
:10305000180009F01FF902000B0039680A644B647C
:1030600023E0B423FB181B68180009F013F90200D1
:103070000B0039688A64CB6417E03B685033B42294
:10308000BA181168062218000AF0B9FE3B685622E9
:103090000021995409E0B423FB181B68180009F0BB
:1030A000FEF802003B689A65C046204B19000020DC
:1030B0000AF0BAFE0300B422BA181360B022BB189B
:1030C0001B680133BA181360B423FB181B68002B6C
:1030D00000D031E7B023FB181B680A2B02DC022367
:1030E0005B421CE0AF23FB181A781823FB18110071
:1030F0001800FFF781FE02000B0039680A614B617E
:10310000AE23FB181A780823FB1811001800FFF7EC
:1031100073FE02000B0039688A61CB61002318003E
:10312000BD462FB090BDC046DC0C0108E80C01087C
:103130008011010890B587B000AF3B1D084A13CA43
:1031400013C303CA03C33B1D0021180006F041FD51
:103150000200044B1A60C046BD4607B090BDC04691
:10316000FC0C0108BC09002080B582B000AF78607B
:103170005F49604BC822180006F048FC00F0D6F802
:103180005D4B1B78002B00D17EE05C4B1B68042B51
:1031900000D975E09A005A4BD3181B689F46594BCB
:1031A0001422002118000AF003FE574A554B110063
:1031B00018000AF044FF544B3222002118000AF094
:1031C000F7FD524B01221A705BE0514B1422002193
:1031D00018000AF0EDFD4C4A4D4B110018000AF0A2
:1031E0002EFF494B3222002118000AF0E1FD474B27
:1031F00001225A7045E0474B1422002118000AF0C2
:10320000D7FD414A434B110018000AF018FF3E4B0E
:103210003222002118000AF0CBFD3C4B01229A70AB
:103220002FE0394B180009F03AF803009AB2354BF9
:103230009A87354B3222002118000AF0B9FD334B32
:103240000122DA701DE0304B180009F028F8030065
:10325000DAB2314B1A70304B1B78012B02D0022BA3
:1032600004D006E02D4B01221A7002E002F069FF43
:10327000C046254B3222002118000AF099FD00E0DB
:10328000C0461D4B00221A70204B1A791F4B5B79E8
:103290001343DBB2002B17D01C4B00221A711B4BBF
:1032A00000225A711E4B1B681E4A1100180007F0BD
:1032B00006F8031E08D000F0D9FC194B186800234B
:1032C0000022002106F00EFE174B1B78002B0BD0BE
:1032D000642006F0A6FC064BC822002118000AF064
:1032E00067FD114B00221A700A2006F09AFC47E78E
:1032F000CC0900208C080020E607002040080020B0
:10330000AC11010868020020B4070020000500206D
:103310007C02002090020020E9070020E80700203E
:10332000C4090020B80B0000E707002080B500AFFB
:103330001820FFF7DDF9FA23DB00180006F071FC16
:103340001B20FFF7D5F9FA239B00180006F069FC53
:103350001C20FFF7CDF9FA239B00180006F061FC52
:103360001D20FFF7C5F9FA23DB00180006F059FC11
:1033700000F014F82020FFF7BBF9FA23DB00180057
:1033800006F04FFC2120FFF7B3F9FA23DB00180009
:1033900006F047FCC046BD4680BD0000F0B5C646FD
:1033A00000B5B8B006AFEF4B00221A80ED4B0022FB
:1033B0009A70EC4B04229A80EA4B01229A71E94BF5
:1033C000E94A1A81E74B14229A81E84AE84B100037
:1033D00019000B231A000AF045FEE24B02225A8123
:1033E000E04B1B881D00DF4B9B781E00DD4B9B884C
:1033F0001A00DC4B9B791C00DA4B1B89DD49380035
:1034000002930194009233002A000AF065FC3B000D
:103410001800FFF74BF8FA239B00180006F001FC98
:10342000D04B1B889C46CF4B9B789846CD4B5B89F5
:103430001A00CC4B9B791C00CA4B1B891D00C94B41
:103440009B891E00CC493800C84B04930396029513
:1034500001940092434662460AF03EFC3B0018008D
:10346000FFF724F8FA239B00180006F0DAFBBD4BA7
:10347000722200219952BB4B742201219954B94BFD
:10348000762204219952B74B782201219954B54BE9
:103490007A22BA499952B34B7E2214219952B84BE1
:1034A000B34A03CA03C31188198092789A70AD4B4E
:1034B0007C2202219952AB4B72229B5A1E00A94BCF
:1034C00074229B5C9C46A74B76229B5A1C00A54B02
:1034D00078229B5C1D00A34B7A229B5AA549380099
:1034E000029301950094634632000AF0F5FB3B001D
:1034F0001800FEF7DBFFFA239B00180006F091FB93
:10350000984B72229B5A9C46964B74229B5C984621
:10351000944B7C229B5A1C00924B78229B5C1D0092
:10352000904B7A229B5A1E008E4B7E229B5A1A0089
:1035300091493800924B04930392029601950094AE
:10354000434662460AF0C8FB3B001800FEF7AEFF98
:10355000FA239B00180006F064FB824BE422002152
:103560009952804BE622022199547E4BE822042195
:1035700099527C4BEA22012199547A4BEC228149E1
:103580009952784BF022142199527F4A784B1000BF
:1035900019000B231A000AF065FD724BEE2202217E
:1035A0009952704BE4229B5A1E006E4BE6229B5CA4
:1035B0009C466C4BE8229B5A1C006A4BEA229B5C9F
:1035C0001D00684BEC229B5A6A4938000293019512
:1035D0000094634632000AF07FFB3B001800FEF7C0
:1035E00065FFFA239B00180006F01BFB5D4BE422ED
:1035F0009B5A9C465B4BE6229B5C9846594BEE22BD
:103600009B5A1C00574BEA229B5C1D00554BEC2239
:103610009B5A1E00534BF0229B5A1A005649380001
:10362000594B0493039202960195009443466246D7
:103630000AF052FB3B001800FEF738FFFA239B000C
:10364000180006F0EEFA474AAB235B000021D15286
:10365000444AAC235B000321D154424AAD235B00B2
:103660000421D1523F4AAE235B000121D1543D4A8F
:10367000AF235B004549D1523A4AB1235B000A218E
:10368000D152434B3A4A03CA03C311881980927836
:103690009A70344AB0235B000221D152314AAB23E5
:1036A0005B00D35A1E002F4AAC235B00D35C9C46C0
:1036B0002C4AAD235B00D35A1C002A4AAE235B0080
:1036C000D35C1D00274AAF235B00D35A2949380039
:1036D000029301950094634632000AF0FDFA3B0024
:1036E0001800FEF7E3FEFA239B00180006F099FA93
:1036F0001C4AAB235B00D35A9C461A4AAC235B009E
:10370000D35C9846174AB0235B00D35A1C00154A75
:10371000AE235B00D35C1D00124AAF235B00D35A7B
:103720001E00104AB1235B00D35A1A001249380018
:10373000174B049303920296019500944346624608
:103740000AF0CAFA3B001800FEF7B0FEFA239B000D
:10375000180006F066FA034AE4235B000021D15208
:1037600018E0C0460805002011B1FFFF1605002033
:10377000380D0108440D0108600D010812B1FFFF6A
:103780008805002013B1FFFFFA05002014B1FFFFE8
:103790006C060020824AE5235B000421D154804A54
:1037A000E6235B000421D1527D4AE7235B0001211F
:1037B000D1547B4AE8235B007A49D152784AEA2304
:1037C0005B000521D152784A784B1000190009237B
:1037D0001A000AF047FC724AE9235B000221D15229
:1037E0006F4AE4235B00D35A1E006D4AE5235B0059
:1037F000D35C9C466A4AE6235B00D35A1C00684AA5
:10380000E7235B00D35C1D00654AE8235B00D35AC5
:1038100067493800029301950094634632000AF02C
:103820005BFA3B001800FEF741FEFA239B001800EC
:1038300006F0F7F95A4AE4235B00D35A9C46584AEB
:10384000E5235B00D35C9846554AE9235B00D35AD5
:103850001C00534AE7235B00D35C1D00504AE82359
:103860005B00D35A1E004E4AEA235B00D35A1A006B
:10387000504938004C4B04930392029601950094F2
:10388000434662460AF028FA3B001800FEF70EFE97
:10389000FA239B00180006F0C4F9414B464A002168
:1038A00099523F4A8F239B000521D1543C4B434AF8
:1038B000122199523A4A90239B000121D154384B4E
:1038C0003F4A40499952364B3F4A282199523F4A34
:1038D0003F4B110018000AF0B2FB314A91239B00C4
:1038E0000121D1522E4B344A9B5A1E002C4A8F2361
:1038F0009B00D35C9C462A4B304A9B5A1C00284AAA
:1039000090239B00D35C1D00254B2D4A9B5A2849D0
:103910003800029301950094634632000AF0DCF906
:103920003B001800FEF7C2FDFA239B00180006F0CA
:1039300078F91B4B204A9B5A9C46194A8F239B00BF
:10394000D35C9846164A91239B00D35A1C00144A14
:1039500090239B00D35C1D00114B194A9B5A1E00FB
:103960000F4B194A9B5A1A0012493800184B0493FE
:103970000392029601950094434662460AF0ACF920
:103980003B001800FEF792FDFA239B00180006F09A
:1039900048F9C046BD4632B080BCB846F0BDC0460E
:1039A0000805002015B1FFFFDE060020840D010888
:1039B000440D0108600D01083A0200003E020000BB
:1039C0004202000016B1FFFF46020000A8040020DA
:1039D0005007002080B586B000AF786039605A4B40
:1039E00001221A70594B3B613A697B68110018003B
:1039F0000AF07DFA03007B617B69002B01D1002373
:103A00009DE03B691800FCF789FB02007B699B186D
:103A10007B6102E07B6901337B617B691B78202B32
:103A2000F8D07B691B780D2BF4D07B691B780A2BAF
:103A3000F0D0474A7B69110018000AF0F5F903003D
:103A4000FB60FB68002B01D1002378E0FB681800C5
:103A500008F025FC02003B681A603D4B190000206D
:103A60000AF0E2F90300FB60FB68002B03D0FB685F
:103A70001B78222B01D0002361E0FB680133FB603F
:103A8000FB68222118000AF09BF90300BB60BB68A9
:103A9000002B01D1002352E0BB6800221A703B6862
:103AA0000433F9680D2218000AF0A9F9284B19000F
:103AB00000200AF0B9F90300FB60FB68002B01D17C
:103AC00000233CE0FB68180008F0E9FB02003B68BB
:103AD0005A61204B190000200AF0A6F90300FB6090
:103AE000FB68002B03D0FB681B78222B01D000233E
:103AF00025E0FB680133FB60FB68222118000AF017
:103B00005FF90300BB60BB68002B01D1002316E006
:103B1000BB6800221A703B681833F968322218001B
:103B20000AF06DF90C4A0D4B1100180000F01AF85C
:103B30000B4BC822002118000AF03AF901231800A3
:103B4000BD4606B080BDC046E6070020900D0108C6
:103B5000A00D0108A40D0108B4070020580800209A
:103B6000CC09002080B586B000AF786039607B68F2
:103B70001800FCF7D3FA03003B613B6901221340B4
:103B800001D0002349E000237B613BE07A687B6938
:103B9000D3181B785A1C234BD3181B781A004423C4
:103BA00013400CD07B6901337A68D3181B785A1CF8
:103BB0001C4BD3181B781A004423134001D1002357
:103BC0002BE07A687B69D3181A780C217B181A705D
:103BD0007B6901337A68D3181A787B185A707B187E
:103BE00000229A707B1810220021180009F016FBA1
:103BF00001007B695B083A68D318CAB21A707B6906
:103C000002337B617A693B699A42BFD33B695B08A7
:103C10003A68D31800221A7001231800BD4606B076
:103C200080BDC0465814010880B582B000AF7860EE
:103C300039600DE07B681B781A000B493B6818005F
:103C40000AF04AF83B6802333B607B6801337B60D3
:103C50007B681B78002BEDD13B6800221A70C046B0
:103C6000BD4602B080BDC046A80D0108B0B5D4B0B5
:103C700000AFB4243B1900221A60043361220021F2
:103C800018000AF095F8104B104A11498E256D0066
:103C900078190AF021F83A197B1911001800FFF77A
:103CA000C3FF7B191800FCF739FA02003B190949D8
:103CB00038000AF011F83B001800FEF7F7FBC04689
:103CC000BD4654B0B0BDC046B4040020A8040020D6
:103CD000B00D0108B80D010880B582B000AF786062
:103CE0007B681800FCF71AFA03009AB2FA239B00CB
:103CF0007968034803F06AFEC046BD4602B080BD45
:103D00002009002090B587B000AF3B1D084A13CAB8
:103D100013C303CA03C33B1D0021180005F059FF5C
:103D20000200044B1A60C046BD4607B090BDC046B5
:103D3000E00D0108B809002090B58BB000AF7860A5
:103D400001235B421900012007F07CFB03007B622A
:103D50007B6A002B00D156E2DB4B1800FFF7BCFF5B
:103D6000DA4B1B78272B00D9E8E19A00D84BD318FF
:103D70001B689F46642005F054FFD64AD24B1100C1
:103D80001800FEF77FFB031E00D12BE2D24B01226D
:103D90001A70CE4B00221A7024E2642005F041FF15
:103DA000C94B3B62CD492023FB181422180000F0B8
:103DB00041FAC64B00221A7025E2642005F031FF5B
:103DC000C14BFB61C6491C23FB181922180000F0E7
:103DD00031FABE4B00221A7015E2642005F021FF73
:103DE000B94BBB61BF491823FB181922180000F01A
:103DF00021FAB64B00221A70B34BC82200211800DA
:103E000009F0D6FFFFE1B84AAF4B11001800FEF7EA
:103E100039FB031E0BD0AD4B00221A70AF4B46226C
:103E200001219954B14B1800FFF756FFEBE1AB4B62
:103E30004622FF219954AE4B1800FFF74DFFE2E1F7
:103E4000A44AA14B11001800FEF71CFB031E0BD067
:103E50009E4B00221A70A14B472201219954A54B79
:103E60001800FFF739FFCEE19C4B4722FF21995400
:103E7000A14B1800FFF730FFC5E1964A924B1100A5
:103E80001800FEF7FFFA031E0BD0904B00221A70A9
:103E9000924B492201219954984B1800FFF71CFFBF
:103EA000B1E18E4B4922FF219954954B1800FFF741
:103EB00013FFA8E1874A844B11001800FEF7E2FACD
:103EC000031E0BD0814B00221A70844B4822012123
:103ED00099548C4B1800FFF7FFFE94E17F4B48226A
:103EE000FF219954884B1800FFF7F6FE8BE1794AC1
:103EF000754B11001800FEF7C5FA031E0BD0734B6B
:103F000000221A70754B4A22012199547F4B1800E8
:103F1000FFF7E2FE07E0714B4A22FF2199547C4BE8
:103F20001800FFF7D9FE6B4A674B11001800FEF727
:103F3000A9FA031E00D157E1644B00221A70754B99
:103F40001800FFF7C9FE4FE1734A5F4B11001800DC
:103F5000FEF798FA031E18D05C4B00221A705A4BD9
:103F60007B6114243B19180000F0D2F90300D9B288
:103F70005A4B4C2299543B19180000F0C9F9030020
:103F8000D9B2564B4B22995430E1644A4E4B110042
:103F90001800FEF777FA031E00D127E1604B1800E6
:103FA000FFF79AFE4D4B4C22FF2199544B4B4B226D
:103FB000FF2199541AE15B4A434B11001800FEF7A8
:103FC00061FA031E21D0414B00221A703E4B3B6127
:103FD00010243B19180000F09BF90300D9B23F4BA5
:103FE0004C2299543B19180000F092F90300D9B201
:103FF0003A4B4D2299543B19180000F089F90300FF
:10400000D9B2364B4E229954F2E0444A2E4B11005D
:104010001800FEF737FA031E00D1E9E0424B180002
:10402000FFF75AFE2D4B4C22FF2199542B4B4D226A
:10403000FF219954294B4E22FF219954D8E0374A49
:10404000214B11001800FEF71DFA031E00D1D1E02C
:10405000224B4F22FF219954344B1800FFF73CFEAE
:10406000C8E0334A184B11001800FEF70BFA031E84
:1040700000D1C1E02F4A144B11001800FEF71CFFBD
:10408000BAE0144A104B11001800FEF7FBF9031EAA
:1040900000D1B3E00D4B00221A70274B24220121DE
:1040A0009954ABE00B4A084B11001800FEF7EAF9EF
:1040B000031E00D1A4E0054B00221A701E4B2422DF
:1040C000002199549CE0C046CC090020A6020020A3
:1040D000C0110108F40D01083D080020EC07002084
:1040E0000008002019080020F80D0108000E010842
:1040F000140E01082C0E0108440E0108640E01087C
:10410000840E0108A00E0108B00E0108C00E0108BF
:10411000D00E0108EC0E0108080F0108140F010869
:104120001C0F0108480F0108540F01087C0F0108FB
:10413000A00F010808020020D8040020344A354BA3
:1041400011001800FEF79EF9031E14D0314BFB60DE
:104150000C243B19180000F0DBF80300D9B22E4BF9
:104160004C2299543B19180000F0D2F80300D9B240
:10417000294B50229954294A264B11001800FEF76A
:1041800081F9031E0BD0264B0122DA61254B012257
:104190001A70204BC8220021180009F009FE224A9B
:1041A0001C4B11001800FEF76DF9031E0BD01D4BC0
:1041B00001221A701A4B0022DA61164BC822002124
:1041C000180009F0F5FD194A124B11001800FEF70E
:1041D00059F9031E16D0164A0E4B11001800FFF7AE
:1041E000F9FB0FE0C0460EE0C0460CE0C0460AE016
:1041F000C04608E0C04606E0C04604E0C04602E013
:10420000C04600E0C0460A2005F00BFD98E5C04618
:10421000AC0F0108CC090020EC070020B80F010802
:10422000D8040020E7070020C40F0108D40F0108BC
:104230004008002080B588B000AFF860B9607A60AF
:10424000FB681B68FB610023BB6100237B6154E0BA
:104250002E49FB690922180009F0C0FD031E3DD15B
:10426000FB690933BB6102E0BB690133BB61BB6918
:104270001B78202BF8D0BB68002B27D07B68002B45
:1042800024D07B68013B7B600DE07A697B689A42B1
:1042900016D2BB695A1CBA617A69511C7961B96836
:1042A0008A181B781370BB691B78002B09D0BB6977
:1042B0001B780D2B05D0BB691B780A2BE5D100E0DC
:1042C000C046BA687B69D31800221A70FB68FA6985
:1042D0001A60012316E0FB690133FB61FB691B785F
:1042E000002B03D0FB691B780A2BF4D1FB691B78E8
:1042F0000A2B02D1FB690133FB61FB691B78002BA0
:10430000A6D100231800BD4608B080BDE40F010807
:1043100080B586B000AF786000237B611323FB1863
:1043200000221A707B681B68FB6002E0FB680133A7
:10433000FB60FB681B78002B0BD0FB681B782F2BD6
:1043400003D9FB681B78392B03D9FB681B782D2B0D
:10435000ECD1FB681B782D2B15D11323FB18012200
:104360001A70FB680133FB600DE07A6913009B0053
:104370009B185B001A00FB681B78303BD3187B61ED
:10438000FB680133FB60FB681B782F2B03D9FB68AC
:104390001B78392BE9D97B68FA681A601323FB185C
:1043A0001B78002B02D07B695B4200E07B69180020
:1043B000BD4606B080BD80B584B000AF786039607E
:1043C0000023FB600023BB607B68002B01D100232E
:1043D00019E07B681800FBF7A1FE03000133FB60C6
:1043E0003B681B68FA68100098470300BB60BB6815
:1043F000002B01D1002306E0FA687968BB68180039
:1044000009F030FEBB681800BD4604B080BD80B521
:1044100084B000AF78607B681B6828209847030051
:10442000FB60FB68002B05D0FB68282200211800E8
:1044300009F0BEFCFB681800BD4604B080BD00005A
:1044400080B584B000AF78600023FB6038E07B6803
:104450001B68FB607B68DA6880235B00134008D12F
:104460007B689B68002B04D07B689B681800FFF773
:10447000E7FF7B68DA6880235B00134009D17B6823
:104480001B69002B05D0124B5A687B681B6918000A
:1044900090477B68DA6880239B00134009D17B68D2
:1044A0001B6A002B05D00A4B5A687B681B6A1800F0
:1044B0009047074B5B687A6810009847FB687B6001
:1044C0007B68002BC3D1C046C046BD4604B080BD4A
:1044D0000000002080B500AF2E231800BD4680BD2F
:1044E00080B584B000AF786039600023FB600023A2
:1044F000BB607B68002B03D07B681B68002B01D15D
:10450000002386E07B685B68002B07D07B689A6895
:104510007B685B689A4201D300237AE03B68002BFA
:1045200001DA002375E07B689A683B68D318013391
:104530003B607B685B683A689A4205D87B681A687A
:104540007B689B68D31864E07B681B69002B01D0F3
:1045500000235EE03A688023DB059A4207D33B687C
:10456000002B02DB2D4BBB6004E0002351E03B68D5
:104570005B00BB607B681B6A002B19D07B681A6AE2
:104580007B681B68B968180090470300FB60FB68F4
:10459000002B34D17B68DA697B681B681800904770
:1045A0007B6800225A607B6800221A60002330E09A
:1045B0007B689B69BA68100098470300FB60FB6842
:1045C000002B0DD17B68DA697B681B681800904767
:1045D0007B6800225A607B6800221A60002318E082
:1045E0007B6819687B689B685A1CFB68180009F097
:1045F00039FD7B68DA697B681B68180090477B6827
:10460000BA685A607B68FA681A607B689B68FA68C7
:10461000D3181800BD4604B080BDC046FFFFFF7F21
:1046200090B585B000AF78600023FB607B68002BFD
:1046300014D07B681B68002B10D07B681A687B68DD
:104640009B68D318FB607B689C68FB681800FBF7CD
:1046500065FD0300E2187B689A6000E0C046BD4635
:1046600005B090BD80B586B000AF7860396000239A
:104670007B613B68013B3B6118E07B697A68D3183A
:104680001B78FB603B697A68D2187B697968CB1824
:1046900012781A703B697A68D318FA68D2B21A7025
:1046A0007B6901337B613B69013B3B617A693B6913
:1046B0009A42E2DBC046C046BD4606B080BD80B52A
:1046C00086B000AFB860F9607A603B6000237B6120
:1046D00019E0B868F9680A220023FBF7EFFED2B2AE
:1046E0007B69591C796119007B685B183032D2B242
:1046F0001A70B868F9680A220023FBF7DFFE02008F
:104700000B00BA60FB60BB68FA681343E1D107E0B5
:104710007B695A1C7A611A007B689B1830221A70D8
:104720007A693B689A42F3DB7A697B68110018006A
:10473000FFF798FF7B697A68D31800221A707B69AB
:104740001800BD4606B080BD80B582B000AF78606D
:1047500039600BE03B687A68D2183B6801337968AE
:10476000CB1812781A703B68013B3B603B68002B0A
:10477000F0D13B687A68D2183B6801337968CB186E
:1047800012781A70C046BD4602B080BDF0B597B031
:1047900000AF786139610023FB647B699A69DB694A
:1047A0003A647B64386C796CFBF7E4FE02000B0022
:1047B000BA63FB6300237B6500233B650C23102653
:1047C0009B19DB1900221A600433162200211800FD
:1047D00009F0EEFA27239B19DE19FFF77BFE030091
:1047E00033703B69002B01D1002344E13A6C7B6CB0
:1047F000386C796CFDF772FD031E20D13B6C1C00F8
:104800007B6C5B005D0801231E1C012252429C4B05
:1048100020002900FDF762FD031E0AD10122524249
:10482000974B20002900FBF72BFE031E01D100232C
:104830001E1CF3B201225340DBB2002B0BD0914A75
:104840000C2310215B18DB191100180009F044FA41
:1048500003007B65C5E000220023386C796CFBF710
:10486000FFFD031E06D00C2310229B18DB193022FB
:104870001A70ADE0B86BF96BFBF7B0FE3A6C7B6C6D
:10488000FDF7AAF902000B00100019000022002316
:10489000FBF7E6FD031E09D00C2310229B18DA1942
:1048A000B86BF96B0023FFF70AFF91E000220023A9
:1048B000386C796CFBF7DAFD031E6AD03B6CBB6089
:1048C0007B6C802212065A40FA60BB68FC683B642D
:1048D0007C64386C796CFBF74DFE02000B00BA6308
:1048E000FB63B86BF96BFBF779FE3A6C7B6CFDF7F9
:1048F00073F902000B001000190000220023FBF7DF
:10490000AFFD031E1AD00C2410256319DA19B86BF9
:10491000F96B0023FFF7D3FE6319DB191800FBF7CF
:10492000FDFB03001A006319DB1911001800FFF7E3
:104930000BFF6319DB192D221A7049E03B6C3B60B9
:104940007B6C802212065A407A603B687C683B642C
:104950007C6400224C4B386C796CFBF79BFD031E8A
:104960000BD03A6C7B6C49490C2010240019C019FB
:1049700009F0B2F903007B652AE03A6C7B6C44498C
:104980000C2010240019C01909F0A6F903007B655A
:104990001EE000223C4B386C796CFBF767FD031E70
:1049A0000BD03A6C7B6C39490C2010240019C019CB
:1049B00009F092F903007B650AE03A6C7B6C34499C
:1049C0000C2010240019C01909F086F903007B653A
:1049D0000C2310229B18DB191800FBF79FFB030028
:1049E0007B657B6D002B02DB7B6D192B01DD0023CA
:1049F00041E07B6D5A1C3B6911001800FFF770FD08
:104A00000300FB64FB6C002B01D1002333E0002387
:104A10003B6520E00C2310215B18DA193B6DD3189D
:104A20001B7827225218D21912789A4205D1FA6CB3
:104A30003B6DD3182E221A700AE0FA6C3B6DD31826
:104A40000C2210215218D1193A6D8A1812781A7056
:104A50003B6D01333B657B6D3A6D9A42DAD3FA6C5C
:104A60003B6DD31800221A703B699A687B6DD2188F
:104A70003B699A6001231800BD4617B0F0BDC046DF
:104A8000FFFFEF7FFC0F01080000E0430410010866
:104A90000C10010880B588B000AF78603960002341
:104AA000FB6100233B610023BB610023FB6000230B
:104AB0007B613B68002B01D10023E0E07B68002B89
:104AC00015D13B6803211800FFF70AFD03003B6185
:104AD0003B69002B01D10023D1E03A696A4B1000F9
:104AE000190003231A0009F0BDFA0123C7E07B680F
:104AF000FB6122E0FB691B78222B0DDC082B11DB0C
:104B0000083B624ADA401300012213405A1E9341C7
:104B1000DBB2002B02D105E05C2B03D17B690133B2
:104B20007B6107E0FB691B781F2B02D87B6905338B
:104B30007B61C046FB690133FB61FB691B78002B7D
:104B4000D8D1FA697B68D31A1A007B699B18FB607D
:104B5000FB68DA1C3B6811001800FFF7C1FC03007A
:104B60003B613B69002B01D1002388E07B69002B6E
:104B700017D13B6922221A703B690133FA687968C0
:104B8000180009F06FFAFB6801333A69D318222242
:104B90001A70FB6802333A69D31800221A70012395
:104BA0006DE03B6922221A703B690133BB617B686F
:104BB000FB6153E0FB691B781F2B0CD9FB691B7849
:104BC000222B08D0FB691B785C2B04D0FB691A7878
:104BD000BB691A703CE0BB695A1CBA615C221A704E
:104BE000FB691B78222B09DC082B25DB083B1A2BE1
:104BF00022D89A00264BD3181B689F465C2B1BD1EA
:104C0000BB695C221A7023E0BB6922221A701FE084
:104C1000BB6962221A701BE0BB6966221A7017E03A
:104C2000BB696E221A7013E0BB6972221A700FE022
:104C3000BB6974221A700BE0FB691B781A001549D6
:104C4000BB69180009F048F8BB690433BB61C04672
:104C5000FB690133FB61BB690133BB61FB691B78F5
:104C6000002BA7D1FB6801333A69D31822221A70AE
:104C7000FB6802333A69D31800221A700123180026
:104C8000BD4608B080BDC0461010010837000004C2
:104C9000601201081410010880B582B000AF78607E
:104CA00039607B681B693A6811001800FFF7F2FE53
:104CB00003001800BD4602B080BD0000B0B58EB044
:104CC00000AFF860B9607A6000237B6310243B1961
:104CD00024220021180009F06BF87B681A68424B07
:104CE0001B681800904702003B191A603E4B1A6877
:104CF0003B195A6025003B19BA685A617B197A68DA
:104D0000183313CA13C32C003B191B68002B4CD05B
:104D10003A19FB681100180000F07AF8031E46D01B
:104D20003B191800FFF77CFC7B689B68002B11D0B7
:104D30007B689A683B1918683B199B680133190016
:104D4000904703007B637B6B002B32D03B19002222
:104D50001A6028E07B681A6810243B199B680133AD
:104D60001800904703007B637B6B002B23D03B191B
:104D700019683B199B68581C3B195A6803009342F9
:104D800000D91300786B1A0009F06CF910217B1818
:104D90009B687A6BD31800221A707B685A687B185C
:104DA0001B68180090477B6B1AE0C04604E0C046C1
:104DB00002E0C04600E0C04610217B181B68002BB3
:104DC00005D07B685A687B181B68180090477B6B7E
:104DD000002B04D07B685B687A6B10009847002337
:104DE0001800BD460EB0B0BD5013010880B582B0AA
:104DF00000AF7860054A7B6801211800FFF75EFF6D
:104E000003001800BD4602B080BDC046000000206F
:104E100080B584B000AF786039600023FB607B68A8
:104E2000002B02D03B68002B01D10023A1E07B685E
:104E3000DB68FF221340802B5CD000DD98E0202B44
:104E40000ADC002B00DC93E0202B00D990E09A00D4
:104E50004A4BD3181B689F46402B00D180E087E067
:104E60003B6805211800FFF73BFB0300FB60FB6874
:104E7000002B01D100237CE0FA68414B100019009F
:104E800005231A0009F0EEF8012372E03B680621C1
:104E90001800FFF725FB0300FB60FB68002B01D126
:104EA000002366E0FA68374B1000190006231A0049
:104EB00009F0D8F801235CE03B6805211800FFF7F2
:104EC0000FFB0300FB60FB68002B01D1002350E0C7
:104ED000FA682D4B1000190005231A0009F0C2F8DA
:104EE000012346E03A687B6811001800FFF74EFC8A
:104EF00003003EE00023BB607B681B69002B01D1EF
:104F0000002336E07B681B691800FBF707F90300F4
:104F10000133BB60BA683B6811001800FFF7E0FA84
:104F20000300FB60FB68002B01D1002321E07B68BC
:104F30001969BA68FB68180009F094F8012318E0B1
:104F40003A687B6811001800FFF7A6FE030010E026
:104F50003A687B681100180000F018F8030008E0B8
:104F60003A687B681100180000F09EF8030000E02A
:104F700000231800BD4604B080BDC046CC12010815
:104F8000FC0F0108201001082810010880B586B028
:104F900000AF7860396000237B610023FB607B6891
:104FA0009B683B613B68002B01D1002378E03B68A4
:104FB00001211800FFF794FA03007B617B69002B45
:104FC00001D100236CE07B695B221A703B689B680F
:104FD0005A1C3B689A603B68DB685A1C3B68DA6085
:104FE00041E03A683B6911001800FFF711FF031E0A
:104FF00001D1002354E03B681800FFF711FB3B6927
:105000001B68002B2CD03B685B69002B01D002236E
:1050100000E00123FB60FB685A1C3B68110018008C
:10502000FFF75EFA03007B617B69002B01D100234F
:1050300036E07B695A1C7A612C221A703B685B69E6
:10504000002B04D07B695A1C7A6120221A707B697C
:1050500000221A703B689A68FB68D2183B689A6015
:105060003B691B683B613B69002BBAD13B6802215D
:105070001800FFF735FA03007B617B69002B01D133
:1050800000230DE07B695A1C7A615D221A707B69EE
:1050900000221A703B68DB685A1E3B68DA60012305
:1050A0001800BD4606B080BD80B588B000AF7860FE
:1050B00039600023FB610023FB607B689B68BB6158
:1050C0003B68002B01D1002316E13B685B69002B94
:1050D00001D0022300E00123FB60FB685A1C3B68FF
:1050E00011001800FFF7FCF90300FB61FB69002BBE
:1050F00001D1002300E1FB695A1CFA617B221A707E
:105100003B68DB685A1C3B68DA603B685B69002BD4
:1051100004D0FB695A1CFA610A221A703B689A682B
:10512000FB68D2183B689A60AAE03B685B69002B79
:1051300024D03B68DA683B6811001800FFF7D0F90B
:105140000300FB61FB69002B01D10023D4E00023A5
:105150007B6107E0FB695A1CFA6109221A707B69BE
:1051600001337B613B68DB687A699A42F2D33B6822
:105170009A683B68DB68D2183B689A60BB691B6A17
:105180003A6811001800FFF785FC031E01D10023C7
:10519000B2E03B681800FFF743FA3B685B69002BFD
:1051A00001D0022300E00123FB60FA683B68110094
:1051B0001800FFF795F90300FB61FB69002B01D193
:1051C000002399E0FB695A1CFA613A221A703B6885
:1051D0005B69002B04D0FB695A1CFA6109221A7022
:1051E0003B689A68FB68D2183B689A603A68BB696A
:1051F00011001800FFF70CFE031E01D100237BE015
:105200003B681800FFF70CFA3B685B69002B01D084
:10521000012200E00022BB691B68002B01D00123A2
:1052200000E00023D318FB60FB685A1C3B681100A8
:105230001800FFF755F90300FB61FB69002B01D152
:10524000002359E0BB691B68002B04D0FB695A1C82
:10525000FA612C221A703B685B69002B04D0FB6951
:105260005A1CFA610A221A70FB6900221A703B6804
:105270009A68FB68D2183B689A60BB691B68BB617F
:10528000BB69002B00D050E73B685B69002B03D063
:105290003B68DB68013300E002233A681900100024
:1052A000FFF71EF90300FB61FB69002B01D100230E
:1052B00022E03B685B69002B10D000233B6107E0D4
:1052C000FB695A1CFA6109221A703B6901333B6180
:1052D0003B68DB68013B3A699A42F1D3FB695A1C8F
:1052E000FA617D221A70FB6900221A703B68DB6844
:1052F0005A1E3B68DA6001231800BD4608B080BD25
:1053000080B582B000AF786039607B683A681A6017
:105310003B687A685A60C046BD4602B080BD80B521
:1053200084B000AF786039600023FB603B68002BDD
:1053300006D07B68002B03D07A683B689A4201D183
:1053400000231FE07B689B68FB60FB68002B09D192
:105350007B683A689A603B683A685A603B6800220A
:105360001A600EE0FB685B68002B0AD0FB685B6884
:105370003A6811001800FFF7C3FF7B689B683A6822
:105380005A6001231800BD4604B080BD80B582B0CC
:1053900000AF78607B681800BD4602B080BD000099
:1053A00080B586B000AFF860B9607A603B600023DA
:1053B0007B6100233B61FB68002B09D0BB68002B9D
:1053C00006D07B68002B03D0FA687B689A4201D133
:1053D00000233EE03B6A002B0CD0BB681800FFF7AF
:1053E000D5FF03007B617B68DB688022920013435A
:1053F0003B6111E03A68BB6811001800FEF7DBFF63
:1054000003007B617B69002B01D1002321E07B68D5
:10541000DB68124A13403B617B68DA6880239B009B
:10542000134009D17B681B6A002B05D03B685A6882
:105430007B681B6A180090477B687A691A627B68F0
:105440003A69DA607A68FB6811001800FFF767FFB5
:1054500003001800BD4606B080BDC046FFFDFFFF3B
:1054600090B589B002AFF860B9603A607B603A6885
:105470007B681000190000F03DF803007B610A4BC7
:105480007A69B968F86800240094FFF789FF031E61
:1054900001D07B6904E07B691800FEF7D1FF00238F
:1054A0001800BD4607B090BD0000002090B589B03F
:1054B00002AFF860B9607A607B68180000F060F8AD
:1054C00003007B610A4B7A69B968F868002400948C
:1054D000FFF766FF031E01D07B6904E07B691800BB
:1054E000FEF7AEFF00231800BD4607B090BDC046D2
:1054F0000000002080B584B000AF386079601B4B9D
:105500001800FEF784FF0300FB60FB68002B27D028
:10551000FB680822DA60F9683A687B688A61CB61C7
:10552000134A144B38687968FAF7BEFF031E03D09C
:10553000FB68114A5A6113E00022104B3868796801
:10554000FAF79EFF031E04D0FB68802212065A6100
:1055500006E038687968FCF7DFFE0200FB685A61F4
:10556000FB681800BD4604B080BDC04600000020A6
:105570000000C0FFFFFFDF41FFFFFF7F0000E0C131
:1055800080B584B000AF7860114B1800FEF73FFF84
:105590000300FB60FB68002B15D0FB681022DA606B
:1055A0000B4A7B6811001800FEF705FF0200FB683C
:1055B0001A61FB681B69002B05D1FB681800FEF718
:1055C0003FFF002300E0FB681800BD4604B080BD2B
:1055D0000000002080B582B000AF084B1800FEF735
:1055E00016FF03007B607B68002B02D07B684022A3
:1055F000DA607B681800BD4602B080BD0000002064
:1056000080B582B000AF7860064B01221A70064B5D
:105610001B780133DAB2044B1A70C046BD4602B0A3
:1056200080BDC046980A0020990A002080B584B049
:1056300000AF78600A00BB1C1A807B681B68114AA7
:1056400093421AD1104BBA1C12881A800023FB60B7
:105650000E4B1B680C22BA181100180005F034FF1D
:10566000FB68002B03D00A4B802252051A600949BF
:105670007B68C822180004F0C9F9C046BD4604B0D2
:1056800080BDC04600380140C8090020B80900208C
:1056900004ED00E0CC09002080B582B002AF00F03C
:1056A0003FFC00F03DF800F039F900F0E9F800F0B7
:1056B00099F803220021012004F0C4FB0200114BE1
:1056C0001A60104B1B68002B04D10F4B180008F018
:1056D000F3FA03E00D4B180008F0EEFA0C490D4800
:1056E0000D4B00930023012205F0E4FF02000B4B59
:1056F0001A60FCF7FBFEFEF705FBFDF71BFD04F04F
:1057000060FAFEE7C40900203010010850100108BB
:10571000102700006410010801560008C00900208D
:1057200090B593B000AF10243B19180038231A002D
:10573000002108F03DFB3B00180010231A00002157
:1057400008F036FB80239B00180000F06DFF3B192A
:105750000A221A603B1980225200DA6021007B186D
:1057600000221A617B1840225A617B1801229A613B
:105770007B180222DA617B1802221A627B1800224F
:105780005A627B1808229A627B1880229202DA629F
:105790007B18802292041A637B18802292055A6338
:1057A0007B18180000F08CFF031E01D000F018F9E0
:1057B0003B0007221A603B0002225A603B00002295
:1057C0009A603B000022DA603B000221180001F0E1
:1057D00091FA031E01D000F003F9C046BD4613B094
:1057E00090BD000080B500AF234B244A1A60224BC5
:1057F000E12252025A60204B00229A601E4B002286
:10580000DA601D4B00221A611B4B0C225A611A4BA5
:1058100000229A61184B0022DA61174B00221A62AB
:10582000154B00225A62144B00229A62124B180048
:1058300002F076F8031E01D000F0D2F80E4B0021E2
:10584000180004F061F8031E01D000F0C9F80A4BFB
:105850000021180004F098F8031E01D000F0C0F8F1
:10586000054B180004F016F8031E01D000F0B8F83C
:10587000C046BD4680BDC0468C08002000380140AF
:1058800080B500AF234B244A1A60224BE12252021A
:105890005A60204B00229A601E4B0022DA601D4B9A
:1058A00000221A611B4B0C225A611A4B00229A618A
:1058B000184B0022DA61174B00221A62154B0022A6
:1058C0005A62144B00229A62124B180002F028F818
:1058D000031E01D000F084F80E4B0021180004F0E4
:1058E00013F8031E01D000F07BF80A4B00211800CA
:1058F00004F04AF8031E01D000F072F8054B1800BE
:1059000003F0C8FF031E01D000F06AF8C046BD4690
:1059100080BDC046200900200044004090B589B0F9
:1059200000AF0C243B19180014231A00002108F0C2
:105930003FFA204B5A6B1F4B04210A435A631D4BFD
:105940005B6B04221340BB60BB681A4B5A6B194B4C
:1059500020210A435A63174B5B6B202213407B6064
:105960007B68144B5A6B134B01210A435A63114B4A
:105970005B6B012213403B603B683B198022920124
:105980001A603B19882252035A603B1900229A6020
:105990003B19094A1900100000F0A4FC0022032161
:1059A000072000F0A9FB072000F0BBFBC046BD4666
:1059B00009B090BD001002400008005080B582B0D0
:1059C00000AF78607B681B68044A934201D100F005
:1059D000C7FAC046BD4602B080BDC046004801407F
:1059E00080B500AF72B6C046FEE7000080B582B059
:1059F00000AF154B1A6C144B01210A431A64124B69
:105A00001B6C012213407B607B680F4BDA6B0E4BE3
:105A1000802149050A43DA630B4BDA6B80235B056F
:105A200013403B603B6802235B42002203211800C5
:105A300000F062FBC023DB00180000F0ADFAC046A6
:105A4000BD4602B080BDC0460010024090B599B07E
:105A500000AF78604C23FB18180014231A000021B3
:105A600008F0A6F918243B19180034231A00002165
:105A700008F09EF97B681B684D4A934246D13B195A
:105A800001221A603B1900225A603B19180001F0EC
:105A900005FB031E01D0FFF7A3FF464B1A6C454BD5
:105AA0008021C9010A431A64424B1A6C8023DB012E
:105AB00013407B617B693F4B5A6B3E4B04210A4389
:105AC0005A633C4B5B6B042213403B613B694C21A6
:105AD0007B1830221A607B1802225A607B18002241
