:020000040800F2
:10C0000000900020110E0108D90B0108DF0B010878
:10C010000000000000000000000000000000000020
:10C020000000000000000000000000001957010897
:10C030000000000000000000415801088958010874
:10C04000610E0108610E0108610E0108610E010810
:10C05000610E0108610E0108610E0108E50B01087F
:10C06000610E0108610E0108610E0108610E0108F0
:10C07000610E0108610E0108610E0108610E0108E0
:10C08000610E0108610E0108610E0108610E0108D0
:10C09000610E0108610E0108F90B0108610E01082B
:10C0A000610E0108610E0108610E0108110C010802
:0CC0B000650C0108610E0108610E01081A
:10C0C00010B5064C2378002B07D1054B002B02D06E
:10C0D000044800E000BF0123237010BDE8010020E8
:10C0E00000000000A88F0108044B10B5002B03D0FE
:10C0F0000349044800E000BF10BDC0460000000036
:10C10000EC010020A88F01080023C25C0133002A43
:10C11000FBD1581E7047000002B47146490849001F
:10C12000095C49008E4402BC7047C04603B47146A6
:10C13000490840004900095E49008E4403BC70472D
:10C14000002243088B4274D303098B425FD3030A56
:10C150008B4244D3030B8B4228D3030C8B420DD369
:10C16000FF22090212BA030C8B4202D312120902F7
:10C1700065D0030B8B4219D300E0090AC30B8B4235
:10C1800001D3CB03C01A5241830B8B4201D38B03E3
:10C19000C01A5241430B8B4201D34B03C01A524188
:10C1A000030B8B4201D30B03C01A5241C30A8B42CB
:10C1B00001D3CB02C01A5241830A8B4201D38B02B6
:10C1C000C01A5241430A8B4201D34B02C01A52415A
:10C1D000030A8B4201D30B02C01A5241CDD2C309CC
:10C1E0008B4201D3CB01C01A524183098B4201D348
:10C1F0008B01C01A524143098B4201D34B01C01A33
:10C20000524103098B4201D30B01C01A5241C308AA
:10C210008B4201D3CB00C01A524183088B4201D319
:10C220008B00C01A524143088B4201D34B00C01A05
:10C230005241411A00D20146524110467047FFE771
:10C2400001B5002000F0F0F802BDC0460029F7D08B
:10C2500076E7704703460B437FD4002243088B42A6
:10C2600074D303098B425FD3030A8B4244D3030B7D
:10C270008B4228D3030C8B420DD3FF22090212BA42
:10C28000030C8B4202D31212090265D0030B8B42BE
:10C2900019D300E0090AC30B8B4201D3CB03C01AA8
:10C2A0005241830B8B4201D38B03C01A5241430B83
:10C2B0008B4201D34B03C01A5241030B8B4201D373
:10C2C0000B03C01A5241C30A8B4201D3CB02C01ADE
:10C2D0005241830A8B4201D38B02C01A5241430A56
:10C2E0008B4201D34B02C01A5241030A8B4201D345
:10C2F0000B02C01A5241CDD2C3098B4201D3CB01EC
:10C30000C01A524183098B4201D38B01C01A52419A
:10C3100043098B4201D34B01C01A524103098B429E
:10C3200001D30B01C01A5241C3088B4201D3CB0089
:10C33000C01A524183088B4201D38B00C01A52416C
:10C3400043088B4201D34B00C01A5241411A00D21C
:10C3500001465241104670475DE0CA0F00D0494285
:10C36000031000D34042534000229C4603098B42F5
:10C370002DD3030A8B4212D3FC22890112BA030A7D
:10C380008B420CD3890192118B4208D389019211FF
:10C390008B4204D389013AD0921100E08909C30984
:10C3A0008B4201D3CB01C01A524183098B4201D386
:10C3B0008B01C01A524143098B4201D34B01C01A71
:10C3C000524103098B4201D30B01C01A5241C308E9
:10C3D0008B4201D3CB00C01A524183088B4201D358
:10C3E0008B00C01A5241D9D243088B4201D34B0073
:10C3F000C01A5241411A00D20146634652415B10B5
:10C40000104601D34042002B00D549427047634695
:10C410005B1000D3404201B5002000F005F802BDDA
:10C420000029F8D016E770477047C04684461000D0
:10C4300062468C461900634600E0C0461FB501F015
:10C440009BF8002801D40021C8421FBD10B500F0A0
:10C45000EBFF4042013010BD10B501F08DF800280F
:10C4600001DB002010BD012010BDC04610B501F059
:10C4700083F8002801DD002010BD012010BDC0465A
:10C4800010B501F013F8002801DC002010BD0120D8
:10C4900010BDC04610B501F009F8002801DA0020EF
:10C4A00010BD012010BDC046002B11D1002A0FD1B4
:10C4B000002900D1002802D00021C943080007B498
:10C4C000024802A14018029003BDC0465DFFFFFF75
:10C4D00003B4684601B5029800F08CF8019B9E46B3
:10C4E00002B00CBC7047C04670B500220C4B040073
:10C4F0000D00FFF7CFFF002804D12000290001F034
:10C5000001FF70BD064B00222000290001F05AFBFC
:10C5100001F0F8FE80231B069C466044F1E7C0460C
:10C520000000E04170B505000C0000220023280047
:10C530002100FFF791FF002808D12800210000F01A
:10C540000FF802000B001000190070BD80231B06BD
:10C55000E118280000F004F8002342428B41F2E782
:10C5600070B500220B4B0D00040001F069F8FFF7D5
:10C57000BBFF060001F02CFF0022074B01F060F822
:10C5800002000B002000290001F01CFBFFF7ACFFAC
:10C59000310070BD0000F03D0000F04170B50600B4
:10C5A000080001F0E5FE0022064B01F049F80D00FD
:10C5B0000400300001F00CFF2B00220000F0E6F830
:10C5C00070BDC0460000F04170B50600080001F0E3
:10C5D000FFFE0022064B01F033F80D00040030008E
:10C5E00001F0F6FE2B00220000F0D0F870BDC0462E
:10C5F0000000F041F0B557464E464546DE46E0B5F0
:10C6000004000D009246994683B08B4230D82DD05D
:10C610004946504601F020FF29000600200001F0A5
:10C620001BFF331A9846203B34D49B4653465A4648
:10C63000934042461F00534693401E00AF423BD8F2
:10C64000AF4200D179E05B46A41BBD41002B00DA6C
:10C6500076E0002200230092019301235A46934082
:10C660000193012342469340009329E08242CFD9AF
:10C6700000220023009201930C9B002B01D01C6030
:10C680005D600098019903B0F0BCBB46B246A94674
:10C69000A046F0BD42469B4620239B1A5246DA40F4
:10C6A000414613004A468A40170042461F435346FC
:10C6B00093401E00AF42C3D9002200230092019391
:10C6C0004346002BD8D0FB0772081A4346467B0826
:10C6D0000EE0AB4201D1A2420CD8A41A9D41012028
:10C6E00024196D410021013E24184D41002E06D031
:10C6F000AB42EED9013E24196D41002EF8D10098CD
:10C7000001995B4600196941002B24DB2B005A4636
:10C710004446D3402A00E2401C005B461500002B33
:10C720002ADB26009E40330026004746BE403200EA
:10C73000801A9941009001919EE7A342BCD882E7FC
:10C740004246202300219B1A0022009101920122DF
:10C75000DA40019285E7424620239B1A2A0046468A
:10C760009A402300F340444613432A00E2401C0051
:10C770005B461500002BD4DA42462F00202326000A
:10C7800097409B1ADE403B003343CDE7F0B54F4660
:10C790004646D6460400C0B51F000B0310004E00ED
:10C7A0005B0ACD0F610F7A001943E3003C03FF0FD2
:10C7B000BC46640A470F2743760D520DC000B946A8
:10C7C0008046B71A654500D19BE0002F00DC84E06D
:10C7D000002A00D1BEE0C84A964200D124E180225E
:10C7E0004C4612041443A146382F00DD67E11F2F89
:10C7F00000DDD6E120224C46D21B9440A24644469E
:10C80000FC4020005446044340469040421E904164
:10C810004A46FA400443891A1C1BA34292415242E1
:10C820008B1A9A4653461B0200D4D4E053465A0250
:10C83000530A9A465346002B00D104E1504601F0BA
:10C84000EDFD0300083B20222000D21A5146D040C3
:10C85000994002009C400A43B34200DA02E19B1B6C
:10C86000591C1F2900DDA7E02023100026005B1AB9
:10C870009C409840CE40CA40631E9C413043924643
:10C8800000260443630709D00F232340042B05D05F
:10C89000231DA342A4416442A2441C0053461B0230
:10C8A00000D49BE0944B01369E4200D1B8E0534641
:10C8B0009249E4080B4019005B07234372054C02C0
:10C8C000240B520D1205ED0722432A4318001100D4
:10C8D000E0BCBA46B146A846F0BD002F48D0971B31
:10C8E000002E00D00EE10C001C4300D1B7E17C1EED
:10C8F000012F00D126E2804DAF4200D1D5E12700C3
:10C9000007E1002F00DCB2E0002A47D07A4A9642C5
:10C9100000D189E080224C4612041443A146382FEE
:10C920006BDC1F2F00DC6EE13A004846203AD04015
:10C930008446202F07D040224846D21B9040020058
:10C940004046104380464046421E904162460400E5
:10C95000144357E04A46024300D103E17A1E012FF7
:10C9600000D193E1644CA74200D18AE117003BE774
:10C97000634C721C224200D0E0E00A001A43002EF1
:10C9800000D074E1002A00D1D0E14A46024300D031
:10C99000E3E14A07DB081343C90829E04A4602439A
:10C9A00000D17DE17A1E012F00D1E0E0524CA74278
:10C9B00000D166E11700B2E710001F3BD8402029E4
:10C9C00003D040235B1A9A401443631E9C4100230A
:10C9D00000269A460443630700D055E75246E30811
:10C9E0005207134352463700D108434A97421FD09B
:10C9F00009037A050C0B520D64E742464C4614437A
:10CA0000621E9441E4189C429241524292468A44EA
:10CA100053461B02DFD5384B01369E4200D0B3E0AF
:10CA20003200002400234DE74A07DB081343C908FE
:10CA30001A000A4300D100E2802424030C4324039B
:10CA40002D4A240B3EE7200001F0E8FC03001833D8
:10CA50001F2B00DCF7E62200083882400024B34296
:10CA600000DBFCE6F61A254B1A4092460AE7002F37
:10CA70002BD0971B002E00D1B8E01F4CA24200D152
:10CA80001CE1802424042143382F00DD1EE11F2FE8
:10CA900000DD9EE120260C00F61B1800B340B440D8
:10CAA000F8405E1EB341F94004431C4389444444AA
:10CAB00044459B415B424B449A461600A8E74246D8
:10CAC0004C461443621E9441A6E60D4C721C224251
:10CAD00000D0A8E00A001A43002E00D00AE1002A84
:10CAE00000D15EE14A46024300D061E14A07DB081B
:10CAF0001343C9087CE7C046FF070000FFFF7FFF24
:10CB0000FE070000CF4CA24200D1CEE080242404D6
:10CB10002143382F5BDC1F2F00DDDCE020250C00DB
:10CB2000ED1B1E00AB40AC40FE405D1EAB413443EC
:10CB3000F9401C434B465B1A99464CE04A461C1A86
:10CB4000881AA34292415242924602005046121A5B
:10CB50009246120278D45346234300D06AE600215D
:10CB6000002545E74A07DB081343C9083DE71C18C1
:10CB70009C429B4149448A465B429A445346012663
:10CB80001B0200D427E702265246AF4B01211A4070
:10CB90001300214062080A43DC075B089A461443ED
:10CBA00070E63A004C46203AD440A446202F07D0E5
:10CBB00040224846D21B9040020040461043804627
:10CBC0004046421E904162460400144324E6194345
:10CBD0000C00631E9C4143461C1BA0459B414946DB
:10CBE0005B42CB1A9A46654616001BE60C001C43B6
:10CBF00000D1C7E07C1E012F00D1F9E0914EB74271
:10CC00005CD0270040E720224C464046D21B94408F
:10CC1000F840044340469040421E90414A46FA4044
:10CC200004438918EEE6874CA24200D1F9E61818B1
:10CC300098429B4149445B42CB18DC0740085B08A3
:10CC40009A4616000443C6E64246D41AA0458041DF
:10CC50004B464042591A0B1A9A466546EAE54B463E
:10CC60004A46C0085B0765460343D108BDE6002A73
:10CC700000D08EE04B46034317D1802100250903E5
:10CC8000DAE64A07DB081343C908D1E61C1A4A460C
:10CC9000A3429B41891A5B42CB1A9A460126C1E501
:10CCA0004A07DB081343C9089FE64346D8084B46AA
:10CCB0004A465B0765460343D108B9E64346D808B0
:10CCC0004B464A465B070343D108B1E619430C00C3
:10CCD000631E9C41EBE63C000D00203CE540202F0C
:10CCE00003D04024E41BA1400B431C00631E9C4165
:10CCF0002C4370E7002AE1D04A460243C1D04A07DC
:10CD0000DB0813438022C9081203114208D04846A9
:10CD1000C408144204D143462100DB0842071343F0
:10CD20005A0FDB005207DB08134381E64B460343EF
:10CD300000D114E74B464A46C0085B0765460343EB
:10CD4000D10855E6C41AA04580414B464042591AC5
:10CD50000B1A9A466546012664E51C1A4A46A34208
:10CD600080418A1A4042121A9246120249D542461E
:10CD7000D41AA04580414B464042591A0B1A9A4694
:10CD800065467FE54B464A46C0085B070343D1082A
:10CD90002BE64A46DB08024338D14A071343C90849
:10CDA00046E64B464A46C0085B070343D1081FE6E8
:10CDB0001C189C429B4149448A465B429A44534614
:10CDC0001B0200D407E652461F4B01261A4092462A
:10CDD00001E63C000E00203CE640202F03D040241A
:10CDE000E41BA1400B431C00631E9C4134435EE6E0
:10CDF00043448342804149448A4640421C00824465
:10CE0000BCE65346234300D1A9E6E4E54A071343B1
:10CE10008022C9081203114209D04846C4081442AE
:10CE200005D1434665462100DB08420713435A0FEC
:10CE3000DB00DB0852071343FAE50023014A1C001C
:10CE400040E5C046FF070000FFFF7FFFF0B55746F3
:10CE50004E464546DE46E0B50C031F004B008146BA
:10CE60009246050085B0240B5B0DCE0F002B00D140
:10CE700052E1D24A934200D16EE1420FE4001443E2
:10CE80008022120422439046CD4AC50093469B441B
:10CE90000023994600933C037B005046240B5B0D16
:10CEA000FF0F002B00D11AE1C44A934200D15EE18A
:10CEB000420FE4002243802424041443C04AC100EA
:10CEC00094465A466344D31A9B46002033007B4065
:10CED0009A464B460F2B27D8BA4A9B00D3589F46F9
:10CEE000B246009B022B16D0032B00D187E2012B08
:10CEF00000D0D5E00023002200251B051343524635
:10CF0000D20713432800190005B0F0BCBB46B24657
:10CF1000A946A046F0BD00220025A84BEDE7BA4681
:10CF2000A0460D000090DCE7444500D2C4E100D1EA
:10CF3000BFE101235B429C462E0040460025E344AE
:10CF400023020C0E1C431B0C994623040A021F0CDF
:10CF5000494600920197FFF779F902007A430B04E2
:10CF6000310C804619438A4207D901235B429C4613
:10CF70000919E0448C4200D801E2881A4946FFF7BB
:10CF800065F9019A360442430904360C03000E4346
:10CF9000B24204D93619013BB44200D8E9E1B01AD3
:10CFA0004246009E12041A43330C1F00110C904697
:10CFB000029313043204160C32001B0C5A430396DE
:10CFC0007B434E437943170CBC469B1963449E42F6
:10CFD00003D980267602B44661441E0C71181604EB
:10CFE0001B04360C9E19884202D312D1B54210D2CE
:10CFF00043465A1E009B9C4665441F009D429B4130
:10D000005B421B19C018844200D29EE100D199E115
:10D010009046AE1BB542AD41401A6D42401B844262
:10D0200000D1D2E14946FFF711F9019A0B044243BE
:10D03000310C050019438A4200D96CE1881A49462F
:10D04000FFF704F9019A360442430904360C030041
:10D050000E43B24200D953E10398B61A02002D04E0
:10D060001D43029F2B041B0C5A437B439C46290CF7
:10D070004843130C844463447943984203D9802085
:10D08000400284466144180C12041B04120C401820
:10D090009B18864200D200E100D1FBE001231D4332
:10D0A000494B5B44002B00DCAAE06A0700D03DE15D
:10D0B000E9084246D20106D54246444B1A40802335
:10D0C0009046DB005B44424A934200DD23E7424640
:10D0D0005B05550752020D43120B5B0D0DE75146E0
:10D0E000214300D17CE0002C00D1FBE0200001F0C6
:10D0F00095F902000B3A1D239B1A52460100DA40B3
:10D10000534608398B408C4019001443314B584426
:10D110009B4683440020D9E603002343984644D02D
:10D12000002C00D1CFE0200001F078F901000200CE
:10D130000B391D235B1A49461000D940083884403A
:10D140000B004D46234398468540234B9B1A9B4634
:10D150000023994600939EE60200224390461DD18B
:10D1600008229B46022300259146009393E65146F0
:10D17000214309D102234A461A43184B91469C4643
:10D1800000240220E344A1E603234A461A43134B3A
:10D1900091469C4651460320E34497E60C229B4669
:10D1A0000323A0469146009375E604239946002385
:10D1B0009B460133002500936DE6C046FF07000043
:10D1C00001FCFFFF4C950108FF030000FFFFFFFE7D
:10D1D000FE070000F30300000DFCFFFF01F8FFFF56
:10D1E0004A4601231A439146002401206EE600239B
:10D1F00080229A460025884B12037EE601256D4267
:10D200000122D21A382A00DD74E61F2A00DCBDE0B4
:10D210001F214942CB1A4146D9400B00202A04D095
:10D2200041467E4A5A4491400D4329004A1E91418D
:10D23000194307231D0000220D400B4200D1D0E00E
:10D240000F2200230A40042A00D1C7E00A1D8A42A7
:10D25000894149425B1811001A0200D4BEE0012343
:10D260000022002549E6802243461203134208D0DB
:10D27000144206D122431203BA460D00664B120B2C
:10D280003BE68022434612031A431203B246624B26
:10D29000120B32E6002B00D102E7A6196A1EA64245
:10D2A00000D289E0864200D29FE000D1AFE01500B5
:10D2B000F4E6A94200D93CE64346DE0758086B086D
:10D2C0001E43ED073CE601F0A9F80100020015310C
:10D2D00020321C2900DC2CE74B460838834000250F
:10D2E000984632E701F09AF803001A001532203010
:10D2F0001C2A00DCFFE65446083B00219C4005E761
:10D300003619013BB44200D9A6E6B24200D8A3E6E2
:10D31000831E3619A0E60919013D8C4200D98DE61D
:10D320008A4200D88AE6851E091987E60F222A401C
:10D33000042A00D1BCE6291DA942AD416D42C908AD
:10D34000A844B6E6AF4200D962E6814204D800D0D4
:10D350005EE6AE4200D85BE602235B429C46009B41
:10D36000E0449C4665449D429B415B421B19C018AA
:10D370004FE6B24200D812E6831E36190FE68A4203
:10D3800000D8FAE5831E98460919F6E5244B2800D3
:10D390005B4441469D409940D0406B1E9D414346B1
:10D3A00001432943D3404A0700D155E70F220A40E1
:10D3B000042A00D04AE74FE71500864200D06DE608
:10D3C000009A9A4200D069E66AE6164B5B44002B4D
:10D3D00000DC13E701250021A8446AE65D075B0233
:10D3E0001A0BC90800230D4387E50099023D4A0046
:10D3F0008A42BF417F423F19F6190092DDE7802241
:10D40000434612031A431203034B120B75E50099AE
:10D410009942EAD31500D3E7FF0700003E0400005D
:10D420001E040000FF030000F0B54E464546DE46F0
:10D4300057469046E0B517001A03120B05008446C4
:10D4400019480E034C0091465A00DB0F9B46360BE1
:10D45000640DC90F520D844219D0824210D00120B0
:10D4600094420ED14E450CD10120C44509D15945F5
:10D4700017D0002C05D130002843431E984100E00E
:10D480000120F0BCBB46B246A946A046F0BD330021
:10D4900001202B43F5D1A242F3D14B463B43F0D1BF
:10D4A000E2E70020EDE7C046FF070000F0B5474681
:10D4B000CE460400180016001B031B0B2D4D4A001E
:10D4C000994680B543000F03A446B0463F0B520D6A
:10D4D000C90F5B0DC00FAA4221D0AB4213D0002A66
:10D4E00022D13C43002B02D14D462E4322D0002CAA
:10D4F00010D0814222D00220013908400138C0BC3E
:10D50000B946B046F0BD4D462E4329D1002AF0D190
:10D510003C43EED10028F2D101204042EFE73D002C
:10D5200025431DD19342EED0002BE2D14C46264339
:10D53000DFD1E0E70020002CE1D0DCE79A420ADCF2
:10D54000E8DB4F45D7D80ED000204F45D7D2002971
:10D55000E2D00800D3E74342584140000138CEE70B
:10D5600002204042CBE7C445C5D80020C445C6D2FE
:10D57000EDE7C046FF070000F0B54746CE46040081
:10D58000180016001B031B0B2C4D4A00994680B552
:10D5900043000F03A446B0463F0B520DC90F5B0D6D
:10D5A000C00FAA420DD0AB4210D0002A27D13C4375
:10D5B000002B11D14D462E430ED10020002C15D04A
:10D5C0000EE03D00254310D1934218D14D462E4325
:10D5D0000BD1002A02D13C43002C0BD0814214D045
:10D5E000022001390840013800E00220C0BCB946E1
:10D5F000B046F0BD0028F9D101204042F6E7002BEB
:10D60000ECD14C462643E9D1EAE79A4204DD434295
:10D61000584140000138E9E79A42EBDB4F45DFD83B
:10D6200006D000204F45E1D20029E5D00800DDE713
:10D63000C445D5D80020C445D8D2F5E7FF0700007F
:10D64000F0B54546DE4657464E46E0B51F000B0393
:10D650001B0B9B464D00CB0F04009146984687B0AC
:10D660006D0D00D1CDE1CE4B9D4200D1E9E15A468E
:10D67000430FD2001343802212041A43C3009A4678
:10D68000C84B93469C4600230026654400933C0308
:10D690007B004846240B5B0DFF0F002B00D189E176
:10D6A000BF4A934219D0420FE4002243802424044D
:10D6B0001443BC4A00219446424663445B190193DB
:10D6C000019B7A400133C000D2B202930A2E1CDDC6
:10D6D0003A000B2E5ED0474656E04946B04B2143F8
:10D6E000EB18019300292AD18020022200012B008F
:10D6F00084461643424663447A40D2B202930A2ECD
:10D7000000DD31E2002000240221022E26DC013E51
:10D71000012E52D802294CD0012900D018E1002353
:10D72000002400251B052343D207134328001900BA
:10D7300007B0F0BCBB46B246A946A046F0BD80216A
:10D74000032209012B008C461643424663447A406B
:10D75000D2B202930A2E00DD28E203210125B54052
:10D76000AC46A6266346F600354033420BD19026E0
:10D77000B600334218D1B93EFF3E1E421DD0A3462B
:10D780008246009100E0170000993A00022910D06B
:10D790005C4650460329BFD180231B031C4324034E
:10D7A00005007F4B240BBDE7802400227C4B240323
:10D7B000B8E7002400257A4BB4E753461E04360C24
:10D7C0001F0C3300010C0004000C43439846030077
:10D7D0007B43994633004B439C4643460D001B0C4C
:10D7E0009A467D43CC44D4440095E14504D9802336
:10D7F0005B0299464D44009563461B0C1D00634631
:10D800001B049C4643461B041B0C9846634643443A
:10D810000393230C984633002404240C63439C4652
:10D8200023007B43994643465E435F434E44634631
:10D83000B2461E0C5644B14503D980235B0299467B
:10D840004F44330C99463B004B4405936346AC462A
:10D850001F043F0C3604F619B444634604935B4638
:10D860001B0C9C465B461F043F0C3B004343994600
:10D87000634643439A464B4660461B0C9B464843CF
:10D880007943514459448A4503D980235B029A461F
:10D8900050440B0C9A464B461B041B0C99463B000C
:10D8A0006343090445464944994663465C436B43D8
:10D8B0009C464B461B0C98466F433F1947445044C7
:10D8C000BC4203D980235B029846C444049B009D5C
:10D8D00098464544B542B641734298464B461E04AD
:10D8E000059B3C049946360CA4194C44A14683463A
:10D8F0006E18C1448E428941CB445D4649426D1841
:10D900009C42A441C1459B41834580418D42894150
:10D910005B4264421C434042039B49420143700204
:10D920003F0C1843E419471EB84164186444F60DCF
:10D9300061023043EC0D6E020C433043C90100D448
:10D94000F1E00121430801400B43E007184364085C
:10D950001549029B8C466344002B00DC97E041078D
:10D9600009D00F210140042905D0011D81428041C9
:10D97000404224180800E10106D58021C9008C46E8
:10D980000A4B1C40029B634409498B4200DD10E7AF
:10D990006107C50864025B050D43240B5B0DC1E6FE
:10D9A000FF07000001FCFFFFFF030000FFFFFFFE79
:10D9B000FE0700004B46234359D0002C00D1A3E0C2
:10D9C000200000F02BFD010003000B391D22521A2C
:10D9D00049461800D1404A46083882408440100029
:10D9E0000C43744AEB1A9446424663440193019BEC
:10D9F0007A4001330021D2B202930A2E00DD67E69D
:10DA000083E65B4603439A462AD05B46002B6DD0E3
:10DA1000584600F003FD010003000B391D22521A85
:10DA2000210018005D46D140083885400A00844036
:10DA30002A439346A2465F4D0026ED1A0023009329
:10DA400025E65B4603439A4605D100239B460233F5
:10DA5000082600931BE6032382460C26009316E655
:10DA600000239B4601330426002500930FE642461F
:10DA7000013301951E43019B7A40013300240020AD
:10DA80000121D2B202930A2E00DD21E63DE60121FA
:10DA9000C91A382900DD42E61F2947DD1F26250067
:10DAA0007642F31ADD402B00202905D04249029D21
:10DAB0008C466544AC402043411E884118430723EF
:10DAC0001D000024054003424AD00F2300240340D8
:10DAD000042B42D0031D8342804140422418180089
:10DAE00023023AD50123002400251BE600F096FC12
:10DAF00001000300153120331C298FDD0838002276
:10DB000084409246A34696E700F088FC010003009B
:10DB1000153120331C2900DC58E702004C46083A36
:10DB2000002094405DE7019B029311E7234B260000
:10DB30009C460300029DCB406544AE401E4303005B
:10DB4000AB40581E834130001843CC404307C7D038
:10DB50000F230340042BBDD1C2E765076402240BE9
:10DB6000C00800230543DDE5002502230F2E0CD15C
:10DB700080245B46240323420ED021420CD10C4367
:10DB800024033A000E4B240BCCE50B2E00D0A2E56B
:10DB90008B46AA460093F7E580245B4624031C438A
:10DBA000240342465546064B240BBBE54D46210057
:10DBB0000323DBE70DFCFFFF3E0400001E04000012
:10DBC000FF070000F0B557464E464546DE46E0B535
:10DBD0000D000400190010002B035B0A620F1A43AA
:10DBE000E3000C03640A470F2743D04C6E009146B4
:10DBF00083B04A00C0009846A246760DED0F520D44
:10DC0000C90F0190A24200D1B9E0012461408B46C6
:10DC10008D4200D18DE0B41AA446002C00DCB7E0A0
:10DC2000002A00D1CBE0C14A964200D186E1802291
:10DC3000120417436246382A00DDA4E11F2A00DDE2
:10DC40001DE2614620223C00521A0100904094409F
:10DC5000421E90416246A0466446D7404A46E14093
:10DC60004446D21B91460C4304431C1BA3429241E1
:10DC70004B4652429B1A9A4653461B0200D42BE154
:10DC800053465A02530A9A465346002B00D166E186
:10DC9000504600F0C3FB0300083B20222000D21AAC
:10DCA0005146D040994002009C400A439E4200DD0C
:10DCB00064E19B1B591C1F2900DDFEE0202310009E
:10DCC00026005B1A9C409840CE40CA40631E9C418F
:10DCD0003043924600260443630709D00F232340B4
:10DCE000042B05D0231DA342A4416442A2441C007E
:10DCF00053461B0200D4F2E08C4B01369E4200D109
:10DD00000FE153468A49E4080B4019005B0723439F
:10DD100072054C02240B520D12052243ED072A43D3
:10DD20001800110003B0F0BCBB46B246A946A0469D
:10DD3000F0BDB41AA446002C59DD002A00D1B0E091
:10DD4000564500D1FAE08022120417436246382A71
:10DD500000DDD4E01F2A00DCC0E13900203AD140C8
:10DD60006246202A06D064464022121B3C009440A2
:10DD700004430194019C621E94410C43C3E03C00A7
:10DD800004432BD08B468D422ED06A4CA446B4441B
:10DD90006446002C5FD0941BA446002E00D020E1E6
:10DDA0004C461C4300D1C7E161464C1E012900D1FD
:10DDB00023E25E4DAC4500D1D8E1A4461AE13A0019
:10DDC000024300D1E4E02200013A012C00D1C3E17A
:10DDD00056498C4200D1B1E094462BE701246140C2
:10DDE0008B468D4200D016E752498C46B4446446B7
:10DDF000002C00D1D3E0911B8C46002E00D15EE1B7
:10DE00004A498A4200D1BEE180214C4609040C43B4
:10DE1000A1466146382900DDBAE11F2900DD27E26D
:10DE20002024641A4946A1401E0088466146A3404A
:10DE3000CE4041465C1EA341314319430C0063466A
:10DE40004946D9407F18241884429B415B429A4638
:10DE50001600BA445DE0384C721C224200D0DFE06C
:10DE60004A461A43002E00D05CE1002A00D1CFE1DF
:10DE70003A00024300D17FE11C1A4A46A34289417D
:10DE8000D21B4942521A9246120200D40AE2C41A24
:10DE9000A04280414B464042FF1A3B1A9A465D46DB
:10DEA0001AE73A00024373D02200013A012C00D154
:10DEB000CBE0544542D0944648E710001F3BD84081
:10DEC000202903D040235B1A9A401443631E9C41CF
:10DED000002300269A460443630700D0FEE652461C
:10DEE000E308520713435246B446D2080F498C4503
:10DEF0002AD01203140B62465205520D0CE73C0067
:10DF00000443621E9441E4189C42924152424A44A6
:10DF1000924653461B02DFD5044B01369E4200D089
:10DF2000A0E0320000240023F6E6C046FF07000010
:10DF3000FFFF7FFF01F8FFFFFE070000DB084A46F6
:10DF4000520713434A46D2081900114300D1B5E1E4
:10DF50008024240314432403D54A240BDCE6200048
:10DF600000F05CFA030018331F2B00DC95E622005A
:10DF70000838824000249E4200DC9AE6F61ACD4B17
:10DF80001A409246A8E63C000443621E94416CE6A7
:10DF90004A46DB08520713434A46D208A6E7C64C56
:10DFA000721C224200D0ACE04A461A43002E00D038
:10DFB00005E1002A00D156E13A00024300D1DBE03E
:10DFC0001C189C429B414F44BA465B429A445346BC
:10DFD0001B0200D480E75246B64B01261A409246F7
:10DFE0007AE7B34CA24200D1C0E080244D4624041D
:10DFF0002543A9466446382C53DC61461F2C00DDBE
:10E00000CDE020251E002D1B4C46AB40AC40CE4041
:10E010005D1EAB41344323434C46CC403F1B45E09F
:10E020004A461C1AD11BA3429241524292460A0010
:10E030005146521A9246120200D583E053462343BA
:10E0400000D021E60022002553E71C189C429B418A
:10E050004F44BA465B429A44534601261B0200D401
:10E060003AE702265246934B01211A401300214001
:10E0700062080A43DC075B089A4614432CE6390021
:10E08000203AD1406246202A06D064464022121B24
:10E090003C00944004430194019C621E94410C4353
:10E0A000E3E5494619430B005C1EA341C41AA04294
:10E0B0009B415B42FB1A9A465D461600DCE54946E9
:10E0C000194300D1AEE0614664460139012C00D10C
:10E0D000E0E0774CA44556D08C469AE66146202273
:10E0E0003C00521A944001009040A0466446421EF3
:10E0F00090416246E1404446D7400C430443B94452
:10E1000001E76B498A4200D10CE7181898429B41FD
:10E110004F445B42FB18DC0740085B089A46160038
:10E120000443D9E6002A00D081E03B0003431DD11F
:10E130008022002512030BE7C0087B075D460343DE
:10E14000FA08D3E6C41AA04280414B464042FF1A67
:10E150003B1A9A465D4697E51C1A4A46A3429B41E4
:10E16000D71B5B42FB1A9A46012685E5C0087B0750
:10E170005D460343FA08E7E64A46DB0852071343C5
:10E180004A46D208B5E6C0087B070343FA08DBE637
:10E19000494619430B00591E8B411C0053E64D465E
:10E1A000203CE540202905D04024641A4946A1407E
:10E1B0000B43984643465C1EA3412B4376E7002A57
:10E1C000E1D03A00DB08024300D1B8E64A465207E4
:10E1D000802413434A462403D208224207D0FE0873
:10E1E000264204D15D463200C3087F073B43590FE6
:10E1F000DB004907DB080B43A6E6C41AA0428041B6
:10E200004B464042FF1A3B1A9A465D46012633E5CB
:10E210003B00034300D115E7C0087B075D4603437D
:10E22000FA0866E6C0087B070343FA085EE63A0090
:10E23000DB08024300D182E64A465207802413439A
:10E240004A462403D208224207D0FE08264204D1BF
:10E250005D463200C3087F073B43590FDB00DB08F4
:10E2600049070B4370E6C0087B070343FA0840E602
:10E270004C462039CC406146202906D066464021D4
:10E28000891B4E468E40334398464346591E8B4168
:10E290001C43D8E51C18844280414F44BA46404292
:10E2A0008244D9E65346234300D1CBE614E6C04668
:10E2B000FF070000FFFF7FFFFE0700000023014A69
:10E2C0001C0029E5FF07000070B505000C481C0381
:10E2D00016005B000A034900120B490D240B5B0D6D
:10E2E000814208D0064A0020934203D120003043E7
:10E2F000431E984170BD01202A43FBD1F2E7C0467E
:10E30000FF0700000A0030B5134C53000903050055
:10E31000090B00205B0DD20FA34204DD0F4883429E
:10E3200002DD0F4BD01830BD8020400301430D4863
:10E33000C01A1F2808DD0C48C31AD9400B005842E8
:10E34000002AF0D11800EEE7084CC540A44663440B
:10E3500099400B002B43F2E7FE0300001D04000070
:10E36000FFFFFF7F3304000013040000EDFBFFFFFD
:10E3700070B5002816D0C317C5185D40C40F28001B
:10E3800000F04CF8114B1B1A0A2816DC02002E0074
:10E39000153296400B22121AD5405B052D032D0B2A
:10E3A0005B0D03E000240023002500261B052B4302
:10E3B000E40723433000190070BD0B3885405B052E
:10E3C0002D0300262D0B5B0DF0E7C0461E04000058
:10E3D00010B5041E10D000F021F80F4B1B1A0A28AC
:10E3E00011DC0B222100121AD14015300A035B0503
:10E3F0008440120B5B0D01E0002300221B05134338
:10E400002000190010BD22000B3882405B0512036A
:10E410000024120B5B0DF1E71E0400001C210123F8
:10E420001B04984201D3000C10391B0A984201D3F7
:10E43000000A08391B09984201D30009043902A2D5
:10E44000105C40187047C04604030202010101013C
:10E45000000000000000000010B5002903D1FFF704
:10E46000DDFF203002E00800FFF7D8FF10BDC046F6
:10E4700080B582B000AF786039603A687B6811007F
:10E48000180008F080FD031E01D0012300E00023E6
:10E490001800BD4602B080BD80B582B000AF786084
:10E4A0007B681800FDF730FE03009AB2FA239B0048
:10E4B0007968074804F016FAFA239B0005490448D6
:10E4C000022204F00FFAC046BD4602B080BDC0462D
:10E4D000C0040020C08F010890B5B9B004AF02009D
:10E4E000FB1D1A70FB1D1B78292B00D95BE19A00DC
:10E4F000AF4BD3181B689F46AE4B1800FFF7CCFFFD
:10E50000AD4B00221A704FE1AB4B01221A70AB4B9E
:10E510001800FFF7C1FF47E1A74B04221A70A84B70
:10E520001800FFF7B9FF3FE1A64B1800FFF7B4FF53
:10E530003AE1A54B1800FFF7AFFF35E19E4B0522EE
:10E540001A70A24B1800FFF7A7FF2DE19A4B062285
:10E550001A709F4B1800FFF79FFF25E1964B092289
:10E560001A709C4B1800FFF797FF1DE1924B082291
:10E570001A70994B1800FFF78FFF15E18E4B0A2296
:10E580001A70964B1800FFF787FF0DE18A4B09229E
:10E590001A70934B1800FFF77FFF05E1864B0A22A4
:10E5A0001A70904B1800FFF777FFFDE0824B0D22A9
:10E5B0001A708D4A8D4908243B19180008F0E6FBB3
:10E5C0003B191800FFF768FFEEE07B4B0E221A7034
:10E5D000874B1800FFF760FFE6E0864B1800FFF757
:10E5E0005BFFE1E0744B10221A70834908243B1949
:10E5F0000022180008F0CAFB3B191800FFF74CFF77
:10E60000D2E06D4B11221A707C4B7D4908243819D9
:10E610007C4A0092002208F0B9FB3B191800FFF772
:10E620003BFFC1E0644B13221A70774A77490824F4
:10E630003819774B0193764B00931300002208F0B2
:10E64000A5FB3B191800FFF727FFADE05A4B152239
:10E650001A70704B70490824381901220092002268
:10E6600008F094FB3B191800FFF716FF9CE0524B93
:10E6700016221A70694B1800FDF746FD0300684921
:10E68000082438190393674B029300230193012355
:10E6900000930123002208F079FB3B191800FFF7D3
:10E6A000FBFE642006F055FA5C4B1800FFF7F4FE01
:10E6B0007AE0414B18221A705B4B1800FFF7ECFE12
:10E6C00072E03D4B19221A70584B1800FFF7E4FE18
:10E6D0006AE0394B1B221A705549082438197823EF
:10E6E0003C2208F053FB3B191800FFF7D5FE5BE016
:10E6F000314B1D221A704F4B1800FFF7CDFE53E02F
:10E700002D4B1E221A704C4A4C4908243B19180004
:10E7100008F03CFB3B191800FFF7BEFE44E0264B17
:10E720001F221A70464B1800FFF7B6FE3CE0224B42
:10E7300020221A70434B1800FFF7AEFE34E01E4B48
:10E7400021221A70404B1800FFF7A6FE2CE01A4B4E
:10E7500022221A703D4B1800FFF79EFE24E0164B54
:10E7600023221A703A4B1800FFF796FE1CE0394B33
:10E770001800FFF791FE17E0374B1800FFF78CFEEB
:10E7800012E0364B1800FFF787FE0DE00A4B2822F7
:10E790001A70334B1800FFF77FFE05E0314B18006D
:10E7A000FFF77AFE00E0C046C046BD4635B090BDDA
:10E7B0008C950108C48F010868020020C88F0108E9
:10E7C000CC8F0108D48F0108DC8F0108E48F010889
:10E7D000EC8F0108F88F01080490010810900108DF
:10E7E0001C90010828900108349001084490010809
:10E7F0005C900108689001086C90010888900108FD
:10E800009C9001085B070000B4900108C0900108CB
:10E81000E0900108F09001080C9101086C020020C2
:10E8200024910108449101085C9101086891010854
:10E830007491010894910108F0AB0000C0910108A7
:10E84000D8910108F491010820920108349201083E
:10E85000409201084C9201086892010874920108E4
:10E86000809201089092010880B500AF0120FFF767
:10E8700033FE96235B00180006F06BF90420FFF7C7
:10E880002BFE96235B00180006F063F90520FFF7C6
:10E8900023FE96235B00180006F05BF9C046BD46D8
:10E8A00080BD80B500AF0620FFF716FE96235B0003
:10E8B000180006F04EF90920FFF70EFE96235B00C4
:10E8C000180006F046F90D20FFF706FE96235B00C0
:10E8D000180006F03EF90A20FFF7FEFD96235B00C4
:10E8E000180006F036F90E20FFF7F6FD96235B00C0
:10E8F000180006F02EF9C046BD4680BD80B500AFB9
:10E900000F20FFF7E9FD96235B00180006F021F9C0
:10E91000C046BD4680BD80B500AF1020FFF7DCFDCE
:10E9200096235B00180006F014F91120FFF7D4FDC0
:10E93000FA23DB00180006F00CF91320FFF7CCFDDA
:10E94000FA23DB00180006F004F91520FFF7C4FDD8
:10E95000FA23DB00180006F0FCF8C046BD4680BD77
:10E9600080B500AF00F04CF8642006F0F2F81620F5
:10E97000FFF7B2FD96235B00180006F0EAF8C046E8
:10E98000BD4680BD80B500AF1B4B50229B5C052B64
:10E990002DD89A00194BD3181B689F46164B50224E
:10E9A00000219954FFF7AAFFFFF7B5FF20E0124BB3
:10E9B000502200219954FFF7A1FFFFF7ACFF17E0A9
:10E9C0000D4B502200219954FFF798FFFFF7A3FF4A
:10E9D0000EE0094B502200219954FFF78FFFFFF7FB
:10E9E0009AFF05E0044B50220021995400E0C046F4
:10E9F000C046BD4680BDC0466C0400203496010868
:10EA000080B582B000AF01F09DFD03007B607B68A4
:10EA1000002B04D1194B180000F0DAF92AE0184B4A
:10EA20001B681800FFF7A4FC02000B00154978686A
:10EA300001F01CFD7B68180001F0DEF903003B606B
:10EA40003B68002B0ED0104A3968104B180008F0B4
:10EA500022FA0E4B0C4A002199543B68180007F02B
:10EA600017F903E00A4B180000F0B2F97B681800B0
:10EA700000F0ECFCBD4602B080BDC0469C9201088F
:10EA800054060020BC920108FF0100006C02002027
:10EA9000C8920108F0B58DB000AFF8600A000B26EF
:10EAA000BB191A70FB68180007F0DCF802000B00B5
:10EAB000BA62FB620022254BB86AF96AFEF7C6F912
:10EAC00002000B0010001900FFF71CFC03007B6222
:10EAD0007B6A642253431800FFF74AFC02000B00D4
:10EAE000B86AF96AFFF76EF802000B00BA61FB61C1
:10EAF000786AFFF73DFC386079600022144BB869F2
:10EB0000F969FEF7A3F902000B0038687968FDF790
:10EB10003DFE02000B003A617B61BB191B78532B51
:10EB200003D0BB191B78572B07D13B691C007B69AD
:10EB3000802212065A40150001E03C697D692200DE
:10EB40002B0010001900BD460DB0F0BD000059406B
:10EB500000004E4090B5AFB000AF78603960994A80
:10EB60007B681100180008F00EFA0300A822B918FB
:10EB70000B60BB181B68002B02D101235B421CE118
:10EB8000A822BB181B680A33B9180B60BB18196898
:10EB900028243B197F22180008F07DF920003B183B
:10EBA0007F2200219954884A3B181100180008F070
:10EBB00087F90300B422BA1813600023B022BA18F0
:10EBC0001360AF23FB184E221A70AE23FB184522A8
:10EBD0001A70C7E0B022BB181B680A2B00D9B2E03C
:10EBE000BB181B689A00794BD3181B689F463B687B
:10EBF000B422BA1811680A22180008F04CF93B68D0
:10EC000000229A729FE0B423FB18196818243B195C
:10EC10000F22180008F03FF93B190022DA733B1964
:10EC20001800FDF771FA03005A1EAF23FB183919BB
:10EC30008A5C1A703B191800FDF766FA0300013B65
:10EC40003A190021D1547EE0B423FB181968082436
:10EC50003B190F22180008F01EF93B190022DA7345
:10EC60003B191800FDF750FA03005A1EAE23FB189B
:10EC700039198A5C1A703B191800FDF745FA030030
:10EC8000013B3A190021D1545DE0B423FB181B6805
:10EC9000180006F0E7FF02000B0039680A624B62B9
:10ECA00051E0B423FB181B68180006F0DBFF0200DC
:10ECB0000B0039688A62CB6245E0B423FB181B68FD
:10ECC000180006F0D4FF02003B681A633BE0B4234F
:10ECD000FB181B68180006F0C5FF02000B0039681E
:10ECE0008A63CB632FE0B423FB181B68180006F07F
:10ECF000B9FF02000B0039680A644B6423E0B423B7
:10ED0000FB181B68180006F0ADFF02000B00396805
:10ED10008A64CB6417E03B685033B422BA18116898
:10ED20000622180008F0B7F83B68562200219954D3
:10ED300009E0B423FB181B68180006F098FF0200D6
:10ED40003B689A65C046204B1900002008F0B8F8CF
:10ED50000300B422BA181360B022BB181B68013339
:10ED6000BA181360B423FB181B68002B00D031E7DE
:10ED7000B023FB181B680A2B02DC02235B421CE059
:10ED8000AF23FB181A781823FB1811001800FFF79F
:10ED900081FE02000B0039680A614B61AE23FB184B
:10EDA0001A780823FB1811001800FFF773FE020001
:10EDB0000B0039688A61CB6100231800BD462FB073
:10EDC00090BDC046E4920108F09201084C960108FB
:10EDD00080B582B000AF78607B681800FDF794F9C9
:10EDE00003009AB2FA239B007968034803F07AFD86
:10EDF000C046BD4602B080BD5405002090B587B026
:10EE000000AF3B1D084A13CA13C303CA03C33B1D0B
:10EE10000021180005F075FE0200044B1A60C04680
:10EE2000BD4607B090BDC04600930108EC05002028
:10EE300090B58BB000AF786001235B4219000120D0
:10EE400006F01AFB03007B627B6A002B00D1F2E123
:10EE5000DB4B1800FFF7BCFFDA4B1B78282B00D9DF
:10EE600086E19A00D84BD3181B689F46642005F0B2
:10EE700070FED64AD24B11001800FFF7F9FA031EB4
:10EE800000D195E1D24B01221A70CE4B00221A70AC
:10EE90008EE1642005F05DFEC94B3B62CD49202325
:10EEA000FB181422180000F0CBF9C64B00221A7090
:10EEB000C1E1642005F04DFEC14BFB61C6491C2336
:10EEC000FB181922180000F0BBF9BE4B00221A7083
:10EED000B1E1642005F03DFEB94BBB61BF49182389
:10EEE000FB181922180000F0ABF9B64B00221A707B
:10EEF000B34B64220021180007F0B4FF9BE1B84A2D
:10EF0000AF4B11001800FFF7B3FA031E0BD0AD4B47
:10EF100000221A70AF4B462201219954B14B1800C0
:10EF2000FFF756FF87E1AB4B4622FF219954AE4BCA
:10EF30001800FFF74DFF7EE1A44AA14B1100180015
:10EF4000FFF796FA031E0BD09E4B00221A70A14BBE
:10EF5000472201219954A54B1800FFF739FF6AE1B8
:10EF60009C4B4722FF219954A14B1800FFF730FF1B
:10EF700061E1964A924B11001800FFF779FA031EDF
:10EF80000BD0904B00221A70924B492201219954C8
:10EF9000984B1800FFF71CFF4DE18E4B4922FF21D3
:10EFA0009954954B1800FFF713FF44E1874A844BAF
:10EFB00011001800FFF75CFA031E0BD0814B0022F2
:10EFC0001A70844B4822012199548C4B1800FFF78A
:10EFD000FFFE30E17F4B4822FF219954884B1800F7
:10EFE000FFF7F6FE27E1794A754B11001800FFF78D
:10EFF0003FFA031E0BD0734B00221A70754B4A2246
:10F00000012199547F4B1800FFF7E2FE07E0714B96
:10F010004A22FF2199547C4B1800FFF7D9FE6B4A16
:10F02000674B11001800FFF723FA031E00D1C1E05F
:10F03000644B00221A70754B1800FFF7C9FEB9E047
:10F04000734A5F4B11001800FFF712FA031E18D025
:10F050005C4B00221A705A4B7B6114243B19180038
:10F0600000F05CF90300D9B25A4B4C2299543B1979
:10F07000180000F053F90300D9B2564B4B229954B3
:10F080009AE0644A4E4B11001800FFF7F1F9031E95
:10F0900000D191E0604B1800FFF79AFE4D4B4C22D7
:10F0A000FF2199544B4B4B22FF21995484E05B4A3A
:10F0B000434B11001800FFF7DBF9031E21D0414B31
:10F0C00000221A703E4B3B6110243B19180000F0DF
:10F0D00025F90300D9B23F4B4C2299543B19180033
:10F0E00000F01CF90300D9B23A4B4D2299543B1958
:10F0F000180000F013F90300D9B2364B4E22995490
:10F100005CE0444A2E4B11001800FFF7B1F9031ED2
:10F1100054D0434B1800FFF75BFE2E4B4C22FF21CF
:10F1200099542C4B4D22FF2199542A4B4E22FF21FA
:10F13000995443E0374A224B11001800FFF798F921
:10F14000031E07D0234B4F22FF219954354B180043
:10F15000FFF73EFE344A1A4B11001800FFF788F9FA
:10F16000031E05D0314A164B11001800FFF7F2FCC0
:10F170002F4A134B11001800FFF77AF9031E59D0DC
:10F180000F4BFB600C243B19180000F0C7F803007C
:10F19000D9B2104B4C2299543B19180000F0BEF81C
:10F1A0000300D9B20B4B50229954FFF7EBFB41E01F
:10F1B000C04640E0C0463EE0C0463CE0C0463AE0C3
:10F1C000F0050020680200207896010814930108D9
:10F1D000BD0400206C04002080040020990400205D
:10F1E0001893010820930108349301084C930108F7
:10F1F0006493010884930108A4930108C093010853
:10F20000D0930108E0930108F09301080C940108E1
:10F2100028940108349401083C940108689401087A
:10F22000749401089C940108C0940108080200200D
:10F23000CC940108C0460A2005F08BFCFCE5C046D2
:10F2400080B588B000AFF860B9607A60FB681B6871
:10F25000FB610023BB6100237B6154E02E49FB6905
:10F260000922180007F006FE031E3DD1FB69093391
:10F27000BB6102E0BB690133BB61BB691B78202B1A
:10F28000F8D0BB68002B27D07B68002B24D07B688C
:10F29000013B7B600DE07A697B689A4216D2BB69BC
:10F2A0005A1CBA617A69511C7961B9688A181B784D
:10F2B0001370BB691B78002B09D0BB691B780D2B21
:10F2C00005D0BB691B780A2BE5D100E0C046BA68BF
:10F2D0007B69D31800221A70FB68FA691A6001234F
:10F2E00016E0FB690133FB61FB691B78002B03D03F
:10F2F000FB691B780A2BF4D1FB691B780A2B02D11E
:10F30000FB690133FB61FB691B78002BA6D100234D
:10F310001800BD4608B080BDD894010880B586B0FD
:10F3200000AF786000237B611323FB1800221A7062
:10F330007B681B68FB6002E0FB680133FB60FB68D5
:10F340001B78002B0BD0FB681B782F2B03D9FB6895
:10F350001B78392B03D9FB681B782D2BECD1FB686C
:10F360001B782D2B15D11323FB1801221A70FB6873
:10F370000133FB600DE07A6913009B009B185B0072
:10F380001A00FB681B78303BD3187B61FB680133A4
:10F39000FB60FB681B782F2B03D9FB681B78392B8C
:10F3A000E9D97B68FA681A601323FB181B78002BD5
:10F3B00002D07B695B4200E07B691800BD4606B065
:10F3C00080BD80B584B000AF786039600023FB60F9
:10F3D0000023BB607B68002B01D1002319E07B6810
:10F3E0001800FCF791FE03000133FB603B681B68CB
:10F3F000FA68100098470300BB60BB68002B01D17E
:10F40000002306E0FA687968BB68180007F05FFE21
:10F41000BB681800BD4604B080BD80B584B000AFA5
:10F4200078607B681B68282098470300FB60FB68B6
:10F43000002B05D0FB6828220021180007F012FDE0
:10F44000FB681800BD4604B080BD000080B584B0E4
:10F4500000AF78600023FB6038E07B681B68FB60CE
:10F460007B68DA6880235B00134008D17B689B6867
:10F47000002B04D07B689B681800FFF7E7FF7B68D0
:10F48000DA6880235B00134009D17B681B69002B7D
:10F4900005D0124B5A687B681B69180090477B683F
:10F4A000DA6880239B00134009D17B681B6A002B1C
:10F4B00005D00A4B5A687B681B6A18009047074BB7
:10F4C0005B687A6810009847FB687B607B68002B5C
:10F4D000C3D1C046C046BD4604B080BD0000002078
:10F4E00080B500AF2E231800BD4680BD80B584B026
:10F4F00000AF786039600023FB600023BB607B684D
:10F50000002B03D07B681B68002B01D1002386E011
:10F510007B685B68002B07D07B689A687B685B68B8
:10F520009A4201D300237AE03B68002B01DA0023E2
:10F5300075E07B689A683B68D31801333B607B6851
:10F540005B683A689A4205D87B681A687B689B6852
:10F55000D31864E07B681B69002B01D000235EE0B8
:10F560003A688023DB059A4207D33B68002B02DB15
:10F570002D4BBB6004E0002351E03B685B00BB60A7
:10F580007B681B6A002B19D07B681A6A7B681B6832
:10F59000B968180090470300FB60FB68002B34D16A
:10F5A0007B68DA697B681B68180090477B680022DB
:10F5B0005A607B6800221A60002330E07B689B69F8
:10F5C000BA68100098470300FB60FB68002B0DD160
:10F5D0007B68DA697B681B68180090477B680022AB
:10F5E0005A607B6800221A60002318E07B68196863
:10F5F0007B689B685A1CFB68180007F068FD7B68F5
:10F60000DA697B681B68180090477B68BA685A60A3
:10F610007B68FA681A607B689B68FA68D3181800E0
:10F62000BD4604B080BDC046FFFFFF7F90B585B0EA
:10F6300000AF78600023FB607B68002B14D07B68F0
:10F640001B68002B10D07B681A687B689B68D318F6
:10F65000FB607B689C68FB681800FCF755FD0300A5
:10F66000E2187B689A6000E0C046BD4605B090BDD8
:10F6700080B586B000AF7860396000237B613B685D
:10F68000013B3B6118E07B697A68D3181B78FB600B
:10F690003B697A68D2187B697968CB1812781A703E
:10F6A0003B697A68D318FA68D2B21A707B69013361
:10F6B0007B613B69013B3B617A693B699A42E2DBD2
:10F6C000C046C046BD4606B080BD80B586B000AF1E
:10F6D000B860F9607A603B6000237B6119E0B8682C
:10F6E000F9680A220023FCF7DFFED2B27B69591CBD
:10F6F000796119007B685B183032D2B21A70B86831
:10F70000F9680A220023FCF7CFFE02000B00BA6062
:10F71000FB60BB68FA681343E1D107E07B695A1CC0
:10F720007A611A007B689B1830221A707A693B68EC
:10F730009A42F3DB7A697B6811001800FFF798FFA3
:10F740007B697A68D31800221A707B691800BD465D
:10F7500006B080BD80B582B000AF786039600BE044
:10F760003B687A68D2183B6801337968CB18127805
:10F770001A703B68013B3B603B68002BF0D13B6853
:10F780007A68D2183B6801337968CB1812781A70FE
:10F79000C046BD4602B080BDF0B597B000AF7861FD
:10F7A00039610023FB647B699A69DB693A647B6495
:10F7B000386C796CFCF7D4FE02000B00BA63FB6373
:10F7C00000237B6500233B650C2310269B19DB1966
:10F7D00000221A60043316220021180007F042FBB1
:10F7E00027239B19DE19FFF77BFE030033703B696B
:10F7F000002B01D1002344E13A6C7B6C386C796CAE
:10F80000FEF762FD031E20D13B6C1C007B6C5B008D
:10F810005D0801231E1C012252429C4B200029003E
:10F82000FEF752FD031E0AD101225242974B2000DF
:10F830002900FCF71BFE031E01D100231E1CF3B29E
:10F8400001225340DBB2002B0BD0914A0C23102134
:10F850005B18DB191100180007F098FA03007B65AC
:10F86000C5E000220023386C796CFCF7EFFD031E25
:10F8700006D00C2310229B18DB1930221A70ADE041
:10F88000B86BF96BFCF7A0FE3A6C7B6CFEF79AF94B
:10F8900002000B001000190000220023FCF7D6FD27
:10F8A000031E09D00C2310229B18DA19B86BF96BD0
:10F8B0000023FFF70AFF91E000220023386C796CE7
:10F8C000FCF7CAFD031E6AD03B6CBB607B6C8022D8
:10F8D00012065A40FA60BB68FC683B647C64386C72
:10F8E000796CFCF73DFE02000B00BA63FB63B86B5A
:10F8F000F96BFCF769FE3A6C7B6CFEF763F902006A
:10F900000B001000190000220023FCF79FFD031ECE
:10F910001AD00C2410256319DA19B86BF96B00237F
:10F92000FFF7D3FE6319DB191800FCF7EDFB0300AA
:10F930001A006319DB1911001800FFF70BFF631998
:10F94000DB192D221A7049E03B6C3B607B6C8022F6
:10F9500012065A407A603B687C683B647C640022F3
:10F960004C4B386C796CFCF78BFD031E0BD03A6C5A
:10F970007B6C49490C2010240019C01907F006FAC5
:10F9800003007B652AE03A6C7B6C44490C20102410
:10F990000019C01907F0FAF903007B651EE0002288
:10F9A0003C4B386C796CFCF757FD031E0BD03A6C5E
:10F9B0007B6C39490C2010240019C01907F0E6F9B6
:10F9C00003007B650AE03A6C7B6C34490C20102400
:10F9D0000019C01907F0DAF903007B650C23102227
:10F9E0009B18DB191800FCF78FFB03007B657B6D10
:10F9F000002B02DB7B6D192B01DD002341E07B6DC9
:10FA00005A1C3B6911001800FFF770FD0300FB64EE
:10FA1000FB6C002B01D1002333E000233B6520E089
:10FA20000C2310215B18DA193B6DD3181B782722A1
:10FA30005218D21912789A4205D1FA6C3B6DD3183C
:10FA40002E221A700AE0FA6C3B6DD3180C2210219A
:10FA50005218D1193A6D8A1812781A703B6D013319
:10FA60003B657B6D3A6D9A42DAD3FA6C3B6DD318E5
:10FA700000221A703B699A687B6DD2183B699A60C4
:10FA800001231800BD4617B0F0BDC046FFFFEF7F51
:10FA9000F09401080000E043F89401080095010883
:10FAA00080B588B000AF786039600023FB61002327
:10FAB0003B610023BB610023FB6000237B613B684B
:10FAC000002B01D10023E0E07B68002B15D13B68BF
:10FAD00003211800FFF70AFD03003B613B69002B7F
:10FAE00001D10023D1E03A696A4B100019000323C9
:10FAF0001A0007F0ECFA0123C7E07B68FB6122E003
:10FB0000FB691B78222B0DDC082B11DB083B624ABA
:10FB1000DA401300012213405A1E9341DBB2002B3E
:10FB200002D105E05C2B03D17B6901337B6107E0E7
:10FB3000FB691B781F2B02D87B6905337B61C046AC
:10FB4000FB690133FB61FB691B78002BD8D1FA6993
:10FB50007B68D31A1A007B699B18FB60FB68DA1C70
:10FB60003B6811001800FFF7C1FC03003B613B69D3
:10FB7000002B01D1002388E07B69002B17D13B6962
:10FB800022221A703B690133FA687968180007F07D
:10FB90009EFAFB6801333A69D31822221A70FB6877
:10FBA00002333A69D31800221A7001236DE03B69D1
:10FBB00022221A703B690133BB617B68FB6153E011
:10FBC000FB691B781F2B0CD9FB691B78222B08D0F3
:10FBD000FB691B785C2B04D0FB691A78BB691A702F
:10FBE0003CE0BB695A1CBA615C221A70FB691B7845
:10FBF000222B09DC082B25DB083B1A2B22D89A0084
:10FC0000264BD3181B689F465C2B1BD1BB695C221B
:10FC10001A7023E0BB6922221A701FE0BB696222BE
:10FC20001A701BE0BB6966221A7017E0BB696E226E
:10FC30001A7013E0BB6972221A700FE0BB6974225C
:10FC40001A700BE0FB691B781A001549BB69180094
:10FC500007F09CF8BB690433BB61C046FB69013304
:10FC6000FB61BB690133BB61FB691B78002BA7D12A
:10FC7000FB6801333A69D31822221A70FB680233F9
:10FC80003A69D31800221A7001231800BD4608B043
:10FC900080BDC04604950108370000041C97010888
:10FCA0000895010880B582B000AF786039607B6844
:10FCB0001B693A6811001800FFF7F2FE03001800F4
:10FCC000BD4602B080BD0000B0B58EB000AFF86098
:10FCD000B9607A6000237B6310243B192422002141
:10FCE000180007F0BFF87B681A68424B1B681800C1
:10FCF000904702003B191A603E4B1A683B195A6044
:10FD000025003B19BA685A617B197A68183313CAFF
:10FD100013C32C003B191B68002B4CD03A19FB680D
:10FD20001100180000F07AF8031E46D03B191800A5
:10FD3000FFF77CFC7B689B68002B11D07B689A687E
:10FD40003B1918683B199B68013319009047030061
:10FD50007B637B6B002B32D03B1900221A6028E0BA
:10FD60007B681A6810243B199B6801331800904780
:10FD700003007B637B6B002B23D03B1919683B1975
:10FD80009B68581C3B195A680300934200D9130022
:10FD9000786B1A0007F09BF910217B189B687A6B2F
:10FDA000D31800221A707B685A687B181B681800E9
:10FDB00090477B6B1AE0C04604E0C04602E0C046B4
:10FDC00000E0C04610217B181B68002B05D07B6823
:10FDD0005A687B181B68180090477B6B002B04D077
:10FDE0007B685B687A6B1000984700231800BD465B
:10FDF0000EB0B0BD0C98010880B582B000AF78603D
:10FE0000054A7B6801211800FFF75EFF0300180018
:10FE1000BD4602B080BDC0460000002080B584B061
:10FE200000AF786039600023FB607B68002B02D054
:10FE30003B68002B01D10023A1E07B68DB68FF2237
:10FE40001340802B5CD000DD98E0202B0ADC002BD7
:10FE500000DC93E0202B00D990E09A004A4BD318A5
:10FE60001B689F46402B00D180E087E03B6805215E
:10FE70001800FFF73BFB0300FB60FB68002B01D180
:10FE800000237CE0FA68414B1000190005231A009A
:10FE900007F01DF9012372E03B6806211800FFF707
:10FEA00025FB0300FB60FB68002B01D1002366E00B
:10FEB000FA68374B1000190006231A0007F007F9FB
:10FEC00001235CE03B6805211800FFF70FFB0300EE
:10FED000FB60FB68002B01D1002350E0FA682D4B3A
:10FEE0001000190005231A0007F0F1F8012346E07D
:10FEF0003A687B6811001800FFF74EFC03003EE0F3
:10FF00000023BB607B681B69002B01D1002336E016
:10FF10007B681B691800FCF7F7F803000133BB602E
:10FF2000BA683B6811001800FFF7E0FA0300FB60B5
:10FF3000FB68002B01D1002321E07B681969BA68B6
:10FF4000FB68180007F0C3F8012318E03A687B68E3
:10FF500011001800FFF7A6FE030010E03A687B6866
:10FF60001100180000F018F8030008E03A687B68F8
:10FF70001100180000F09EF8030000E000231800B4
:10FF8000BD4604B080BDC04688970108F0940108C2
:10FF9000149501081C95010880B586B000AF786003
:10FFA000396000237B610023FB607B689B683B61B9
:10FFB0003B68002B01D1002378E03B680121180049
:10FFC000FFF794FA03007B617B69002B01D10023CA
:10FFD0006CE07B695B221A703B689B685A1C3B682B
:10FFE0009A603B68DB685A1C3B68DA6041E03A681B
:10FFF0003B6911001800FFF711FF031E01D1002318
:020000040801F1
:1000000054E03B681800FFF711FB3B691B68002BAD
:100010002CD03B685B69002B01D0022300E0012358
:10002000FB60FB685A1C3B6811001800FFF75EFA82
:1000300003007B617B69002B01D1002336E07B69E3
:100040005A1C7A612C221A703B685B69002B04D021
:100050007B695A1C7A6120221A707B6900221A700F
:100060003B689A68FB68D2183B689A603B691B68DA
:100070003B613B69002BBAD13B6802211800FFF7B6
:1000800035FA03007B617B69002B01D100230DE071
:100090007B695A1C7A615D221A707B6900221A7092
:1000A0003B68DB685A1E3B68DA6001231800BD46D6
:1000B00006B080BD80B588B000AF7860396000239D
:1000C000FB610023FB607B689B68BB613B68002B86
:1000D00001D1002316E13B685B69002B01D00223AC
:1000E00000E00123FB60FB685A1C3B68110018000C
:1000F000FFF7FCF90300FB61FB69002B01D1002332
:1001000000E1FB695A1CFA617B221A703B68DB68CC
:100110005A1C3B68DA603B685B69002B04D0FB69C2
:100120005A1CFA610A221A703B689A68FB68D21856
:100130003B689A60AAE03B685B69002B24D03B686F
:10014000DA683B6811001800FFF7D0F90300FB6183
:10015000FB69002B01D10023D4E000237B6107E081
:10016000FB695A1CFA6109221A707B6901337B61B1
:100170003B68DB687A699A42F2D33B689A683B68CD
:10018000DB68D2183B689A60BB691B6A3A68110049
:100190001800FFF785FC031E01D10023B2E03B6885
:1001A0001800FFF743FA3B685B69002B01D002237C
:1001B00000E00123FB60FA683B6811001800FFF7BC
:1001C00095F90300FB61FB69002B01D1002399E045
:1001D000FB695A1CFA613A221A703B685B69002B72
:1001E00004D0FB695A1CFA6109221A703B689A68AC
:1001F000FB68D2183B689A603A68BB691100180026
:10020000FFF70CFE031E01D100237BE03B681800C2
:10021000FFF70CFA3B685B69002B01D0012200E07C
:100220000022BB691B68002B01D0012300E00023E2
:10023000D318FB60FB685A1C3B6811001800FFF7DD
:1002400055F90300FB61FB69002B01D1002359E044
:10025000BB691B68002B04D0FB695A1CFA612C2275
:100260001A703B685B69002B04D0FB695A1CFA6169
:100270000A221A70FB6900221A703B689A68FB68B0
:10028000D2183B689A60BB691B68BB61BB69002BD5
:1002900000D050E73B685B69002B03D03B68DB680C
:1002A000013300E002233A6819001000FFF71EF93D
:1002B0000300FB61FB69002B01D1002322E03B68B6
:1002C0005B69002B10D000233B6107E0FB695A1CDF
:1002D000FA6109221A703B6901333B613B68DB68B4
:1002E000013B3A699A42F1D3FB695A1CFA617D22BB
:1002F0001A70FB6900221A703B68DB685A1E3B6863
:10030000DA6001231800BD4608B080BD80B582B018
:1003100000AF786039607B683A681A603B687A6839
:100320005A60C046BD4602B080BD80B584B000AF03
:10033000786039600023FB603B68002B06D07B6847
:10034000002B03D07A683B689A4201D100231FE05A
:100350007B689B68FB60FB68002B09D17B683A686F
:100360009A603B683A685A603B6800221A600EE067
:10037000FB685B68002B0AD0FB685B683A68110079
:100380001800FFF7C3FF7B689B683A685A60012337
:100390001800BD4604B080BD80B582B000AF786063
:1003A0007B681800BD4602B080BD000080B586B0F5
:1003B00000AFF860B9607A603B6000237B61002386
:1003C0003B61FB68002B09D0BB68002B06D07B6823
:1003D000002B03D0FA687B689A4201D100233EE0EB
:1003E0003B6A002B0CD0BB681800FFF7D5FF030059
:1003F0007B617B68DB688022920013433B6111E0E4
:100400003A68BB6811001800FEF7DBFF03007B6150
:100410007B69002B01D1002321E07B68DB68124A55
:1004200013403B617B68DA6880239B00134009D14D
:100430007B681B6A002B05D03B685A687B681B6A87
:10044000180090477B687A691A627B683A69DA60BB
:100450007A68FB6811001800FFF767FF03001800B7
:10046000BD4606B080BDC046FFFDFFFF90B589B018
:1004700002AFF860B9603A607B603A687B68100050
:10048000190000F019F803007B610A4B7A69B9681A
:10049000F86800240094FFF789FF031E01D07B69F0
:1004A00004E07B691800FEF7D1FF00231800BD4669
:1004B00007B090BD0000002080B584B000AF386068
:1004C00079601B4B1800FEF7A8FF0300FB60FB6878
:1004D000002B27D0FB680822DA60F9683A687B684D
:1004E0008A61CB61134A144B38687968FBF7D2FFF5
:1004F000031E03D0FB68114A5A6113E00022104B1F
:1005000038687968FBF7B2FF031E04D0FB688022CD
:1005100012065A6106E038687968FDF7F3FE0200BA
:10052000FB685A61FB681800BD4604B080BDC04638
:10053000000000200000C0FFFFFFDF41FFFFFF7F42
:100540000000E0C180B582B000AF084B1800FEF794
:1005500064FF03007B607B68002B02D07B68402235
:10056000DA607B681800BD4602B080BD0000002044
:1005700090B587B000AF00F075FC0F4B0F4A9A6042
:1005800000F022F800F004F900F0B4F800F064F88C
:100590003B1D0B4A13CA13C303CA03C33B1D0021EF
:1005A000180004F0AEFA0200064B1A60FEF726FCB3
:1005B00004F09FFAFEE7C04600ED00E000C000082E
:1005C00030950108E805002090B593B000AF1024E5
:1005D0003B19180038231A00002106F043FC3B00A9
:1005E000180010231A00002106F03CFC80239B0019
:1005F000180000F0A5FF3B1902221A603B19802267
:100600005200DA603B1900221A613B1940225A61FC
:100610003B190022DA613B19180000F0DDFF031ED0
:1006200001D000F063F93B0007221A603B00002272
:100630005A603B0000229A603B000022DA603B00D7
:100640000021180001F0E2FA031E01D000F04EF97B
:10065000C046BD4613B090BD80B500AF234B244AC1
:100660001A60224BE12252025A60204B00229A600B
:100670001E4B0022DA601D4B00221A611B4B0C221C
:100680005A611A4B00229A61184B0022DA61174B0B
:1006900000221A62154B00225A62144B00229A6201
:1006A000124B180002F0C8F8031E01D000F01EF92A
:1006B0000E4B0021180004F0BFF8031E01D000F01B
:1006C00015F90A4B0021180004F0F6F8031E01D0BA
:1006D00000F00CF9054B180004F074F8031E01D06B
:1006E00000F004F9C046BD4680BDC046C0040020ED
:1006F0000038014080B500AF234B244A1A60224BDA
:10070000E12252025A60204B00229A601E4B0022C6
:10071000DA601D4B00221A611B4B0C225A611A4BE6
:1007200000229A61184B0022DA61174B00221A62EC
:10073000154B00225A62144B00229A62124B180089
:1007400002F07AF8031E01D000F0D0F80E4B002121
:10075000180004F071F8031E01D000F0C7F80A4B2E
:100760000021180004F0A8F8031E01D000F0BEF824
:10077000054B180004F026F8031E01D000F0B6F86F
:10078000C046BD4680BDC046540500200044004020
:1007900090B589B000AF0C243B19180014231A003F
:1007A000002106F05FFB204B5A6B1F4B04210A43CC
:1007B0005A631D4B5B6B04221340BB60BB681A4B32
:1007C0005A6B194B20210A435A63174B5B6B20224B
:1007D00013407B607B68144B5A6B134B01210A4317
:1007E0005A63114B5B6B012213403B603B683B1922
:1007F000802292011A603B19882252035A603B19E9
:1008000000229A603B19094A1900100000F0F6FC1A
:1008100000220321072000F0FFFB072000F011FC5D
:10082000C046BD4609B090BD00100240000800500F
:1008300080B582B000AF78602049214B6422180057
:1008400004F07CF80020FDF747FE96235B001800BB
:1008500004F07FF90320FDF73FFE96235B001800AC
:1008600004F077F9FEF700F8FEF71BF8FEF753F8EF
:100870002920FDF731FEFA239B00180004F069F9E6
:100880002720FDF729FEFA239B00180004F061F9E8
:100890000C4B1B685A1C0B4B1A60FEF761F82820A2
:1008A000FDF71AFEFA235B00180004F052F9FA2350
:1008B0005B00180004F04DF9EAE7C046F00500209F
:1008C000C00400205406002080B582B000AF7860DC
:1008D0007B681B68044A934201D100F0E3FAC046EA
:1008E000BD4602B080BDC0460048014080B500AFA3
:1008F00072B6C046FEE7000080B582B000AF154B6F
:100900001A6C144B01210A431A64124B1B6C01220E
:1009100013407B607B680F4BDA6B0E4B80214905DF
:100920000A43DA630B4BDA6B80235B0513403B60B1
:100930003B6802235B4200220321180000F06CFB9D
:10094000C023DB00180000F0C9FAC046BD4602B063
:1009500080BDC0460010024090B599B000AF7860ED
:100960004C23FB18180014231A00002106F07AFA11
:1009700018243B19180034231A00002106F072FADB
:100980007B681B684D4A934246D13B1901221A608D
:100990003B1900225A603B19180001F00BFB031EA3
:1009A00001D0FFF7A3FF464B1A6C454B8021C901CC
:1009B0000A431A64424B1A6C8023DB0113407B61AB
:1009C0007B693F4B5A6B3E4B04210A435A633C4BB5
:1009D0005B6B042213403B613B694C217B18302246
:1009E0001A607B1802225A607B1800229A607B18DA
:1009F0000022DA607B1801221A617B18314A190043
:100A0000100000F0FBFB002203211B2000F004FB80
:100A10001B2000F016FB4CE07B681B682A4A9342BF
:100A200047D118217B1802221A607B1800229A6095
:100A30007B18180001F0BEFA031E01D0FFF756FF25
:100A40001F4BDA6B1E4B802189020A43DA631C4B71
:100A5000DA6B80239B021340FB60FB68184B5A6BD8
:100A6000174B01210A435A63154B5B6B012213405C
:100A7000BB60BB684C217B180C221A607B180222D9
:100A80005A607B1800229A607B180022DA607B187B
:100A900001221A617A18A023DB051100180000F06A
:100AA000ADFB002203211C2000F0B6FA1C2000F050
:100AB000C8FAC046BD4619B090BDC04600380140D6
:100AC000001002400008005000440040B0B58CB057
:100AD00000AF78602B23FB1800221A70384B1A6C79
:100AE000374B8021C9020A431A64354B1A6C8023A4
:100AF000DB021340BB60BB680C23FA1810243B19BF
:100B00001100180001F02CFA3B19DB687B627B6A4C
:100B1000002B04D101F00EFA0300FB6204E001F0A7
:100B200009FA03005B00FB62FB6A26491800FBF729
:100B300007FB0300013B3B62234B244A1A60224B14
:100B4000234ADA60204B3A6A5A601F4B00221A612E
:100B50001D4B00229A601C4B00229A612B257C19A8
:100B6000194B180001F0DEFB030023707B191B7882
:100B7000002B1ED17C19144B180001F033FC03002C
:100B800023707B191B78002B13D1162000F059FA23
:100B90007B68032B09D87B6800221900162000F01F
:100BA0003BFA0C4B7A681A6003E02B23FB180122F6
:100BB0001A702B23FB181B781800BD460CB0B0BD73
:100BC0000010024040420F0058060020004801403B
:100BD000E70300001000002080B500AFFEE780B5FD
:100BE00000AFFEE780B500AF80239B01180000F046
:100BF00069FCC046BD4680BD80B500AF034B180000
:100C000001F04CFCC046BD4680BDC04658060020E1
:100C100080B582B000AF00237B600E4B180001F05E
:100C200005FF0D4B1B683A1D1100180004F066FC0F
:100C30007B68002B03D0094B802252051A600849BB
:100C4000044B6422180003F079FEC046BD4602B092
:100C500080BDC046C0040020EC05002004ED00E08B
:100C6000F005002080B500AF034B180001F0DEFE58
:100C7000C046BD4680BDC0465405002080B500AFCB
:100C800001231800BD4680BD80B582B000AF7860FA
:100C9000396006F0EFF9030016221A6001235B4267
:100CA0001800BD4602B080BD80B582B000AF78604C
:100CB00001235A427B6811001800FFF7E5FFFEE7A9
:100CC00080B586B000AFF860B9607A6000237B61C0
:100CD0000AE000E000BF0100BB685A1CBA60CAB25B
:100CE0001A707B6901337B617A697B689A42F0DB19
:100CF0007B681800BD4606B080BD80B586B000AFE9
:100D0000F860B9607A6000237B6109E0BB685A1C17
:100D1000BA601B78180000E000BF7B6901337B617B
:100D20007A697B689A42F1DB7B681800BD4606B0A1
:100D300080BD80B582B000AF786001235B421800AF
:100D4000BD4602B080BD80B582B000AF786039602A
:100D50003B68802292015A6000231800BD4602B011
:100D600080BD80B582B000AF786001231800BD4619
:100D700002B080BD80B584B000AFF860B9607A6021
:100D800000231800BD4604B080BD000080B586B0C9
:100D900000AF7860144A154BD31A7B617B693B61C5
:100DA000134B1B68002B02D1114B124A1A60104BD7
:100DB0001A687B68D3183A699A4207D206F05AF942
:100DC00003000C221A6001235B4209E0084B1B68F8
:100DD000FB60074B1A687B68D218054B1A60FB68EA
:100DE0001800BD4606B080BD009000200004000041
:100DF000A40600204819002080B500AF024B034A2A
:100E00009A60C046BD4680BD00ED00E000C000080D
:100E10000D488546FFF7F0FF0C480D490D4A0023A9
:100E200002E0D458C4500433C4188C42F9D30A4A9F
:100E30000A4C002301E013600432A242FBD306F007
:100E40001FF9FFF795FBFEE700900020000000204F
:100E5000E4010020B89C0108E801002044190020AA
:100E6000FEE7000080B582B000AFFB1D00221A70C3
:100E70000B4B1A680A4B802149000A431A60032071
:100E8000FFF724FE031E03D0FB1D01221A7001E0B0
:100E9000FFF732FDFB1D1B781800BD4602B080BD78
:100EA0000020024080B500AF054B1B781A00054BAF
:100EB0001B68D218034B1A60C046BD4680BDC046B1
:100EC00014000020A806002080B500AF024B1B686C
:100ED0001800BD4680BDC046A806002080B582B07F
:100EE00000AF7860064B1B68064A13401900044B9C
:100EF0007A680A431A60C046BD4602B080BDC0464B
:100F000000000140FFF9FFFF80B582B000AF020092
:100F1000FB1D1A70FB1D1B787F2B09D8FB1D1B784E
:100F20001A001F231A40044B012191400A001A6045
:100F3000C046BD4602B080BD00E100E090B583B080
:100F400000AF02003960FB1D1A70FB1D1B787F2B60
:100F500028D82F4AFB1D1B785BB29B08C0339B002F
:100F60009B58FA1D1278110003220A40D200FF217B
:100F700091400A00D2431A4011003B689B01FF22B6
:100F80001A40FB1D1B78180003230340DB009A4026
:100F90001F48FB1D1B785BB29B080A43C0339B00B4
:100FA0001A5031E01B4AFB1D1B7819000F230B4020
:100FB000083B9B0806339B00D31804331B68FA1DBB
:100FC0001278110003220A40D200FF2191400A004A
:100FD000D2431A4011003B689B01FF221A40FB1DBF
:100FE0001B78180003230340DB009A400948FB1DCF
:100FF0001B781C000F232340083B9B080A43063341
:101000009B00C31804331A60C046BD4603B090BDB0
:1010100000E100E000ED00E080B584B000AFB96011
:101020007A600F217B18021C1A70BA687B181B7833
:101030005BB211001800FFF781FFC046BD4604B047
:1010400080BD80B582B000AF0200FB1D1A70FB1D91
:101050001B785BB21800FFF757FFC046BD4602B0D1
:1010600080BD000080B582B000AF78607B68002B47
:1010700001D1012350E07B6825229B5CDBB2022B6F
:1010800008D07B680422DA637B682422002199540B
:10109000012341E07B681B681A687B681B680E218E
:1010A0008A431A607B685B6C1A687B685B6C1C49BE
:1010B0000A401A607B681B681A687B681B680121FC
:1010C0008A431A60174B59687B681B6C1C221340BB
:1010D00001229A40134B0A435A607B689B6C7A68E2
:1010E000D26C5A607B681B6D002B0CD07B681B6D2B
:1010F0001A687B681B6D0A490A401A607B685B6D41
:101100007A68926D5A607B682522012199547B6828
:1011100024220021995400231800BD4602B080BD4E
:10112000FFFEFFFF0000024080B584B000AF786092
:101130000F217B1800221A707B6825229B5CDBB292
:10114000022B06D07B680422DA637B1801221A7016
:1011500049E07B681B681A687B681B680E218A431C
:101160001A607B681B681A687B681B6801218A43C8
:101170001A607B685B6C1A687B685B6C1D490A406F
:101180001A601D4B59687B681B6C1C22134001229E
:101190009A40194B0A435A607B689B6C7A68D26C00
:1011A0005A607B681B6D002B0CD07B681B6D1A6826
:1011B0007B681B6D0F490A401A607B685B6D7A681B
:1011C000926D5A607B682522012199547B68242204
:1011D000002199547B689B6B002B04D07B689B6B30
:1011E0007A68100098470F23FB181B781800BD463B
:1011F00004B080BDFFFEFFFF0000024080B586B056
:1012000000AF7860396000237B6147E13B681B6871
:1012100001217A6991400A001340FB60FB68002BB2
:1012200000D138E13B685B6803221340012B05D0F5
:101230003B685B6803221340022B30D17B689B68BC
:101240003B617B695B0003229A401300DA433B69F0
:1012500013403B613B68DA687B695B009A4013008E
:101260003A6913433B617B683A699A607B685B68C3
:101270003B6101227B699A401300DA433B691340CA
:101280003B613B685B681B0901221A407B699A40FD
:1012900013003A6913433B617B683A695A603B68C3
:1012A0005B6803221340032B17D07B68DB683B612C
:1012B0007B695B0003229A401300DA433B691340C9
:1012C0003B613B689A687B695B009A4013003A690E
:1012D00013433B617B683A69DA603B685B680322D1
:1012E0001340022B23D17B69DA087B680832920015
:1012F000D3583B617B69072213409B000F229A4021
:101300001300DA433B6913403B613B681A697B6910
:1013100007210B409B009A4013003A6913433B613D
:101320007B69DA087B68083292003969D1507B68A2
:101330001B683B617B695B0003229A401300DA4320
:101340003B6913403B613B685B6803221A407B6941
:101350005B009A4013003A6913433B617B683A692A
:101360001A603B685A68C0239B02134000D192E088
:10137000504A7B699B0818339B009B583B617B69F3
:1013800003221340DB000F229A401300DA433B692B
:1013900013403B617A68A023DB059A4213D07B6837
:1013A000454A93420DD07B68444A934207D07B68FC
:1013B000434A934201D1032306E0052304E00223BC
:1013C00002E0012300E000237A6903210A40D200F1
:1013D00093403A6913433B6136497B699B08183354
:1013E0009B003A695A50334B1B683B61FB68DA43F8
:1013F0003B6913403B613B685A6880235B031340A1
:1014000003D03A69FB6813433B612A4B3A691A607F
:10141000284B5B683B61FB68DA433B6913403B61E7
:101420003B685A6880239B03134003D03A69FB68EA
:1014300013433B611F4B3A695A601E4A8423D358B9
:101440003B61FB68DA433B6913403B613B685A6888
:1014500080239B02134003D03A69FB6813433B612E
:10146000144984223B698B50124A8023D3583B6134
:10147000FB68DA433B6913403B613B685A68802351
:101480005B02134003D03A69FB6813433B6109498F
:1014900080223B698B507B6901337B613B681A6812
:1014A0007B69DA40131E00D0B0E6C046C046BD4698
:1014B00006B080BD00180240000400500008005033
:1014C000000C005080B582B000AF0200BB1D1A8036
:1014D000104BDB68BA1D1288134008D00D4BBA1DA3
:1014E0001288DA60BB1D1B88180000F015F8094B44
:1014F0001B69BA1D1288134008D0064BBA1D12880A
:101500001A61BB1D1B88180000F010F8C046BD46CC
:1015100002B080BD0018024080B582B000AF02006A
:10152000BB1D1A80C046BD4602B080BD80B582B0EA
:1015300000AF0200BB1D1A80C046BD4602B080BD90
:1015400080B584B000AF7860194B1B68194A13400E
:101550001900174B7A680A431A607A6880239B0047
:101560009A421FD1144B1A6813005B009B185B0052
:1015700012491800FAF7E4FD03000133FB6008E0AC
:10158000FB68002B03D0FB68013BFB6001E00323F9
:1015900009E0074B5A698023DB001A408023DB00F7
:1015A0009A42EDD000231800BD4604B080BDC0466D
:1015B00000700040FFF9FFFF0C00002040420F00C8
:1015C00080B500AF034B9A68E023DB01134018009D
:1015D000BD4680BD0010024080B588B000AF786085
:1015E0007B68002B01D10123FEE27B681B6801228E
:1015F000134000D17CE0C34B9B6838221340BB6191
:10160000C04BDB68032213407B61BB69102B02D106
:101610007B69032B02D0BB69082B0BD1B94B1A682D
:1016200080239B02134062D07B685B68002B5ED1F5
:101630000123D9E27B685A6880235B029A4207D172
:10164000B04B1A68AF4B802149020A431A6020E070
:101650007B685A68A023DB029A420ED1A94B1A6814
:10166000A84B8021C9020A431A60A64B1A68A54BF1
:10167000802149020A431A600BE0A24B1A68A14B71
:10168000A1490A401A609F4B1A689E4B9F490A4025
:101690001A607B685B68002B14D0FFF715FC030011
:1016A0003B6108E0FFF710FC02003B69D31A642B92
:1016B00001D9032398E2934B1A6880239B021340BD
:1016C000F0D015E0FFF700FC03003B6108E0FFF7F6
:1016D000FBFB02003B69D31A642B01D9032383E28D
:1016E000884B1A6880239B021340F0D100E0C0466B
:1016F0007B681B680222134000D199E0814B9B68F4
:1017000038221340BB617F4BDB68032213407B61AF
:10171000BB69102B02D17B69022B02D0BB69002B65
:1017200035D1784B1A688023DB00134005D07B68E5
:10173000DB68002B01D1012356E2724B5B68744ACF
:10174000134019007B685B691A026E4B0A435A60AA
:10175000BB69002B12D16B4B1B686E4A13401900FA
:101760007B681A69674B0A431A60664B1B68DB0A81
:1017700007221340684ADA40684B1A60684B1B68BE
:101780001800FFF7A3F9031E51D001232CE27B6858
:10179000DB68002B30D05B4B1B685E4A134019009E
:1017A0007B681A69574B0A431A60564B1A68554BA7
:1017B000802149000A431A60FFF786FB03003B6162
:1017C00008E0FFF781FB02003B69D31A022B01D925
:1017D000032309E24B4B1A688023DB001340F0D04F
:1017E000484B5B684A4A134019007B685B691A02E0
:1017F000444B0A435A601BE0424B1A68414B49492B
:101800000A401A60FFF760FB03003B6108E0FFF746
:101810005BFB02003B69D31A022B01D90323E3E1EE
:10182000384B1A688023DB001340F0D100E0C0463B
:101830007B681B680822134047D0324B9B683822D4
:101840001340182B0AD12F4B1B6E022213403CD0A1
:101850007B689B69002B38D10123C5E17B689B69BC
:10186000002B19D0274B1A6E264B01210A431A660A
:10187000FFF72AFB03003B6108E0FFF725FB0200AE
:101880003B69D31A022B01D90323ADE11D4B1B6E1B
:1018900002221340F1D018E01A4B1A6E194B0121A5
:1018A0008A431A66FFF710FB03003B6108E0FFF76D
:1018B0000BFB02003B69D31A022B01D9032393E1EE
:1018C000104B1B6E02221340F1D17B681B6804226F
:1018D000134000D1C6E01F23FB1800221A70094BE9
:1018E0009B6838221340202B1ED1064BDB6D022251
:1018F000134000D1B6E07B689B68002B00D0B1E0BC
:10190000012371E100100240FFFFFEFFFFFFFBFF1C
:10191000FF80FFFFFFC7FFFF0024F4000C00002042
:1019200010000020FFFEFFFFB14BDA6B80235B0548
:10193000134001D1012300E00023002B11D0AC4B58
:10194000DA6BAB4B802149050A43DA63A84BDA6BAB
:1019500080235B051340FB60FB681F23FB180122FB
:101960001A70A44B1A6880235B0013401AD1A14B54
:101970001A68A04B802149000A431A60FFF7A4FAB5
:1019800003003B6108E0FFF79FFA02003B69D31AAE
:10199000022B01D9032327E1964B1A6880235B00B1
:1019A0001340F0D07B689B68012B06D1904BDA6D19
:1019B0008F4B01210A43DA651CE07B689B68052B8D
:1019C0000CD18B4BDA6D8A4B04210A43DA65884BC4
:1019D000DA6D874B01210A43DA650BE0844BDA6D3F
:1019E000834B01218A43DA65814BDA6D804B0421F8
:1019F0008A43DA657B689B68002B14D0FFF764FA92
:101A000003003B6109E0FFF75FFA02003B69D31A6C
:101A1000794A934201D90323E6E0754BDB6D02223C
:101A20001340F0D013E0FFF74FFA03003B6109E0E9
:101A3000FFF74AFA02003B69D31A6F4A934201D971
:101A40000323D1E06A4BDB6D02221340F0D11F2348
:101A5000FB181B78012B05D1654BDA6B644B67498A
:101A60000A40DA637B68DB69002B00D1BBE0604B86
:101A70009B6838221340102B00D17BE07B68DB6928
:101A8000022B56D15A4B1A68594B5D490A401A60CD
:101A9000FFF71AFA03003B6108E0FFF715FA0200AE
:101AA0003B69D31A022B01D903239DE0504B1A68DE
:101AB00080239B041340F0D14D4BDB68514A134007
:101AC00019007B681A6A7B685B6A1A437B689B6AA9
:101AD0001B021A437B68DB6A1A437B681B6B1A4341
