:020000040800F2
:1000000000900020950C0008190C00081F0C000837
:1000100000000000000000000000000000000000E0
:10002000000000000000000000000000250C000897
:1000300000000000000000002F0C0008390C000830
:10004000E50C0008E50C0008E50C0008E50C0008CC
:10005000E50C0008E50C0008E50C0008470C00085A
:10006000E50C0008E50C0008E50C0008E50C0008AC
:10007000E50C0008E50C0008E50C0008E50C00089C
:10008000E50C0008E50C0008E50C0008E50C00088C
:10009000E50C0008E50C0008E50C0008E50C00087C
:1000A000E50C0008E50C0008E50C0008E50C00086C
:0C00B0005D0C0008E50C0008E50C0008E1
:1000C00010B5064C2378002B07D1054B002B02D02E
:1000D000044800E000BF0123237010BD94000020FD
:1000E00000000000884C0008044B10B5002B03D022
:1000F0000349044800E000BF10BDC04600000000F6
:1001000098000020884C0008002243088B4274D3DA
:1001100003098B425FD3030A8B4244D3030B8B4208
:1001200028D3030C8B420DD3FF22090212BA030C11
:100130008B4202D31212090265D0030B8B4219D3F2
:1001400000E0090AC30B8B4201D3CB03C01A524112
:10015000830B8B4201D38B03C01A5241430B8B425A
:1001600001D34B03C01A5241030B8B4201D30B0343
:10017000C01A5241C30A8B4201D3CB02C01A52416A
:10018000830A8B4201D38B02C01A5241430A8B422D
:1001900001D34B02C01A5241030A8B4201D30B0216
:1001A000C01A5241CDD2C3098B4201D3CB01C01A30
:1001B000524183098B4201D38B01C01A524143093A
:1001C0008B4201D34B01C01A524103098B4201D328
:1001D0000B01C01A5241C3088B4201D3CB00C01A95
:1001E000524183088B4201D38B00C01A524143080D
:1001F0008B4201D34B00C01A5241411A00D2014632
:10020000524110467047FFE701B5002000F0F0F8BA
:1002100002BDC0460029F7D076E7704703460B437E
:100220007FD4002243088B4274D303098B425FD3EF
:10023000030A8B4244D3030B8B4228D3030C8B421B
:100240000DD3FF22090212BA030C8B4202D3121201
:10025000090265D0030B8B4219D300E0090AC30BD6
:100260008B4201D3CB03C01A5241830B8B4201D383
:100270008B03C01A5241430B8B4201D34B03C01A6C
:100280005241030B8B4201D30B03C01A5241C30AE4
:100290008B4201D3CB02C01A5241830A8B4201D355
:1002A0008B02C01A5241430A8B4201D34B02C01A3F
:1002B0005241030A8B4201D30B02C01A5241CDD2E4
:1002C000C3098B4201D3CB01C01A524183098B422F
:1002D00001D38B01C01A524143098B4201D34B0118
:1002E000C01A524103098B4201D30B01C01A52417B
:1002F000C3088B4201D3CB00C01A524183088B4202
:1003000001D38B00C01A524143088B4201D34B00EA
:10031000C01A5241411A00D201465241104670475C
:100320005DE0CA0F00D04942031000D34042534061
:1003300000229C4603098B422DD3030A8B4212D321
:10034000FC22890112BA030A8B420CD38901921153
:100350008B4208D3890192118B4204D389013AD090
:10036000921100E08909C3098B4201D3CB01C01A65
:10037000524183098B4201D38B01C01A5241430978
:100380008B4201D34B01C01A524103098B4201D366
:100390000B01C01A5241C3088B4201D3CB00C01AD3
:1003A000524183088B4201D38B00C01A5241D9D2EB
:1003B00043088B4201D34B00C01A5241411A00D26C
:1003C0000146634652415B10104601D34042002B68
:1003D00000D54942704763465B1000D3404201B5E7
:1003E000002000F005F802BD0029F8D016E770479C
:1003F0007047C046002B11D1002A0FD1002900D12F
:10040000002802D00021C943080007B4024802A115
:100410004018029003BDC046D9FFFFFF03B46846F1
:1004200001B5029800F006F8019B9E4602B00CBC94
:100430007047C046F0B557464E464546DE46E0B5E5
:1004400004000D009246994683B08B4230D82DD0DF
:100450004946504600F0BAF829000600200000F096
:10046000B5F8331A9846203B34D49B4653465A4637
:10047000934042461F00534693401E00AF423BD874
:10048000AF4200D179E05B46A41BBD41002B00DAEE
:1004900076E0002200230092019301235A46934004
:1004A0000193012342469340009329E08242CFD931
:1004B00000220023009201930C9B002B01D01C60B2
:1004C0005D600098019903B0F0BCBB46B246A946F6
:1004D000A046F0BD42469B4620239B1A5246DA4076
:1004E000414613004A468A40170042461F4353467E
:1004F00093401E00AF42C3D9002200230092019313
:100500004346002BD8D0FB0772081A4346467B08A7
:100510000EE0AB4201D1A2420CD8A41A9D410120A9
:1005200024196D410021013E24184D41002E06D0B2
:10053000AB42EED9013E24196D41002EF8D100984E
:1005400001995B4600196941002B24DB2B005A46B8
:100550004446D3402A00E2401C005B461500002BB5
:100560002ADB26009E40330026004746BE4032006C
:10057000801A9941009001919EE7A342BCD882E77E
:100580004246202300219B1A002200910192012261
:10059000DA40019285E7424620239B1A2A0046460C
:1005A0009A402300F340444613432A00E2401C00D3
:1005B0005B461500002BD4DA42462F00202326008C
:1005C00097409B1ADE403B003343CDE710B500292E
:1005D00003D100F007F8203002E0080000F002F834
:1005E00010BDC0461C2101231B04984201D3000CFE
:1005F00010391B0A984201D3000A08391B09984296
:1006000001D30009043902A2105C40187047C046AB
:1006100004030202010101010000000000000000CB
:1006200080B586B000AF7860396000F05DFE0023D1
:100630007B6119E03A687B69D1180823FB1808220E
:10064000180004F017FB7A687B69D118BA68FB6858
:10065000012000F0FBFD031E03D000F069FE012322
:100660000AE07B6908337B617A6980239B009A42A8
:10067000E0D300F05DFE00231800BD4606B080BD4B
:10068000B0B588B000AF00237B601823FB6100F099
:100690002BFE08217B1802221A607B18FA699A60E7
:1006A0007B180A22DA601B257C193A1D7B18110081
:1006B000180000F0CDFE0300237000F039FE7B1916
:1006C0001B781800BD4608B0B0BD000080B584B0EE
:1006D00000AF72B6C046124B00221A60104B0022C7
:1006E0005A600F4B00229A600E4B180002F074F90A
:1006F00000F01AFB01F022FA0B4B1B68FB600B4B5E
:100700001B68BB60BB687B60FB683B603B6883F336
:100710000888C0467B689847C046BD4604B080BD87
:1007200010E000E0B400002000C0000804C0000891
:1007300080B584B000AF78600A00BB1C1A807B686B
:100740001B68294A93424AD1284B1B78FF2B19D1A9
:10075000264B5B78F42B15D1244B9B78F32B11D1CE
:10076000FFF78EFF031E06D1214922486423192278
:1007700002F072F92DE020491E486423182202F08D
:100780006BF926E0BB1C1A8880239B009A420CD28E
:10079000BB1C1A88154BD018BB1C1B8880229200EA
:1007A000D31A1A00FF2104F039FA144B1B68144ABB
:1007B000944663445B02FB600C4AFB68110018001E
:1007C000FFF72EFF031E04D10C4B1B685A1C0B4B6A
:1007D0001A600C4A0549074B180004F05DF9C04641
:1007E000BD4604B080BDC046004400404801002022
:1007F000B04C0008B4000020C84C0008B000002035
:1008000060000400DC05000080B582B000AF02008B
:10081000BB1D1A8080239B01064A1900100001F0BD
:10082000EFF8031E02D0044B01221A70C046BD46E9
:1008300002B080BD000800502407002080B500AF42
:1008400000F052FA00F038F800F0E2F800F092F808
:10085000134A1449144B180004F01EF9FA239B00A4
:10086000124911480C2202F0F7F8114B1B78DBB249
:10087000002B0ED0FA239B000E490B48102202F0E9
:10088000EBF8642000F0E2FA094B00221A70FFF73F
:100890001DFFFA239B00180000F0D8FAE5E7C046D8
:1008A000DC05000048010020B4000020E04C0008F6
:1008B00024070020F04C000890B593B000AF10243E
:1008C0003B19180038231A00002104F0A7F93B0057
:1008D000180010231A00002104F0A0F980239B00C7
:1008E000180001F0DFF83B1902221A603B19802240
:1008F0005200DA6021007B1800221A617B18402226
:100900005A617B180222DA617B1802221A627B1874
:1009100000225A627B1808229A627B188022920277
:10092000DA627B18802292041A637B188022920577
:100930005A637B18180001F07DF9031E01D000F006
:10094000B7F83B0007221A603B0002225A603B00C6
:1009500000229A603B000022DA603B00022118006E
:1009600001F082FC031E01D000F0A2F8C046BD4693
:1009700013B090BD80B500AF234B244A1A60224BC0
:10098000E12252025A60204B00229A601E4B002244
:10099000DA601D4B00221A611B4B0C225A611A4B64
:1009A00000229A61184B0022DA61174B00221A626A
:1009B000154B00225A62144B00229A62124B180007
:1009C00001F0B4FF031E01D000F072F80E4B0021BD
:1009D000180003F0DFFF031E01D000F069F80A4B96
:1009E0000021180004F016F8031E01D000F060F892
:1009F000054B180003F094FF031E01D000F058F8D7
:100A0000C046BD4680BDC046B40000200044004042
:100A100090B589B000AF0C243B19180014231A00BC
:100A2000002104F0FBF8204B5A6B1F4B04210A43B2
:100A30005A631D4B5B6B04221340BB60BB681A4BAF
:100A40005A6B194B20210A435A63174B5B6B2022C8
:100A500013407B607B68144B5A6B134B01210A4394
:100A60005A63114B5B6B012213403B603B683B199F
:100A7000802292011A603B19882252035A603B1966
:100A800000229A603B19094A1900100000F084FD09
:100A900000220021072000F0CBFA072000F0DDFA49
:100AA000C046BD4609B090BD00100240000800508D
:100AB00080B500AF72B6C046FEE7000080B582B0D8
:100AC00000AF0F4B1A6C0E4B01210A431A640C4BFA
:100AD0001B6C012213407B607B68094BDA6B084B6F
:100AE000802149050A43DA63054BDA6B80235B05F5
:100AF00013403B603B68C046BD4602B080BDC04667
:100B00000010024090B597B000AF78604423FB1806
:100B1000180014231A00002104F080F810243B1957
:100B2000180034231A00002104F078F87B681B6851
:100B3000264A934246D13B1902221A603B190022F1
:100B40009A603B19180001F039FD031E01D0FFF730
:100B5000AFFF1F4BDA6B1E4B802189020A43DA6319
:100B60001B4BDA6B80239B021340FB60FB68184B26
:100B70005A6B174B01210A435A63154B5B6B0122D9
:100B80001340BB60BB6844217B180C221A607B18A1
:100B900002225A607B1800229A607B180022DA60D9
:100BA0007B1801221A617A18A023DB0511001800B6
:100BB00000F0F2FC002200211C2000F039FA1C2079
:100BC00000F04BFAC046BD4617B090BD004400404F
:100BD0000010024080B582B000AF78607B681B686F
:100BE0000A4A93420ED10A4BDA6B094B09490A4073
:100BF000DA63A023DB050C21180000F031FE1C2075
:100C000000F03BFAC046BD4602B080BD0044004043
:100C100000100240FFFFFDFF80B500AFFEE780B58A
:100C200000AFFEE780B500AFC046BD4680BD80B5D1
:100C300000AFC046BD4680BD80B500AF00F0EAF809
:100C4000C046BD4680BD80B500AF80239B01180023
:100C500000F0F4FEC046BD4680BD000080B500AF88
:100C6000064B180001F09CFF054A0649034B18008B
:100C700003F012FFC046BD4680BDC046B400002050
:100C8000DC0500004801002080B500AFC046BD462D
:100C900080BD00000D488546FFF7F6FF0C480D4962
:100CA0000D4A002302E0D458C4500433C4188C42C7
:100CB000F9D30A4A0A4C002301E013600432A2422D
:100CC000FBD303F0B3FFFFF7B9FDFEE70090002070
:100CD00000000020940000209C4D0008940000209B
:100CE00048070020FEE7000080B582B000AFFB1D82
:100CF00000221A700B4B1A680A4B802149000A43E4
:100D00001A60032000F03CF8031E03D0FB1D0122F3
:100D10001A7001E0FFF7D2FEFB1D1B781800BD46DC
:100D200002B080BD0020024080B500AF104B012210
:100D30005242DA620E4B0022DA620D4B012252421D
:100D40001A630B4B00221A63094B012252429A622A
:100D5000074B00229A62064B012252425A62044B10
:100D600000225A6200F006F800231800BD4680BD3C
:100D70000010024080B500AFC046BD4680BD0000F7
:100D800090B585B000AF78600F23FB1800221A7071
:100D90001D4B1B78002B2BD01C4B1C681A4B1B784F
:100DA0001900FA239800FFF7AFF90300190020009B
:100DB000FFF7AAF90300180000F06FF9031E12D123
:100DC0007B68032B0AD8796801235B420022180054
:100DD00000F02EF90E4B7A681A600DE00F23FB1815
:100DE00001221A7008E00F23FB1801221A7003E099
:100DF0000F23FB1801221A700F23FB181B78180011
:100E0000BD4605B090BDC04608000020000000208F
:100E10000400002080B500AF054B1B781A00054B7D
:100E20001B68D218034B1A60C046BD4680BDC04641
:100E3000080000202807002080B500AF024B1B6887
:100E40001800BD4680BDC0462807002080B584B08C
:100E500000AF7860FFF7F0FF0300BB607B68FB60CA
:100E6000FB68013305D00A4B1B781A00FB689B18FE
:100E7000FB60C046FFF7E0FF0200BB68D31AFA68C8
:100E80009A42F7D8C046C046BD4604B080BDC046B1
:100E90000800002080B582B000AF0200FB1D1A7070
:100EA000FB1D1B787F2B09D8FB1D1B781A001F2305
:100EB0001A40044B012191400A001A60C046BD4609
:100EC00002B080BD00E100E080B582B000AF02005A
:100ED000FB1D1A70FB1D1B787F2B10D8FB1D1B7888
:100EE0001A001F231340084901229A401300802250
:100EF0008B50BFF34F8FC046BFF36F8FC046C046C5
:100F0000BD4602B080BDC04600E100E090B583B0B0
:100F100000AF02003960FB1D1A70FB1D1B787F2B90
:100F200028D82F4AFB1D1B785BB29B08C0339B005F
:100F30009B58FA1D1278110003220A40D200FF21AB
:100F400091400A00D2431A4011003B689B01FF22E6
:100F50001A40FB1D1B78180003230340DB009A4056
:100F60001F48FB1D1B785BB29B080A43C0339B00E4
:100F70001A5031E01B4AFB1D1B7819000F230B4050
:100F8000083B9B0806339B00D31804331B68FA1DEB
:100F90001278110003220A40D200FF2191400A007A
:100FA000D2431A4011003B689B01FF221A40FB1DEF
:100FB0001B78180003230340DB009A400948FB1DFF
:100FC0001B781C000F232340083B9B080A43063371
:100FD0009B00C31804331A60C046BD4603B090BDE1
:100FE00000E100E000ED00E080B582B000AF786085
:100FF0007B685A1E80235B049A4201D3012310E0D0
:101000000A4B7A68013A5A6001235B4203211800B7
:10101000FFF77CFF054B00229A60044B07221A6001
:1010200000231800BD4602B080BDC04610E000E0BD
:1010300080B584B000AFB9607A600F217B18021CC4
:101040001A70BA687B181B785BB211001800FFF7A2
:101050005DFFC046BD4604B080BD80B582B000AF24
:101060000200FB1D1A70FB1D1B785BB21800FFF716
:1010700011FFC046BD4602B080BD80B582B000AF52
:101080000200FB1D1A70FB1D1B785BB21800FFF7F6
:101090001BFFC046BD4602B080BD80B582B000AF28
:1010A00078607B681800FFF79FFF03001800BD46BB
:1010B00002B080BD80B582B000AF78607B68002B45
:1010C00001D1012350E07B6825229B5CDBB2022B1F
:1010D00008D07B680422DA637B68242200219954BB
:1010E000012341E07B681B681A687B681B680E213E
:1010F0008A431A607B685B6C1A687B685B6C1C496E
:101100000A401A607B681B681A687B681B680121AB
:101110008A431A60174B59687B681B6C1C2213406A
:1011200001229A40134B0A435A607B689B6C7A6891
:10113000D26C5A607B681B6D002B0CD07B681B6DDA
:101140001A687B681B6D0A490A401A607B685B6DF0
:101150007A68926D5A607B682522012199547B68D8
:1011600024220021995400231800BD4602B080BDFE
:10117000FFFEFFFF0000024080B584B000AF786042
:101180000F217B1800221A707B6825229B5CDBB242
:10119000022B06D07B680422DA637B1801221A70C6
:1011A00049E07B681B681A687B681B680E218A43CC
:1011B0001A607B681B681A687B681B6801218A4378
:1011C0001A607B685B6C1A687B685B6C1D490A401F
:1011D0001A601D4B59687B681B6C1C22134001224E
:1011E0009A40194B0A435A607B689B6C7A68D26CB0
:1011F0005A607B681B6D002B0CD07B681B6D1A68D6
:101200007B681B6D0F490A401A607B685B6D7A68CA
:10121000926D5A607B682522012199547B682422B3
:10122000002199547B689B6B002B04D07B689B6BDF
:101230007A68100098470F23FB181B781800BD46EA
:1012400004B080BDFFFEFFFF00000240B0B586B0D5
:1012500000AFF860B9603A607B60214B1B78012BCE
:1012600001D1022338E01E4B01221A701C4B0022D0
:101270005A6017257C19FA239B00180000F07AF8B1
:10128000030023707B191B78002B1FD1FB68012BF7
:1012900006D13A687B68B968080000F0B9F805E043
:1012A0003A68BB681100180003F0FAFC1723FC1819
:1012B000FA239B00180000F05DF803002370094B2F
:1012C0005A69FB68D943074B0A405A61044B002214
:1012D0001A701723FB181B781800BD4606B0B0BD66
:1012E0002C0700200020024080B582B000AFFB1D1B
:1012F00000221A700B4B5B69002B0CDA094B0A4A6F
:101300009A60084B094A9A60064B5B69002B02DA27
:10131000FB1D01221A70FB1D1B781800BD4602B090
:1013200080BDC0460020024023016745AB89EFCD58
:1013300080B582B000AFFB1D01221A70FA239B001A
:10134000180000F017F80A4B5A69094B802109066A
:101350000A435A61064B5B69002B02DAFB1D00222F
:101360001A70FB1D1B781800BD4602B080BDC04638
:101370000020024080B584B000AF7860FFF75CFDCC
:101380000300FB6080235B02BB600CE07B680133E1
:1013900009D0FFF751FD0200FB68D31A7A689A4220
:1013A00001D8032328E0164B1B69BA681340EDD11E
:1013B000134B1B69134A1340BB60114B124A1A614D
:1013C000BB68002B11D0114BBA685A60012313E09F
:1013D0007B68013309D0FFF72FFD0200FB68D31AA9
:1013E0007A689A4201D8032306E0054B1A698023E4
:1013F000DB021340ECD100231800BD4604B080BDD1
:1014000000200240FAC30000FBC300002C070020AC
:10141000B0B584B000AFF8603A607B600B4B5A699E
:101420000A4B01210A435A61FB683A681A60BFF30C
:101430006F8FC0467B681C0000231D00FB680433CF
:1014400022001A60C046BD4604B0B0BD0020024074
:10145000B0B584B000AF78603960354B1B78012B94
:1014600001D102235FE0324B01221A70304B00227F
:101470005A600F257C19FA239B001800FFF77AFFAA
:10148000030023702C003B191B78002B45D17B688F
:1014900004225A607B681B68042B0DD17B685B6853
:1014A000180000F049F83C19FA239B001800FFF7D8
:1014B00061FF0300237030E03B68012252421A6052
:1014C0007B689B68BB601AE07B685B68BA68110048
:1014D000180000F045F80F257C19FA239B0018002E
:1014E000FFF748FF030023707B191B78002B03D004
:1014F0003B68BA681A600AE0BB680133BB607B686E
:101500009A687B68DB68D318BA689A42DCD3094BC7
:101510005A69084B02218A435A61054B00221A700E
:101520000F23FB181B781800BD4604B0B0BDC046A1
:101530002C0700200020024080B582B000AF786008
:10154000064B5A697B681A43044B802149020A43BF
:101550005A61C046BD4602B080BDC0460020024070
:1015600080B584B000AF78603960084B5B69084A89
:101570001340FB603B68DA00FB681A43034B0549E4
:101580000A435A61C046BD4604B080BD00200240F7
:1015900007E0FFFF0200010080B586B000AF786071
:1015A000396000237B6147E13B681B6801217A6950
:1015B00091400A001340FB60FB68002B00D138E12A
:1015C0003B685B6803221340012B05D03B685B68D6
:1015D00003221340022B30D17B689B683B617B69FF
:1015E0005B0003229A401300DA433B6913403B61DE
:1015F0003B68DA687B695B009A4013003A691343E1
:101600003B617B683A699A607B685B683B61012259
:101610007B699A401300DA433B6913403B613B68A6
:101620005B681B0901221A407B699A4013003A69E2
:1016300013433B617B683A695A603B685B680322ED
:101640001340032B17D07B68DB683B617B695B0031
:1016500003229A401300DA433B6913403B613B6825
:101660009A687B695B009A4013003A6913433B61B7
:101670007B683A69DA603B685B6803221340022B9F
:1016800023D17B69DA087B6808329200D3583B612A
:101690007B69072213409B000F229A401300DA4314
:1016A0003B6913403B613B681A697B6907210B402A
:1016B0009B009A4013003A6913433B617B69DA0847
:1016C0007B68083292003969D1507B681B683B61A6
:1016D0007B695B0003229A401300DA433B691340A5
:1016E0003B613B685B6803221A407B695B009A4060
:1016F00013003A6913433B617B683A691A603B689F
:101700005A68C0239B02134000D192E0504A7B6983
:101710009B0818339B009B583B617B690322134055
:10172000DB000F229A401300DA433B6913403B6110
:101730007A68A023DB059A4213D07B68454A93421E
:101740000DD07B68444A934207D07B68434A93425A
:1017500001D1032306E0052304E0022302E0012374
:1017600000E000237A6903210A40D20093403A69DD
:1017700013433B6136497B699B0818339B003A69E8
:101780005A50334B1B683B61FB68DA433B6913409B
:101790003B613B685A6880235B03134003D03A697E
:1017A000FB6813433B612A4B3A691A60284B5B681C
:1017B0003B61FB68DA433B6913403B613B685A6815
:1017C00080239B03134003D03A69FB6813433B61BA
:1017D0001F4B3A695A601E4A8423D3583B61FB6809
:1017E000DA433B6913403B613B685A6880239B02A4
:1017F000134003D03A69FB6813433B6114498422C8
:101800003B698B50124A8023D3583B61FB68DA4313
:101810003B6913403B613B685A6880235B0213407D
:1018200003D03A69FB6813433B61094980223B6955
:101830008B507B6901337B613B681A687B69DA40B6
:10184000131E00D0B0E6C046C046BD4606B080BDFF
:10185000001802400004005000080050000C005026
:1018600080B586B000AF7860396000237B61B4E05A
:1018700001227B699A403B6813403B613B69002B26
:1018800000D1A7E05A4A7B699B0818339B009B58FC
:10189000FB607B6903221340DB000F229A40FB6848
:1018A0001340FB607A68A023DB059A4213D07B6863
:1018B000504A93420DD07B684F4A934207D07B68D1
:1018C0004E4A934201D1032306E0052304E002239C
:1018D00002E0012300E000237A6903210A40D200DC
:1018E0009340FA689A4236D1414A8023D3583A69E4
:1018F000D2433F49134080228B503D4A8423D35822
:101900003A69D2433A49134084228B50384B5A6883
:101910003B69D943364B0A405A60354B1A683B69DC
:10192000D943334B0A401A607B6903221340DB0022
:101930000F229A401300FB602D4A7B699B081833E5
:101940009B009A58FB68D94329487B699B080A4049
:1019500018339B001A507B681A687B695B0003216F
:1019600099400B001A437B681A607B69DA087B6830
:1019700008329200D3587A6907210A4092000F2159
:1019800091400A00D1437A69D20819407B68083235
:101990009200D1507B689B687A6952000321914084
:1019A0000A00D2431A407B689A607B685B68012119
:1019B0007A6991400A00D2431A407B685A607B687A
:1019C000DB687A695200032191400A00D2431A4031
:1019D0007B68DA607B6901337B613A687B69DA4056
:1019E000131E00D044E7C046C046BD4606B080BDC9
:1019F000001802400004005000080050000C005085
:101A000080B584B000AF78600A00BB1C1A807B6888
:101A10001B69BA1C1288134004D00F23FB18012243
:101A20001A7003E00F23FB1800221A700F23FB1813
:101A30001B781800BD4604B080BD000080B582B0A0
:101A400000AF0200BB1D1A80104BDB68BA1D128864
:101A5000134008D00D4BBA1D1288DA60BB1D1B88DD
:101A60001800FEF7D1FE094B1B69BA1D12881340FE
:101A700008D0064BBA1D12881A61BB1D1B881800BE
:101A800000F006F8C046BD4602B080BD0018024016
:101A900080B582B000AF0200BB1D1A80C046BD46B3
:101AA00002B080BD80B584B000AF7860194B1B6870
:101AB000194A13401900174B7A680A431A607A686A
:101AC00080239B009A421FD1144B1A6813005B00BD
:101AD0009B185B0012491800FEF716FB0300013348
:101AE000FB6008E0FB68002B03D0FB68013BFB6058
:101AF00001E0032309E0074B5A698023DB001A4009
:101B00008023DB009A42EDD000231800BD4604B0CC
:101B100080BDC04600700040FFF9FFFF00000020BC
:101B200040420F0080B500AF034B9A68E023DB0111
:101B300013401800BD4680BD0010024080B582B041
:101B400000AFFFF779F903007B60354B1A68344B1F
:101B5000802149000A431A6008E0FFF76DF902008E
:101B60007B68D31A022B01D9032354E02C4B1A684B
:101B70008023DB001340F0D0294B8022D2015A6031
:101B8000FFF75AF903007B60254B00229A6009E0B9
:101B9000FFF752F902007B68D31A224A934201D917
:101BA000032338E01E4B9B6838221340F0D11C4BB6
:101BB000802252001A601A4B802252001A60FFF7EE
:101BC0003BF903007B6008E0FFF736F902007B6811
:101BD000D31A022B01D903231DE0114B1A6880236D
:101BE0009B041340F0D10E4B80225201DA600C4B63
:101BF00000229A610A4B012252421A620A4B0B4A96
:101C00001A600B4B1B681800FFF7BAF8031E01D0CF
:101C1000012300E000231800BD4602B080BDC0468D
:101C20000010024088130000000000200024F4008F
:101C30000400002080B588B000AF78607B68002B7E
:101C400001D10123FEE27B681B680122134000D111
:101C50007CE0C34B9B6838221340BB61C04BDB6800
:101C6000032213407B61BB69102B02D17B69032BDC
:101C700002D0BB69082B0BD1B94B1A6880239B0299
:101C8000134062D07B685B68002B5ED10123D9E2F0
:101C90007B685A6880235B029A4207D1B04B1A686E
:101CA000AF4B802149020A431A6020E07B685A68E2
:101CB000A023DB029A420ED1A94B1A68A84B8021BF
:101CC000C9020A431A60A64B1A68A54B8021490233
:101CD0000A431A600BE0A24B1A68A14BA1490A40C3
:101CE0001A609F4B1A689E4B9F490A401A607B6896
:101CF0005B68002B14D0FFF79FF803003B6108E0FE
:101D0000FFF79AF802003B69D31A642B01D9032329
:101D100098E2934B1A6880239B021340F0D015E0A1
:101D2000FFF78AF803003B6108E0FFF785F802003F
:101D30003B69D31A642B01D9032383E2884B1A68C9
:101D400080239B021340F0D100E0C0467B681B68F3
:101D50000222134000D199E0814B9B683822134046
:101D6000BB617F4BDB68032213407B61BB69102B97
:101D700002D17B69022B02D0BB69002B35D1784B95
:101D80001A688023DB00134005D07B68DB68002BDA
:101D900001D1012356E2724B5B68744A134019006B
:101DA0007B685B691A026E4B0A435A60BB69002B61
:101DB00012D16B4B1B686E4A134019007B681A697D
:101DC000674B0A431A60664B1B68DB0A0722134005
:101DD000684ADA40684B1A60684B1B681800FEF7C7
:101DE000CFFF031E51D001232CE27B68DB68002B60
:101DF00030D05B4B1B685E4A134019007B681A6940
:101E0000574B0A431A60564B1A68554B80214900BC
:101E10000A431A60FFF710F803003B6108E0FFF780
:101E20000BF802003B69D31A022B01D9032309E204
:101E30004B4B1A688023DB001340F0D0484B5B68A3
:101E40004A4A134019007B685B691A02444B0A43F3
:101E50005A601BE0424B1A68414B49490A401A60DC
:101E6000FEF7EAFF03003B6108E0FEF7E5FF020032
:101E70003B69D31A022B01D90323E3E1384B1A68DB
:101E80008023DB001340F0D100E0C0467B681B6874
:101E90000822134047D0324B9B6838221340182B3E
:101EA0000AD12F4B1B6E022213403CD07B689B69EA
:101EB000002B38D10123C5E17B689B69002B19D029
:101EC000274B1A6E264B01210A431A66FEF7B4FF10
:101ED00003003B6108E0FEF7AFFF02003B69D31A45
:101EE000022B01D90323ADE11D4B1B6E02221340CF
:101EF000F1D018E01A4B1A6E194B01218A431A6669
:101F0000FEF79AFF03003B6108E0FEF795FF020031
:101F10003B69D31A022B01D9032393E1104B1B6EAB
:101F200002221340F1D17B681B680422134000D1C8
:101F3000C6E01F23FB1800221A70094B9B68382249
:101F40001340202B1ED1064BDB6D0222134000D123
:101F5000B6E07B689B68002B00D0B1E0012371E103
:101F600000100240FFFFFEFFFFFFFBFFFF80FFFFAF
:101F7000FFC7FFFF0024F400000000200400002041
:101F8000FFFEFFFFB14BDA6B80235B05134001D1ED
:101F9000012300E00023002B11D0AC4BDA6BAB4BDC
:101FA000802149050A43DA63A84BDA6B80235B057D
:101FB0001340FB60FB681F23FB1801221A70A44B1F
:101FC0001A6880235B0013401AD1A14B1A68A04BFA
:101FD000802149000A431A60FEF72EFF03003B618F
:101FE00008E0FEF729FF02003B69D31A022B01D952
:101FF000032327E1964B1A6880235B001340F0D03F
:102000007B689B68012B06D1904BDA6D8F4B0121C9
:102010000A43DA651CE07B689B68052B0CD18B4B6F
:10202000DA6D8A4B04210A43DA65884BDA6D874BF7
:1020300001210A43DA650BE0844BDA6D834B012101
:102040008A43DA65814BDA6D804B04218A43DA6575
:102050007B689B68002B14D0FEF7EEFE03003B610B
:1020600009E0FEF7E9FE02003B69D31A794A934280
:1020700001D90323E6E0754BDB6D02221340F0D05B
:1020800013E0FEF7D9FE03003B6109E0FEF7D4FE42
:1020900002003B69D31A6F4A934201D90323D1E06E
:1020A0006A4BDB6D02221340F0D11F23FB181B7813
:1020B000012B05D1654BDA6B644B67490A40DA6343
:1020C0007B68DB69002B00D1BBE0604B9B6838224A
:1020D0001340102B00D17BE07B68DB69022B56D1CB
:1020E0005A4B1A68594B5D490A401A60FEF7A4FE24
:1020F00003003B6108E0FEF79FFE02003B69D31A34
:10210000022B01D903239DE0504B1A6880239B04C6
:102110001340F0D14D4BDB68514A134019007B68E6
:102120001A6A7B685B6A1A437B689B6A1B021A43C4
:102130007B68DB6A1A437B681B6B1A437B685B6BAB
:102140001A43424B0A43DA60404B1A683F4B8021E6
:1021500049040A431A603D4BDA683C4B802149052B
:102160000A43DA60FEF768FE03003B6108E0FEF711
:1021700063FE02003B69D31A022B01D9032361E0FD
:10218000324B1A6880239B041340F0D059E02F4B48
:102190001A682E4B31490A401A60FEF74DFE0300C3
:1021A0003B6108E0FEF748FE02003B69D31A022BB0
:1021B00001D9032346E0254B1A6880239B04134072
:1021C000F0D1224BDA68214B26490A40DA6038E028
:1021D0007B68DB69012B01D1012333E01B4BDB68FA
:1021E0007B617B6903221A407B681B6A9A4226D175
:1021F0007B6970221A407B685B6A9A421FD17A69B8
:10220000FE23DB011A407B689B6A1B029A4216D1AF
:102210007A69F8239B031A407B68DB6A9A420ED1E5
:102220007A69E0231B051A407B681B6B9A4206D132
:102230007B695B0F5A077B685B6B9A4201D0012375
:1022400000E000231800BD4608B080BD0010024029
:102250000070004088130000FFFFFFEFFFFFFFFE4C
:102260008C80C111FCFFFEEE80B584B000AF7860B9
:1022700039607B68002B01D10123E9E0764B1B68B4
:10228000072213403A689A421ED9734B1B680722F3
:1022900093431900704B3A680A431A60FEF7CCFD6D
:1022A0000300FB6009E0FEF7C7FD0200FB68D31ADC
:1022B0006A4A934201D90323CAE0674B1B6807228D
:1022C00013403A689A42EED17B681B6802221340A1
:1022D00015D07B681B680422134006D0604B9A68B7
:1022E0005F4BE021C9010A439A605D4B9B685D4AE0
:1022F000134019007B689A68594B0A439A607B68BF
:102300001B680122134057D07B685B68012B07D103
:10231000534B1A6880239B0213402BD1012397E073
:102320007B685B68022B07D14D4B1A6880239B04A6
:1023300013401FD101238BE07B685B68002B07D122
:10234000474B1A688023DB00134013D101237FE041
:102350007B685B68032B06D1414B1B6E0222134046
:1023600008D1012374E03E4BDB6D0222134001D102
:1023700001236DE03A4B9B680722934319007B6869
:102380005A68374B0A439A60FEF756FD0300FB601C
:1023900009E0FEF751FD0200FB68D31A2F4A934271
:1023A00001D9032354E02E4B9B6838221A407B68E6
:1023B0005B68DB009A42ECD1274B1B680722134075
:1023C0003A689A421ED2244B1B6807229343190095
:1023D000214B3A680A431A60FEF72EFD0300FB60AA
:1023E00009E0FEF729FD0200FB68D31A1B4A93425D
:1023F00001D903232CE0184B1B68072213403A68CD
:102400009A42EED17B681B680422134009D0144B1A
:102410009B68154A134019007B68DA68104B0A4321
:102420009A6000F029F801000D4B9B681B0A0F22EF
:102430001A400E4B9200D3581F2213400A00DA4074
:102440000B4B1A600B4B1B681800FEF799FC03003E
:102450001800BD4604B080BD002002408813000073
:1024600000100240FFF0FFFFFF8FFFFF044D000848
:10247000000000200400002080B586B000AF3C4B77
:102480009B68382213400FD1394B1B68DB0A0722A7
:10249000134001229A4013003B6039683548FDF72C
:1024A00033FE03003B615DE0314B9B6838221340F3
:1024B000082B02D1304B3B6154E02D4B9B683822F6
:1024C0001340102B38D12A4BDB6803221340FB60EA
:1024D000274BDB681B09072213400133BB60FB68F5
:1024E000032B0DD1B9682448FDF70EFE0300190037
:1024F0001F4BDB681B0A7F2213404B437B610DE0BF
:10250000B9681C48FDF700FE03001900184BDB6892
:102510001B0A7F2213404B437B61C046144BDB6890
:102520005B0F0722134001337B6079687869FDF700
:10253000EBFD03003B6115E00D4B9B683822134017
:10254000202B03D180231B023B610BE0084B9B68CF
:1025500038221340182B03D1FA23DB013B6101E041
:1025600000233B613B691800BD4606B080BDC046F4
:10257000001002400024F40000127A0080B500AF81
:10258000024B1B681800BD4680BDC04600000020FD
:10259000B0B500AFFFF7F2FF0400FFF7C3FA030086
:1025A0001A0B054B9200D3581F221340DC40230026
:1025B0001800BD46B0BDC046444D000880B586B089
:1025C00000AF78601323FB1800221A701223FB1847
:1025D00000221A707B681A6880239B02134000D186
:1025E000A3E011203B1800221A70C34BDA6B802342
:1025F0005B05134010D1C04BDA6BBF4B80214905FE
:102600000A43DA63BC4BDA6B80235B051340BB6083
:10261000BB683B1801221A70B84B1A68B74B80216F
:1026200049000A431A60FEF707FC0300FB600BE059
:10263000FEF702FC0200FB68D31A022B04D9132315
:10264000FB1803221A7005E0AC4B1A6880235B006C
:102650001340EDD01323FB181B78002B54D1A64B4D
:10266000DA6DC0239B0013407B617B69002B19D07E
:102670007B681B6B7A699A4214D09F4BDB6DA04A32
:1026800013407B619C4BDA6D9B4B802149020A43CE
:10269000DA65994BDA6D984B9A490A40DA65964BA0
:1026A0007A69DA657B690122134016D0FEF7C4FB14
:1026B0000300FB600CE0FEF7BFFB0200FB68D31ACF
:1026C000914A934204D91323FB1803221A7004E0A1
:1026D000894BDB6D02221340EDD01323FB181B78CE
:1026E000002B0AD1844BDB6D854A134019007B68AF
:1026F0001A6B814B0A43DA650CE01223FB18132294
:10270000BA1812781A7005E01223FB181322BA18AF
:1027100012781A701123FB181B78012B05D1764B08
:10272000DA6B754B79490A40DA637B681B680122D2
:10273000134009D0704B5B6D0322934319007B68F3
:102740005A686D4B0A435A657B681B680222134026
:1027500009D0694B5B6D0C22934319007B689A6822
:10276000654B0A435A657B681B681022134009D0E9
:10277000614B5B6D664A134019007B68DA685E4BFB
:102780000A435A657B681A6880239B00134009D06E
:10279000594B5B6D5F4A134019007B689A69564B31
:1027A0000A435A657B681A688023DB00134009D00E
:1027B000514B5B6D584A134019007B68DA694E4BE8
:1027C0000A435A657B681B682022134009D04A4B94
:1027D0005B6D524A134019007B681A69464B0A43E5
:1027E0005A657B681A688023DB01134015D0424B81
:1027F0005B6D9B0099087B681A6A3F4B0A435A65D8
:102800007B681A6A8023DB059A4206D13A4BDA6864
:10281000394B802149020A43DA607B681A688023B9
:102820001B03134009D0344B5B6D402293431900C6
:102830007B685A6A304B0A435A657B681A68802362
:102840009B03134016D02C4B5B6D354A1340190087
:102850007B689A6A284B0A435A657B689A6A802388
:10286000DB039A4206D1244BDA68234B80214904CA
:102870000A43DA607B681A688023DB03134016D0B2
:102880001D4B5B6D274A134019007B68DA6A1A4BAF
:102890000A435A657B68DA6A80235B049A4206D150
:1028A000154BDA68144B802149040A43DA607B68CF
:1028B0001A6880231B01134016D00F4B5B6D1A4A18
:1028C000134019007B685A690B4B0A435A657B68B1
:1028D0005A698023DB019A4206D1074BDA68064B1E
:1028E000802149020A43DA601223FB181B78180082
:1028F000BD4606B080BDC0460010024000700040DA
:10290000FFFCFFFFFFFFFEFF88130000FFFFFFEF4C
:10291000FFF3FFFFFFFFF3FFFFFFCFFFFFCFFFFF3F
:10292000FFFFBFFFFFFFFFFEFF3FFFFF80B582B04D
:1029300000AF78607B68002B01D1012346E07B6803
:1029400088229B58002B07D17B6884220021995450
:102950007B681800FEF7D6F87B68882224219950FE
:102960007B681B681A687B681B6801218A431A60B0
:102970007B689B6A002B03D07B68180000F00CFF7B
:102980007B68180000F04AFC0300012B01D10123F1
:102990001CE07B681B685A687B681B680D490A400D
:1029A0005A607B681B689A687B681B682A218A4387
:1029B0009A607B681B681A687B681B6801210A4360
:1029C0001A607B68180000F09BFF03001800BD46EA
:1029D00002B080BDFFB7FFFF80B582B000AF786066
:1029E0007B68002B01D1012332E07B6888222421FF
:1029F00099507B681B681A687B681B6801218A43B1
:102A00001A607B681B6800221A607B681B680022C2
:102A10005A607B681B6800229A607B681800FEF78A
:102A2000D9F87B689022002199507B688822002188
:102A300099507B688C22002199507B680022DA66CD
:102A40007B6800221A677B68842200219954002346
:102A50001800BD4602B080BD80B58AB002AFF860F4
:102A6000B9603B60BB1D1A80FB6888229B58202BF5
:102A700000D090E0BB68002B03D0BB1D1B88002B4F
:102A800001D1012388E0FB689A6880235B019A42A8
:102A900009D1FB681B69002B05D1BB6801221340DB
:102AA00001D0012378E0FB68902200219950FB6857
:102AB000882221219950FEF7BFF903007B61FB6852
:102AC000BA1D542112885A52FB68BA1D5621128829
:102AD0005A52FB689A6880235B019A4208D1FB68CE
:102AE0001B69002B04D10023FB61BB68BB6103E0C1
:102AF000BB68FB610023BB6130E07A69F8683B6822
:102B0000009313000022802100F0A4FF031E05D0D3
:102B1000FB6888222021995003233DE0FB69002BAC
:102B20000BD1BB691B881A00FB681B68D205D20D4C
:102B30009A62BB690233BB6107E0FB691A78FB68E4
:102B40001B689A62FB690133FB61FB6856229B5A42
:102B50009BB2013B99B2FB6856229952FB68562200
:102B60009B5A9BB2002BC8D17A69F8683B680093E6
:102B700013000022402100F06DFF031E05D0FB680A
:102B8000882220219950032306E0FB688822202117
:102B90009950002300E002231800BD4608B080BD14
:102BA000B0B5AAB000AF78607B681B68DB69A4226F
:102BB000B9180B607B681B681B68A02039180B6074
:102BC0007B681B689B689C2439190B601100BB183B
:102BD0001B68A24A13409822BD182B60BB181B68C3
:102BE000002B1AD17B181B682022134015D03B18EC
:102BF0001B682022134005D13B191A6880235B050E
:102C000013400AD07B685B6F002B00D1DCE27B684D
:102C10005B6F7A6810009847D6E29823FB181B6810
:102C2000002B00D122E19C23FB181B688C4A134027
:102C300006D1A023FB181B688A4A134000D115E176
:102C4000A423FB181B680122134012D0A023FB18F9
:102C50001A6880235B0013400BD07B681B6801223D
:102C60001A627B6890229B5801221A437B6890214C
:102C70005A50A423FB181B680222134011D09C2336
:102C8000FB181B68012213400BD07B681B680222D3
:102C90001A627B6890229B5804221A437B68902119
:102CA0005A50A423FB181B680422134011D09C2304
:102CB000FB181B68012213400BD07B681B680422A1
:102CC0001A627B6890229B5802221A437B689021EB
:102CD0005A50A423FB181B680822134017D0A023C6
:102CE000FB181B682022134005D19C23FB181B688E
:102CF0005B4A13400BD07B681B6808221A627B6812
:102D000090229B5808221A437B6890215A50A42392
:102D1000FB181A6880231B01134013D0A023FB1853
:102D20001A688023DB0413400CD07B681B68802268
:102D300012011A627B6890229B5820221A437B68FA
:102D400090215A507B6890229B58002B00D13DE285
:102D5000A423FB181B682022134015D0A023FB18C6
:102D60001B682022134006D19C23FB181A6880237D
:102D70005B05134008D07B685B6F002B04D07B6839
:102D80005B6F7A68100098477B6890229B5894216B
:102D90007A1813607B681B689B6840221340402BA5
:102DA00004D07B181B68282213404CD07B68180085
:102DB00000F0E4FF7B681B689B6840221340402BB7
:102DC0003CD1EFF310833B663B6E90203A181360C2
:102DD00001237B667B6E83F31088C0467B681B688B
:102DE0009A687B681B6840218A439A603B181B687D
:102DF000BB66BB6E83F31088C0467B6880229B58FD
:102E0000002B16D07B6880229B58174A9A637B68F8
:102E100080229B581800FEF7AFF9031E1CD07B6878
:102E200080229B589B6B7A688021525810009847EB
:102E300012E07B68180000F0E9F90DE07B681800EB
:102E400000F0E4F908E07B68180000F0DFF97B6827
:102E5000902200219950B9E1C046B7E10F08000067
:102E60000100001020010004493E00087B68DB6E71
:102E7000012B00D03EE1A423FB181B681022134055
:102E800000D137E1A023FB181B681022134000D1AA
:102E900030E17B681B6810221A627B681B689B68A4
:102EA00040221340402B00D0A4E07B6880229B5836
:102EB0001B685A687E217B181A807B181B88002BA0
:102EC00000D185E17B685C229B5A7A1812889A426D
:102ED00000D37DE17B687A185E2112885A527B68A4
:102EE00080229B581B681B682022134070D1EFF38F
:102EF00010833B633B6BBB6701237B637B6B83F37B
:102F00001088C0467B681B681A687B681B68B449D8
:102F10000A401A60BB6FBB63BB6B83F31088C0466B
:102F2000EFF31083FB63FB6B7B6701233B643B6C1C
:102F300083F31088C0467B681B689A687B681B68AF
:102F400001218A439A607B6F7B647B6C83F31088DA
:102F5000C046EFF31083BB64BB6C3B670123FB648B
:102F6000FB6C83F31088C0467B681B689A687B689B
:102F70001B6840218A439A603B6F3B653B6D83F33E
:102F80001088C0467B688C22202199507B680022E3
:102F9000DA66EFF310837B657B6DFB660123BB650F
:102FA000BB6D83F31088C0467B681B681A687B681A
:102FB0001B6810218A431A60FB6EFB65FB6D83F36F
:102FC0001088C0467B6880229B581800FEF772F874
:102FD0007B6802221A677B685C229A5A7B685E21B2
:102FE0005B5A9BB2D31A9AB27B6811001800FDF7A6
:102FF0009FFBEDE07B685C22995A7B685E229B5ABE
:103000009AB28E203B188A1A1A807B685E229B5ADD
:103010009BB2002B00D1DDE03B181B88002B00D1B8
:10302000D8E0EFF31083FB60FB6888243A19136043
:1030300001233B613B6983F31088C0467B681B68B2
:103040001A687B681B6867490A401A603B191B684D
:103050007B617B6983F31088C046EFF31083BB610B
:10306000BB6984243A1913600123FB61FB6983F374
:103070001088C0467B681B689A687B681B685A4941
:103080000A409A603B191B683B623B6A83F31088D5
:10309000C0467B688C22202199507B680022DA662A
:1030A0007B6800225A67EFF310837B627B6A80247F
:1030B0003A1913600123BB62BB6A83F31088C046D0
:1030C0007B681B681A687B681B6810218A431A603A
:1030D0003B191B68FB62FB6A83F31088C0467B6860
:1030E00002221A673B181A887B6811001800FDF746
:1030F0001FFB6FE0A423FB181A6880235B031340B7
:1031000010D09C23FB181A688023DB03134009D0DE
:103110007B681B68802252031A627B68180001F0EA
:10312000E7FB5AE0A423FB181B688022134016D04B
:10313000A023FB181B688022134006D19C23FB1898
:103140001A6880231B04134009D07B689B6F002BF7
:1031500042D07B689B6F7A68100098473CE0A423BC
:10316000FB181B68402213400AD0A023FB181B68E1
:103170004022134004D07B68180000F07CFE2CE055
:10318000A423FB181A6880231B0413400BD0A02330
:10319000FB181A688023DB05134004D07B681800F5
:1031A00001F0B6FB19E0A423FB181A6880235B0426
:1031B000134012D0A023FB181B68002B0DDA7B688C
:1031C000180001F09DFB08E0C04606E0C04604E0A0
:1031D000C04602E0C04600E0C046BD462AB0B0BDD1
:1031E000FFFEFFFFDFFEFFFFFEFFFFEF80B582B0B7
:1031F00000AF7860C046BD4602B080BD80B582B0E9
:1032000000AF7860C046BD4602B080BD80B582B0D8
:1032100000AF7860C046BD4602B080BDB0B590B08A
:1032200000AF78621A2320229B18DB1900221A7043
:103230007B6A9A687B6A1B691A437B6A5B691A43DB
:103240007B6ADB691343FB637B6A1B681B68AF4ABD
:10325000134019007B6A1A68FB6B0B4313607B6A8F
:103260001B685B68AA4A134018007B6AD9687B6AAE
:103270001A6803000B4353607B6A9B69FB637B6A9C
:103280001B68A44A934204D07B6A1B6AFA6B1343FF
:10329000FB637B6A1B689B689F4A134019007B6A2B
:1032A0001A68FB6B0B4393607B6A1B68DB6A0F2217
:1032B000934318007B6A596A7B6A1A6803000B43C0
:1032C000D3627B6A1B68954A934231D1944B5B6D04
:1032D00003221340032B1DD023D8022B0CD020D85F
:1032E000002B02D0012B0ED01BE01B2320229B18A9
:1032F000DB1900221A70B4E01B2320229B18DB1973
:1033000002221A70ADE01B2320229B18DB19042235
:103310001A70A6E01B2320229B18DB1908221A70C2
:103320009FE01B2320229B18DB1910221A7098E0C3
:103330007B6A1B687B4A934231D1794B5B6D0C22CF
:1033400013400C2B1DD023D8082B0CD020D8002BD9
:1033500002D0042B0ED01BE01B2320229B18DB196C
:1033600000221A707DE01B2320229B18DB19022209
:103370001A7076E01B2320229B18DB1904221A7096
:103380006FE01B2320229B18DB1908221A7068E0CB
:103390001B2320229B18DB1910221A7061E07B6A24
:1033A0001B68614A934206D11B2320229B18DB191C
:1033B00000221A7055E07B6A1B685C4A934206D172
:1033C0001B2320229B18DB1900221A7049E07B6A1C
:1033D0001B68504A93423ED1514B5A6DC0231B018A
:1033E0001340C0221201934227D0C02212019342FF
:1033F0002AD880221201934211D0802212019342D6
:1034000022D8002B04D08022D20093420ED01BE0A1
:103410001B2320229B18DB1900221A7021E01B239A
:1034200020229B18DB1902221A701AE01B2320228B
:103430009B18DB1904221A7013E01B2320229B180F
:10344000DB1908221A700CE01B2320229B18DB19C1
:1034500010221A7005E01B2320229B18DB19102272
:103460001A707B6A1B682B4A934200D0A9E01B2389
:1034700020229B18DB191B78082B15D018DC042B95
:103480000DD015DC002B02D0022B05D010E0FFF789
:103490007FF803007B6314E0254B7B6311E0FEF7AC
:1034A000EBFF03007B630CE080231B027B6308E0DF
:1034B00000237B631A2320229B18DB1901221A7038
:1034C000C0467B6B002B00D14BE17B6A5A6A194BDB
:1034D0005200D35A1900786BFCF716FE0300BB624A
:1034E0007B6A5A6813005B009B18BA6A9A4205D33C
:1034F0007B6A5B681B03BA6A9A421DD91A23202291
:103500009B18DB1901221A702BE1C046F369FFCF2B
:10351000FFCFFFFF00800040FFF4FF1100380140A3
:10352000001002400044004000480040004C0040B1
:103530000024F400644D00087B6BBB610023FB6139
:103540007B6A5A6A924B5200D35A3B6100237B61DB
:103550003A697B69B869F969FCF74CFF02000B0016
:10356000110E1D020D4314027B6A5B685B08BB6091
:103570000023FB60B868F968001969417B6A5B68E1
:103580003B6000237B603A687B68FCF733FF0200F6
:103590000B0013003B633A6BC0239B009A4209D394
:1035A0003A6B80235B039A4204D27B6A1B683A6BB6
:1035B000DA60D6E01A2320229B18DB1901221A7048
:1035C000CFE07B6ADA6980231B029A4200D070E068
:1035D0001B2320229B18DB191B78082B15D018DC25
:1035E000042B0DD015DC002B02D0022B05D010E0EF
:1035F000FEF7CEFF03007B6314E0664B7B6311E0B4
:10360000FEF73AFF03007B630CE080231B027B6321
:1036100008E000237B631A2320229B18DB19012278
:103620001A70C0467B6B002B00D19AE07B6A5A6A05
:10363000574B5200D35A1900786BFCF765FD030015
:103640005A007B6A5B685B08D2187B6A5B6819006A
:103650001000FCF759FD03003B633B6B0F2B21D996
:103660003A6B80235B029A421CD23B6B9AB20E20CB
:1036700020240319DB190F218A431A803B6B5B0856
:103680009BB20722134099B20319DB190219D21910
:1036900012880A431A807B6A1B680219D2191288A1
:1036A000DA605EE01A2320229B18DB1901221A70CF
:1036B00057E01B2320229B18DB191B78082B15D001
:1036C00018DC042B0DD015DC002B02D0022B05D00A
:1036D00010E0FEF75DFF03007B6314E02D4B7B637E
:1036E00011E0FEF7C9FE03007B630CE080231B02A0
:1036F0007B6308E000237B631A2320229B18DB19DD
:1037000001221A70C0467B6B002B2AD07B6A5A6A52
:103710001F4B5200D35A1900786BFCF7F5FC0300DD
:103720001A007B6A5B685B08D2187B6A5B681900C9
:103730001000FCF7E9FC03003B633B6B0F2B0AD93D
:103740003A6B80235B029A4205D23B6B9AB27B6A4A
:103750001B68DA6005E01A2320229B18DB1901227E
:103760001A707B6A6A22012199527B6A68220121C0
:1037700099527B6A00225A677B6A00229A671A2351
:1037800020229B18DB191B781800BD4610B0B0BD75
:10379000644D00080024F40080B582B000AF78606A
:1037A0007B689B6A082213400BD07B681B685B68B0
:1037B0004A4A134019007B689A6B7B681B680A436E
:1037C0005A607B689B6A012213400BD07B681B68A0
:1037D0005B68434A134019007B68DA6A7B681B68A0
:1037E0000A435A607B689B6A022213400BD07B68B5
:1037F0001B685B683B4A134019007B681A6B7B6847
:103800001B680A435A607B689B6A042213400BD0F2
:103810007B681B685B68344A134019007B685A6BED
:103820007B681B680A435A607B689B6A10221340BE
:103830000BD07B681B689B682C4A134019007B687F
:10384000DA6B7B681B680A439A607B689B6A20225C
:1038500013400BD07B681B689B68254A13401900F6
:103860007B681A6C7B681B680A439A607B689B6A5A
:10387000402213401DD07B681B685B681D4A1340C3
:1038800019007B685A6C7B681B680A435A607B6826
:103890005A6C80235B039A420BD17B681B685B6880
:1038A000154A134019007B689A6C7B681B680A43B1
:1038B0005A607B689B6A802213400BD07B681B6830
:1038C0005B680E4A134019007B68DA6C7B681B68E2
:1038D0000A435A60C046BD4602B080BDFF7FFFFF6D
:1038E000FFFFFDFFFFFFFEFFFFFFFBFFFFEFFFFFFF
:1038F000FFDFFFFFFFFFEFFFFFFF9FFFFFFFF7FF70
:1039000080B592B002AF78607B6890220021995018
:10391000FDF792FA0300FB637B681B681B680822B3
:103920001340082B2DD1FB6B802291037868474A06
:103930000092002200F08EF8031E22D0EFF31083D5
:103940007B627B6ABB630123BB62BB6A83F3108823
:10395000C0467B681B681A687B681B6880218A43A5
:103960001A60BB6BFB62FB6A83F31088C0467B68FE
:103970008822202199507B688422002199540323B6
:1039800060E07B681B681B6804221340042B46D14F
:10399000FB6B8022D10378682C4A0092002200F051
:1039A00059F8031E3BD0EFF31083FB60FB687B6389
:1039B00001233B613B6983F31088C0467B681B6829
:1039C0001A687B681B6822490A401A607B6B7B611E
:1039D0007B6983F31088C046EFF31083BB61BB693A
:1039E0003B630123FB61FB6983F31088C0467B685E
:1039F0001B689A687B681B6801218A439A603B6B4D
:103A00003B623B6A83F31088C0467B688C2220218E
:103A100099507B68842200219954032312E07B682B
:103A20008822202199507B688C22202199507B6824
:103A30000022DA667B6800221A677B6884220021F4
:103A4000995400231800BD4610B080BDFFFFFF0150
:103A5000DFFEFFFF80B584B000AFF860B9603B6067
:103A6000FB1D1A7051E0BB6901334ED0FDF7E4F93C
:103A700002003B68D31ABA699A4202D3BB69002B91
:103A800001D1032351E0FB681B681B68042213402B
:103A90003BD0BB68802B38D0BB68402B35D0FB684F
:103AA0001B68DB6908221340082B11D1FB681B68D7
:103AB00008221A62FB68180000F060F9FB68902287
:103AC00008219950FB6884220021995401232CE09D
:103AD000FB681B68DA6980231B011A4080231B01E5
:103AE0009A4212D1FB681B68802212011A62FB689D
:103AF000180000F043F9FB68902220219950FB68E0
:103B000084220021995403230FE0FB681B68DB69C2
:103B1000BA681340BA68D31A5A425341DBB21A004A
:103B2000FB1D1B789A429ED000231800BD4604B0AE
:103B300080BD000080B598B000AFF860B960BB1DD3
:103B40001A80FB68BA689A65FB68BA1D5C21128806
:103B50005A52FB68BA1D5E2112885A52FB68002235
:103B60005A67FB689A6880235B019A420DD1FB6813
:103B70001B69002B04D1FB6860227B4999522EE01F
:103B8000FB686022FF21995229E0FB689B68002BAB
:103B90000DD1FB681B69002B04D1FB686022FF215B
:103BA00099521CE0FB6860227F21995217E0FB6864
:103BB0009A6880235B059A420DD1FB681B69002B34
:103BC00004D1FB6860227F21995208E0FB686022E3
:103BD0003F21995203E0FB68602200219952FB6863
:103BE000902200219950FB688C2222219950EFF3FA
:103BF00010833B643B6CFB6501237B647B6C83F32C
:103C00001088C046FB681B689A68FB681B68012126
:103C10000A439A60FB6DBB64BB6C83F31088C0469B
:103C2000FB685A6E80239B059A4250D1FB6868223C
:103C30009B5ABA1D12889A4249D3FB689A6880231E
:103C40005B019A4207D1FB681B69002B03D1FB681B
:103C5000464A5A6702E0FB68454A5A67FB681B6997
:103C6000002B19D0EFF310837B637B6BBB650123C3
:103C7000BB63BB6B83F31088C046FB681B681A6884
:103C8000FB681B68802149000A431A60BB6DFB6317
:103C9000FB6B83F31088C046EFF31083BB62BB6AF3
:103CA0007B650123FB62FB6A83F31088C046FB68D7
:103CB0001B689A68FB681B68802149050A439A6063
:103CC0007B6D3B633B6B83F31088C04647E0FB682A
:103CD0009A6880235B019A4207D1FB681B69002B1D
:103CE00003D1FB68234A5A6702E0FB68224A5A67FD
:103CF000FB681B69002B19D0EFF31083FB61FB6994
:103D0000FB6401233B623B6A83F31088C046FB6877
:103D10001B681A68FB681B68902149000A431A60F7
:103D2000FB6C7B627B6A83F3108818E0EFF31083EF
:103D30003B613B693B6501237B617B6983F31088B1
:103D4000C046FB681B681A68FB681B6820210A4391
:103D50001A603B6DBB61BB6983F31088C0460023CA
:103D60001800BD4618B080BDFF010000994500084D
:103D70005942000895400008D13E000880B58EB039
:103D800000AF7860EFF310837B617B697B63012375
:103D9000BB61BB6983F31088C0467B681B681A68E7
:103DA0007B681B6826490A401A607B6BFB61FB69D4
:103DB00083F31088C046EFF310833B623B6A3B639A
:103DC00001237B627B6A83F31088C0467B681B6893
:103DD0009A687B681B681B490A409A603B6BBB6210
:103DE000BB6A83F31088C0467B68DB6E012B18D159
:103DF000EFF31083BB60BB68FB620123FB60FB68D1
:103E000083F31088C0467B681B681A687B681B6850
:103E100010218A431A60FB6A3B613B6983F3108877
:103E2000C0467B688C22202199507B680022DA668C
:103E30007B6800225A67C046BD460EB080BDC046B2
:103E4000DFFEFFFFFEFFFFEF80B584B000AF7860BC
:103E50007B689B6AFB60FB685E2200219952FB68CD
:103E6000562200219952FB681800FFF7CFF9C0468F
:103E7000BD4604B080BD80B586B000AF7860EFF37A
:103E80001083BB60BB687B610123FB60FB6883F32D
:103E90001088C0467B681B681A687B681B684021D5
:103EA0008A431A607B693B613B6983F31088C04693
:103EB0007B688822202199507B6800229A677B6862
:103EC0001800FFF793F9C046BD4606B080BD00005C
:103ED00080B594B000AF78604E203B187A686021BE
:103EE000525A1A807B688C229B58222B00D0BFE04C
:103EF0007B681B685A6A4C217B181A807B181B88C8
:103F0000DAB23B181B88D9B27B689B6D0A40D2B2EB
:103F10001A707B689B6D5A1C7B689A657B685E2271
:103F20009B5A9BB2013B99B27B685E2299527B6897
:103F30005E229B5A9BB2002B00D0A1E0EFF31083CE
:103F40007B627B6ABB640123BB62BB6A83F310881C
:103F5000C0467B681B681A687B681B684A490A4030
:103F60001A60BB6CFB62FB6A83F31088C046EFF3F8
:103F700010833B633B6B7B6401237B637B6B83F32D
:103F80001088C0467B681B689A687B681B680121A3
:103F90008A439A607B6CBB63BB6B83F31088C0461B
:103FA0007B688C22202199507B6800225A677B68AD
:103FB00000221A677B681B68344A93421FD07B68D3
:103FC0001B685A6880231B04134018D0EFF310833A
:103FD000BB61BB693B640123FB61FB6983F3108810
:103FE000C0467B681B681A687B681B6828490A40C2
:103FF0001A603B6C3B623B6A83F31088C0467B6867
:10400000DB6E012B2FD17B680022DA66EFF3108381
:10401000FB60FB68FB6301233B613B6983F3108812
:10402000C0467B681B681A687B681B6810218A433E
:104030001A60FB6B7B617B6983F31088C0467B68E9
:104040001B68DB6910221340102B03D17B681B68AF
:1040500010221A627B685C229A5A7B681100180051
:10406000FCF766FB0CE07B681800FFF7C7F807E079
:104070007B681B689A697B681B6808210A439A6100
:10408000C046BD4614B080BDDFFEFFFF008000408B
:10409000FFFFFFFB80B594B000AF78604E203B1867
:1040A0007A686021525A1A807B688C229B58222B96
:1040B00000D0BFE07B681B685A6A4C217B181A80CD
:1040C0007B689B6DBB647B183A181B881288134071
:1040D0009AB2BB6C1A807B689B6D9A1C7B689A6550
:1040E0007B685E229B5A9BB2013B99B27B685E2241
:1040F00099527B685E229B5A9BB2002B00D0A1E0B4
:10410000EFF310833B623B6A7B6401237B627B6A33
:1041100083F31088C0467B681B681A687B681B683D
:104120004A490A401A607B6CBB62BB6A83F3108801
:10413000C046EFF31083FB62FB6A3B6401233B63E1
:104140003B6B83F31088C0467B681B689A687B686A
:104150001B6801218A439A603B6C7B637B6B83F312
:104160001088C0467B688C22202199507B680022F1
:104170005A677B6800221A677B681B68344A93423F
:104180001FD07B681B685A6880231B04134018D01B
:10419000EFF310837B617B69FB630123BB61BB6928
:1041A00083F31088C0467B681B681A687B681B68AD
:1041B00028490A401A60FB6BFB61FB6983F3108896
:1041C000C0467B68DB6E012B2FD17B680022DA664C
:1041D000EFF31083BB60BB68BB630123FB60FB682C
:1041E00083F31088C0467B681B681A687B681B686D
:1041F00010218A431A60BB6B3B613B6983F31088D3
:10420000C0467B681B68DB6910221340102B03D16A
:104210007B681B6810221A627B685C229A5A7B6852
:1042200011001800FCF784FA0CE07B681800FEF718
:10423000E5FF07E07B681B689A697B681B680821BB
:104240000A439A61C046BD4614B080BDDFFEFFFF41
:1042500000800040FFFFFFFB80B5A0B000AF78609A
:104260007A23FB187A686021525A1A807B681B688F
:10427000DB69FB677B681B681B687B677B681B6867
:104280009B683B677B688C229B58222B00D06AE19D
:104290006E23FB187A686821525A1A8011E17B68F4
:1042A0001B685A6A6C217B181A807B181B88DAB24B
:1042B0007A23FB181B88D9B27B689B6D0A40D2B267
:1042C0001A707B689B6D5A1C7B689A657B685E22BE
:1042D0009B5A9BB2013B99B27B685E2299527B68E4
:1042E0001B68DB69FB67FB6F0722134049D0FB6F3C
:1042F0000122134010D07A6F80235B0013400BD053
:104300007B681B6801221A627B6890229B580122FD
:104310001A437B6890215A50FB6F022213400FD042
:104320003B6F012213400BD07B681B6802221A628C
:104330007B6890229B5804221A437B6890215A5034
:10434000FB6F042213400FD03B6F012213400BD0B0
:104350007B681B6804221A627B6890229B580222A9
:104360001A437B6890215A507B6890229B58002BFF
:1043700007D07B681800FEF749FF7B689022002178
:1043800099507B685E229B5A9BB2002B00D098E02C
:10439000EFF31083BB63BB6BBB660123FB63FB6B5B
:1043A00083F31088C0467B681B681A687B681B68AB
:1043B00073490A401A60BB6E3B643B6C83F3108800
:1043C000C046EFF310837B647B6C7B660123BB6488
:1043D000BB6C83F31088C0467B681B689A687B6857
:1043E0001B6868490A409A607B6EFB64FB6C83F330
:1043F0001088C0467B688C22202199507B6800225F
:104400005A677B6800221A677B681B685E4A934282
:104410001FD07B681B685A6880231B04134018D088
:10442000EFF31083FB62FB6A3B6601233B633B6B4C
:1044300083F31088C0467B681B681A687B681B681A
:1044400052490A401A603B6E7B637B6B83F3108892
:10445000C0467B68DB6E012B2FD17B680022DA66B9
:10446000EFF310833B623B6AFB6501237B627B6A4F
:1044700083F31088C0467B681B681A687B681B68DA
:1044800010218A431A60FB6DBB62BB6A83F31088FC
:10449000C0467B681B68DB6910221340102B03D1D8
:1044A0007B681B6810221A627B685C229A5A7B68C0
:1044B00011001800FCF73CF903E07B681800FEF7D8
:1044C0009DFE6E23FB181B88002B04D0FB6F20225F
:1044D000134000D0E3E65A203B187A685E21525A16
:1044E0001A8001007B181B88002B44D07B6868224F
:1044F0009B5A7A1812889A423DD2EFF31083BB6020
:10450000BB687B650123FB60FB6883F31088C046B2
:104510007B681B689A687B681B681D490A409A6023
:104520007B6D3B613B6983F31088C0467B68194A09
:104530005A67EFF310837B617B693B650123BB61A5
:10454000BB6983F31088C0467B681B681A687B6868
:104550001B6820210A431A603B6DFB61FB6983F3F2
:104560001088C04607E07B681B689A697B681B68F7
:1045700008210A439A61C046BD4620B080BDC046AE
:10458000FFFEFFFFFEFFFFEF00800040FFFFFFFB8D
:10459000FFFFFFEFD13E000880B5A2B000AF78600A
:1045A0008223FB187A686021525A1A807B681B6844
:1045B000DB698422BA1813607B681B681B68FB6781
:1045C0007B681B689B68BB677B688C229B58222B8F
:1045D00000D074E17623FB187A686821525A1A8059
:1045E00019E17B681B685A6A74217B181A807B6802
:1045F0009B6D3B677B188222BA181B881288134078
:104600009AB23B6F1A807B689B6D9A1C7B689A6597
:104610007B685E229B5A9BB2013B99B27B685E220B
:1046200099527B681B68DB6984217A1813607B18B8
:104630001B68072213404ED07B181B6801221340D1
:1046400010D0FA6F80235B0013400BD07B681B688F
:1046500001221A627B6890229B5801221A437B68D0
:1046600090215A508423FB181B68022213400FD05C
:10467000BB6F012213400BD07B681B6802221A62B9
:104680007B6890229B5804221A437B6890215A50E1
:104690008423FB181B68042213400FD0BB6F012238
:1046A00013400BD07B681B6804221A627B6890223F
:1046B0009B5802221A437B6890215A507B689022B3
:1046C0009B58002B07D07B681800FEF79FFD7B6886
:1046D0009022002199507B685E229B5A9BB2002B4E
:1046E00000D098E0EFF31083FB63FB6BFB660123C4
:1046F0003B643B6C83F31088C0467B681B681A6878
:104700007B681B6874490A401A60FB6E7B647B6C93
:1047100083F31088C046EFF31083BB64BB6CBB66A9
:104720000123FB64FB6C83F31088C0467B681B6825
:104730009A687B681B6869490A409A60BB6E3B6552
:104740003B6D83F31088C0467B688C2220219950F2
:104750007B6800225A677B6800221A677B681B68A7
:104760005F4A93421FD07B681B685A6880231B04F2
:10477000134018D0EFF310833B633B6B7B66012340
:104780007B637B6B83F31088C0467B681B681A6869
:104790007B681B6853490A401A607B6EBB63BB6B26
:1047A00083F31088C0467B68DB6E012B2FD17B68BA
:1047B0000022DA66EFF310837B627B6A3B6601239B
:1047C000BB62BB6A83F31088C0467B681B681A68AB
:1047D0007B681B6810218A431A603B6EFB62FB6A90
:1047E00083F31088C0467B681B68DB691022134086
:1047F000102B03D17B681B6810221A627B685C2235
:104800009A5A7B6811001800FBF792FF03E07B685F
:104810001800FEF7F3FC7623FB181B88002B06D04C
:104820008423FB181B682022134000D0D9E65E20A9
:104830003B187A685E21525A1A8001007B181B8847
:10484000002B44D07B6868229B5A7A1812889A42BF
:104850003DD2EFF31083FB60FB68BB6501233B6136
:104860003B6983F31088C0467B681B689A687B6845
:104870001B681D490A409A60BB6D7B617B6983F3AD
:104880001088C0467B68194A5A67EFF31083BB61F2
:10489000BB697B650123FB61FB6983F31088C0461C
:1048A0007B681B681A687B681B6820210A431A60B2
:1048B0007B6D3B623B6A83F31088C04607E07B68F0
:1048C0001B689A697B681B6808210A439A61C04685
:1048D000BD4622B080BDC046FFFEFFFFFEFFFFEFDA
:1048E00000800040FFFFFFFBFFFFFFEF9540000847
:1048F00080B582B000AF7860C046BD4602B080BDD2
:1049000080B582B000AF7860C046BD4602B080BDC1
:1049100080B582B000AF7860C046BD4602B080BDB1
:1049200080B584B000AF78607B6884229B5C012BEB
:1049300001D1022327E07B688422012199547B68FE
:104940008822242199507B681B681B68FB607B6868
:104950001B681A687B681B6801218A431A60FB6820
:104960000B4A1340FB607B6800225A667B681B6819
:10497000FA681A607B688822202199507B6884221B
:104980000021995400231800BD4604B080BDC046E4
:10499000FFFFFFDF80B584B000AF786039607B68CF
:1049A00084229B5C012B01D102232EE07B688422B0
:1049B000012199547B688822242199507B681B68C7
:1049C0001B68FB607B681B681A687B681B68012199
:1049D0008A431A607B681B689B68DB00D9087B6888
:1049E0001B683A680A439A607B68180000F0B8F8C0
:1049F0007B681B68FA681A607B68882220219950BE
:104A00007B6884220021995400231800BD4604B01D
:104A100080BD000080B584B000AF786039607B68ED
:104A200084229B5C012B01D102232FE07B6884222E
:104A3000012199547B688822242199507B681B6846
:104A40001B68FB607B681B681A687B681B68012118
:104A50008A431A607B681B689B680E4A13401900E2
:104A60007B681B683A680A439A607B68180000F00C
:104A700077F87B681B68FA681A607B6888222021B7
:104A800099507B6884220021995400231800BD4668
:104A900004B080BDFFFFFFF180B58AB000AFF860C1
:104AA000B960BB1D1A802723FB1800221A70FB680F
:104AB0008C229B58202B4ED1BB68002B03D0BB1DF2
:104AC0001B88002B01D1012346E0FB689A688023F4
:104AD0005B019A4209D1FB681B69002B05D1BB68B9
:104AE0000122134001D0012336E0FB680122DA667F
:104AF000FB6800221A67BB1D1A88B968FB6818009A
:104B0000FFF718F8FB68DB6E012B1CD1FB681B68F4
:104B100010221A62EFF310837B617B693B620123F1
:104B2000BB61BB6983F31088C046FB681B681A68C9
:104B3000FB681B6810210A431A603B6AFB61FB6932
:104B400083F3108803E02723FB1801221A70272320
:104B5000FB181B7800E002231800BD460AB080BD98
:104B6000F0B585B000AF78607B685B6E002B08D134
:104B70007B686A22012199527B686822012199523F
:104B800043E00F26BB1908221A700E203B1808229A
:104B90001A707B681B689B685B0EDAB20D243B19A8
:104BA00007210A401A707B681B689B685B0FDAB2AA
:104BB0000C257B1907210A401A703B181B787A19BB
:104BC000127814498A5C5A4310007B191B78124AE8
:104BD000D35C1900FBF722FB030099B27B686A22C1
:104BE0009952BB191B783A1912780A498A5C5A43C0
:104BF00010003B191B78084AD35C1900FBF70EFB29
:104C0000030099B27B6868229952C046BD4605B040
:104C1000F0BDC0467C4D0008844D0008030082189A
:104C2000934200D1704719700133F9E770B500263F
:104C30000C4C0D4D641BA410A64209D1002600F0B7
:104C400023F80A4C0A4D641BA410A64205D170BD7E
:104C5000B300EB5898470136EEE7B300EB5898479E
:104C60000136F2E7944D0008944D0008984D000875
:104C7000944D0008002310B59A4200D110BDCC5CC1
:104C8000C4540133F8E70000F8B5C046F8BC08BCCE
:104C90009E467047F8B5C046F8BC08BC9E467047B3
:104CA00001B40248844601BC604700BF0D000020EB
:104CB000466C617368206572617365207375636308
:104CC0006573730D0A000000466C6173682065729D
:104CD000617365206661696C65640D0A00000000FF
:104CE000426F6F746C6F616465720D0A00000000A2
:104CF0004A756D70696E6720546F204170700D0A9F
:104D000000000000000000000000000000000000A3
:104D10000000000000000000000000000000000093
:104D2000000000000100000002000000030000007D
:104D3000040000000600000007000000080000005A
:104D4000090000000000000000000000000000005A
:104D5000000000000100000002000000030000004D
:104D600004000000010002000400060008000A0020
:104D70000C00100020004000800000010101010330
:0C4D800007010000080402040801010102
:084D8C00A8B6FF7F0100000042
:044D9400E90000082A
:044D9800C10000084E
:104D9C000024F400040000000100000080B588B07D
:104DAC0000AF786039601F23FB1800221A707B68F3
:104DBC00BB613B687B611A4B5A69194B8021C90254
:104DCC000A435A61EFF31083FB60FB683B6172B6D8
:104DDC00C0460FE07A69BB6912681A607B690433BC
:104DEC007B61BB690433BB611F217B181A787B186C
:104DFC0001321A701F23FB181B783F2BEAD9C046CF
:104E0C00074B1A6980235B021340F9D13B69BB60E5
:104E1C00BB6883F31088C046C046BD4608B080BD51
:044E2C000020024020
:0400000508000C954E
:00000001FF
